:020000040800F2
:10000000B0480020550200085D340008AD2A000801
:1000100059340008E5090008195A000800000000DA
:100020000000000000000000000000009D0100082A
:10003000251E000800000000F1010008C54F00085F
:100040006F0200086F0200086F0200086F020008CC
:100050006F0200086F0200086F0200086F020008BC
:100060006F0200086F0200086F020008E518000820
:100070006F020008211900086F020008BD1900086E
:100080006F0200086F0200086F020008510A0008A2
:10009000E90900081D0A00086F0200086F02000845
:1000A0006F0200086F0200086F0200086F0200086C
:1000B0006F02000861500008715000086F020008CC
:1000C0006F0200086F0200086F0200086F0200084C
:1000D0006F020008F95700086F0200081558000861
:1000E0006F0200086F0200086F0200086F0200082C
:1000F0006F0200086F0200086F020008F91900087B
:100100006F0200086F0200086F0200086F0200080B
:1001100075550008955500086F020008195300082E
:100120006F020008311A00089D1A00086F020008CB
:100130006F0200086F0200086F020008D50A00086D
:100140006D0A0008A10A00086F0200086F0200088B
:100150006F0200086F020008C91A00086F02000849
:100160006F0200086F0200086F0200086F020008AB
:100170006F0200086F0200086F0200086F0200089B
:100180006F0200086F020008DFF80CD000F0CCFA14
:100190000048004709650008B04800202A4B19684C
:1001A0000868B0E8F04F80F30988BFF36F8F4FF015
:1001B000000080F3118870470000000006480068C6
:1001C000006880F3088862B661B6BFF34F8FBFF353
:1001D0006F8F00DF00BF00BF08ED00E0DFF80C000C
:1001E000016841F470010160704700BF88ED00E0D4
:1001F000EFF30980BFF36F8F134B1A681EF0100FD7
:1002000008BF20ED108A20E9F04F106008B44FF0CD
:10021000500080F31188BFF34F8FBFF36F8F07F04B
:10022000D9FB4FF0000080F3118808BC19680868FA
:10023000B0E8F04F1EF0100F08BFB0EC108A80F34A
:100240000988BFF36F8F7047B0020020EFF305807D
:10025000704700000648804706480047FEE7FEE773
:10026000FEE7FEE7FEE7FEE7FEE7FEE7FEE7FEE766
:10027000F94F00088901000840EA01039B0703D0F9
:1002800009E008C9121F08C0042AFAD203E011F8D5
:10029000013B00F8013B521EF9D27047D2B201E097
:1002A00000F8012B491EFBD270470022F6E710B57B
:1002B00013460A4604461946FFF7F0FF204610BDD4
:1002C0002DE9FE4F804681EA0300C00F0C460090E6
:1002D00021F0004123F00045B8EB0200A94105D20E
:1002E0004046214690461C460B46024623F00040FD
:1002F000104347D0270DC7F30A00C3F30A510290F9
:10030000401A019040286BDAC3F3130040F4801BBD
:100310000098924620B10023D2EB030A63EB0B0B4B
:1003200001985946C0F14002504600F037F90646A0
:100330000D4650465946019A00F04FF910EB08005F
:100340006141002487EA115284EAE7731A4340D0DE
:10035000009A62B3019A012A4FEA075215DC001B8A
:1003600061EB02014FF0004202EA0752CDE9004280
:10037000001C41F5801132462B4600F086F903B08F
:10038000BDE8F08F40462146F9E7001B61EB020112
:10039000001C41F5801300185B412018A2F50017DE
:1003A00047EB030140EAD570B6196D4111E06D08C5
:1003B0004FEA360645EAC0754FEA0752001B61EB6B
:1003C0000201001C41F5801149084FEA3000001974
:1003D000514132462B4603B0BDE8F04F00F046B91C
:1003E0000098012240000023D0EB020263EBE0738F
:1003F000009821464FEAE074B8EB000061EB04017D
:10040000E9E783F000435BE781F0004158E72DE91D
:10041000FE4F81EA030404F0004421F000410094FF
:100420004FF0000B23F0004350EA01045ED052EA83
:1004300003045BD0C3F30A54C1F30A552C44A4F25D
:10044000F3340194A0FB0254C1F3130141F4801171
:10045000C3F3130343F4801301FB024400FB034E78
:10046000840A970A44EA815447EA8357A4FB076841
:1004700002958D0A05FB07854FEA932C04FB0C546B
:100480002705029D4FEA065847EA1637B5EB0805DF
:100490006EEB070C870E920E47EA811742EA831231
:1004A000A7FB0201B6EB0B0164EB00042B0D43EA42
:1004B0000C335E1844EB1C50DA465146E7FB020150
:1004C000C5F313044FEA0B3343EA14534FEA0432E3
:1004D000019C43EA0603A4F10C040294009CCDE9BC
:1004E00000B400F0D2F803B0BDE8F08F0020014660
:1004F000F9E70EB540F2334102910021CDE9001138
:100500000A460B4600F0C1F803B000BDC1F30A5221
:1005100010B5C1F3130140F2FF3341F480119A4248
:1005200001DA002010BD40F233439A42A2F2334276
:1005300003DC524200F041F810BD904010BD00F0C5
:10054000004230F000400AD0C10D01F56071C0F3E7
:10055000160042EA0151C2084007114370470020CB
:100560000146704701F0004330B421F0004150EAE9
:10057000010206D00A0DA2F56072C1F31301002A30
:1005800002DC30BC00207047440F44EAC104C100C3
:10059000E01830BC00EBC25000F031B8202A04DB78
:1005A000203A00FA02F1002070479140C2F1200386
:1005B00020FA03F3194390407047202A04DB203AC5
:1005C00021FA02F00021704721FA02F3D040C2F173
:1005D00020029140084319467047202A06DBCB17BA
:1005E000203A41FA02F043EAE07306E041FA02F3EE
:1005F000D040C2F1200291400843194670470029BB
:10060000A8BF7047401C490008BF20F00100704798
:1006100010B4B0FA80FC00FA0CF050EA010404BFF8
:1006200010BC704749B1CCF1200421FA04F411FA4E
:100630000CF118BF012121430843A3EB0C01CB1D92
:100640004FEA00614FEA102042BF002010BC704703
:1006500000EBC35010440029A4BF10BC7047401CDD
:10066000490008BF20F0010010BC704710B5141EEF
:1006700073F1000408DA401C41F1000192185B415B
:100680001A4301D120F0010010BD2DE9F04D924632
:100690009B4611B1B1FA81F202E0B0FA80F2203249
:1006A0009046FFF77BFF04460F4640EA0A0041EA06
:1006B0000B0153465A46084313D0114653EA010032
:1006C00019D0C8F140025046FFF777FF05460E46A5
:1006D000504659464246FFF761FF084305D00120C6
:1006E00004E020463946BDE8F08D0020054346EA87
:1006F000E0762C4337430A986305E40AA0EB080030
:100700000022FD0A44EA47540A3002D5002001467F
:10071000E9E7010510196941DDE90845001969415A
:10072000BDE8F04DA2E70000064C074D06E0E0688A
:1007300040F0010394E8070098471034AC42F6D328
:10074000FFF726FDD0890008F089000870B58C18E5
:1007500010F8015B15F0070301D110F8013B2A11D5
:1007600006D110F8012B03E010F8016B01F8016BC2
:100770005B1EF9D12B0705D40023521E0DD401F8BE
:10078000013BFAE710F8013BCB1A921C03E013F887
:10079000015B01F8015B521EF9D5A142D8D30020BC
:1007A00070BD000017E005F055FC05F0FFFB00F000
:1007B000C7FE0948407A022806D100200749088070
:1007C00002200749086003E000F03EFE06F0ACFBA3
:1007D000022007F009F8E6E720050020800200204B
:1007E0008802002070B50446002504E0615D0448DD
:1007F00005F00EF96D1C605D0028F7D170BD00009A
:100800000044004070B505460C4600260DB1022C90
:1008100000D870BDA11E06480288284602F044F8A0
:100820000646A01E2E54310A601E295400BFF0E770
:100830004800002070B505460C4600260DB1022C7C
:1008400000D870BD611EFF22284602F047F8064618
:10085000601E2E5400BFF4E700B546480088032808
:100860007ED14548008A00EE100AB8EE400A43489F
:1008700080ED000A4248008A00EE100AB8EE400AF5
:10088000404880ED000A404890ED010AB5EEC00AEC
:10089000F1EE10FA18D090ED010A3C4880ED000A04
:1008A0003B4890ED000AB0EE401A38493248394AC8
:1008B00092ED000AF8EEC00A374A92ED000AB8EE4F
:1008C000C00A02F0F5F818E0314890ED000A2F4810
:1008D00080ED000A2E4890ED000AB0EE401A2B4938
:1008E00025482C4A92ED000AF8EEC00A2A4A92EDF9
:1008F000000AB8EEC00A02F0DBF8234890ED000AC7
:10090000B5EEC00AF1EE10FA12D090ED000A2348BD
:1009100080ED000A224890ED000AF8EEC00A214856
:1009200090ED000AB8EEC00A1C4805F0D9FD12E0AF
:10093000174890ED010A194880ED000A184890ED1B
:10094000000AF8EEC00A174890ED000AB8EEC00A97
:10095000124805F0C5FD0D4890ED000A064800E07C
:1009600007E080ED070A0D4890ED000A044880ED8D
:10097000070A00BD80020020A405002044010020D9
:100980003C090020480100205C05002040010020B7
:1009900010130020600100205C0100203C010020B9
:1009A000680100206401002010B54FF40051024896
:1009B00001F073FF10BD00000008024010B54FF4B5
:1009C0000051024801F067FF10BD0000000802401E
:1009D00010B54FF40051024801F061FF10BD000056
:1009E0000008024000BFFEE700B587B002210A48B8
:1009F00000F072F970B10221074800F079F802AAFC
:100A00000021054800F08BFA0698009002A80FC854
:100A100000F0CAFB07B000BD0064004000B587B01D
:100A200010210A4800F058F970B11021074800F071
:100A30005FF802AA0121054800F071FA06980090BB
:100A400002A80FC800F020FC07B000BD0064004001
:100A500010B50121044800F03FF918B10121024806
:100A600000F046F810BD00000064004000B587B0FB
:100A700002210A4800F030F970B10221074800F065
:100A800037F802AA0021054800F049FA06980090BC
:100A900002A80FC800F09CFC07B000BD0068004031
:100AA00000B587B010210A4800F016F970B1102186
:100AB000074800F01DF802AA0121054800F02FFAAE
:100AC0000698009002A80FC800F086FC07B000BD91
:100AD0000068004010B50121044800F0FDF818B18D
:100AE0000121024800F004F810BD00000068004039
:100AF000B1F5007F3AD00FDC202928D006DC01298F
:100B00001CD004291DD0082940D11DE0402921D046
:100B1000B1F5807F3AD126E0B1F5004F31D006DC47
:100B2000B1F5806F25D0B1F5006F2FD124E0B1F57C
:100B3000803F12D0B1F5003F28D111E0154A826004
:100B400025E00822C26022E01022C2601FE00822D5
:100B500002611CE01022026119E00822426016E0E6
:100B60001022426013E00422426010E0042242603E
:100B70000DE0042242600AE0002282610422426009
:100B800005E0002282610422426000E000BF00BF55
:100B9000704700000101010010B504460B48844273
:100BA00009D10121480603F043F800214FF00070FD
:100BB00003F03EF808E00121880603F039F800212F
:100BC0004FF0806003F034F810BD00000064004076
:100BD00010B50021837A012202FA03F13D4A12681E
:100BE00042F001023B4B1A603A4A1C3212688A43B7
:100BF000384B1C331A60027BCAB9364A0C32126871
:100C00008A43344B0C331A604288C38842EA034358
:100C1000304A4032847A42F834300288838842EA8B
:100C200003432C4A4032847A02EBC4025360027BB5
:100C3000012A19D1274A0C3212680A43254B0C337A
:100C40001A604288038842EA0343224A4032847A87
:100C500042F83430C288838842EA03431D4A403256
:100C6000847A02EBC4025360C27A3AB9194A121D5F
:100C700012688A43174B1B1D1A6006E0154A121DA5
:100C800012680A43134B1B1D1A60028932B9114ABC
:100C9000143212688A430F4B14331A600289012AF6
:100CA00006D10C4A143212680A430A4B14331A60F4
:100CB000427B012A06D1074A1C3212680A43054BBF
:100CC0001C331A60034A126822F00102014B1A60B9
:100CD00010BD00000066004070B504460D460026B9
:100CE00060692840002871D0B5F5807F5CD010DCA9
:100CF000082D35D006DC012D20D0022D24D0042D66
:100D000072D127E0102D31D0202D35D0402D6BD160
:100D100038E0B5F5004F60D009DCB5F5007F49D06B
:100D2000B5F5806F4CD0B5F5006F5DD14FE0B5F5EE
:100D3000803F2DD0B5F5003F56D12FE0A0682D495A
:100D400000F0ACFD064651E0E068032100F0A6FD8E
:100D500006464BE0E068082100F0A0FD064645E0AD
:100D6000E068102100F09AFD06463FE0206903216B
:100D700000F094FD064639E02069082100F08EFD60
:100D8000064633E02069102100F088FD06462DE07C
:100D90006068082100F082FD064627E060681021A7
:100DA00000F07CFD064621E0A069012100F076FDFF
:100DB00006461BE0A069022100F070FD064615E022
:100DC000A069042100F06AFD06460FE00FE0A0696B
:100DD000702100F063FD064608E06068042100F021
:100DE0005DFD064602E0FFE7002600BF00E00026AA
:100DF000304670BD010101001AB143690B434361E4
:100E000002E043698B434361704730B502460020DE
:100E10000023146824F002041460146844F00104F0
:100E2000146000E05B1C546804F001041CB94FF628
:100E3000FF74A342F6D1546804F001040CB90020F9
:100E40006CE08C79012C04D1146844F080041460A7
:100E500003E0146824F080041460CC79012C04D1E0
:100E6000146844F04004146003E0146824F0400463
:100E700014600C7A012C04D1146844F0200414602E
:100E800003E0146824F0200414604C7A012C04D18F
:100E9000146844F01004146003E0146824F0100493
:100EA00014608C7A012C04D1146844F00804146096
:100EB00003E0146824F008041460CC7A012C04D1F7
:100EC000146844F00404146003E0146824F004047B
:100ED00014608C78A407CD7844EA05640D7944EA5F
:100EE00005444D7944EA05540D886D1E2C43D461A8
:100EF000146824F001041460002300E05B1C5468B3
:100F000004F001041CB14FF6FF74A342F6D15468FB
:100F100004F001040CB1002000E0012030BD10B548
:100F200000F5D87303EB01131B6803F0040313727D
:100F3000137A53B900F5D87303EB01131B6840F221
:100F4000FF7404EA5353136009E000F5D87303EB10
:100F500001131B686FF0604404EAD303536000F58B
:100F6000D87303EB01131B6803F00203537200F5FF
:100F7000D87303EB01135B6803F00F03937200F562
:100F8000D87303EB01135B681B0AD37400F5D873A5
:100F900003EB01139B68D37200F5D87303EB0113C5
:100FA0009B681C0A147300F5D87303EB01139B684C
:100FB0001C0C547300F5D87303EB01139B681B0ED4
:100FC000937300F5D87303EB0113DB68D37300F55B
:100FD000D87303EB0113DB681C0A147400F5D87393
:100FE00003EB0113DB681C0C547400F5D87303EB9E
:100FF0000113DB681B0E937421B9C36843F020030F
:10100000C36003E0036943F02003036110BD0021C6
:101010008171C171017241728172C1728170C1703E
:10102000032101710221417101210180704710B536
:1010300002460020936803F08063B3F1806F00D113
:1010400010E0936803F00063B3F1006F01D1012059
:1010500008E0936803F08053B3F1805F01D1022070
:1010600000E00420042874D002F5C07303EB0013E1
:101070001B6803F0010402F5C07303EB00131C604E
:101080000B7A7BB94B7A0C8843EA445302F5C0745F
:1010900004EB00142468234302F5C07404EB00142D
:1010A000236010E00B7A4C6843EAC4034C7A234374
:1010B00002F5C07404EB00142468234302F5C074E5
:1010C00004EB001423608B7A03F00F038B7202F59C
:1010D000C07303EB00135B6823F00F0402F5C073C9
:1010E00003EB00135C6002F5C07303EB00135B6855
:1010F0008C7A234302F5C07404EB001463608B7B8D
:101100001C064B7B44EA03440B7B44EA0323CC7A62
:10111000234302F5C07404EB0014A3608B7C1C060F
:101120004B7C44EA03440B7C44EA0323CC7B2343FB
:1011300002F5C07404EB0014E36002F5C07303EB26
:1011400000131B6843F0010402F5C07303EB0013A6
:101150001C6010BD0EB500201149086011480B46F7
:101160000ECB0EC00121084602F052FD01210846B7
:1011700000F0A8FB4FF0FF3001905320ADF80000C5
:101180000020ADF80200ADF8080069464FF080403D
:1011900004F0AEF90121880704F0D8F80EBD000074
:1011A00028030020A44000200FB410B50298A0F23C
:1011B000062010B101285ED12EE09DF814009DF8A4
:1011C000131040EA01202E4908829DF816109DF860
:1011D000150041EA002000B2294908839DF8181043
:1011E0009DF8170041EA002000B2254948830846CF
:1011F000008A00EE900AF8EE600AB0EE600A01F58F
:10120000497001F07DFB1E4880ED050A07F032F9B8
:101210001B49C1F890032EE09DF814009DF81310AF
:1012200040EA0120174908829DF816109DF8150024
:1012300041EA002000B2134908839DF818109DF878
:10124000170041EA002000B20E4948830846008A90
:1012500000EE900AF8EE600AB0EE600A01F54970FF
:1012600001F04EFB074880ED050A07F003F9054938
:10127000C1F8900300BF00BF10BC5DF814FB000074
:101280003C090020A40500200FB410B50298A0F27C
:10129000012020B1012831D002282ED15DE09DF837
:1012A00014009DF8131040EA0120464908829DF879
:1012B00016109DF8150041EA002000B2414908834C
:1012C0009DF818109DF8170041EA002000B23D4932
:1012D00048830846008A00EE900AF8EE600AB0EEF5
:1012E000600A01F5FA7001F00BFB364880ED050A43
:1012F00007F0C0F83349C1F80C025FE09DF8140014
:101300009DF8131040EA01202F4908829DF816101D
:101310009DF8150041EA002000B22B4908839DF892
:1013200018109DF8170041EA002000B226494883B2
:101330000846008A00EE900AF8EE600AB0EE600AF5
:1013400001F5FA7001F0DCFA1F4880ED050A07F09C
:1013500091F81D49C1F80C0230E09DF814009DF889
:10136000131040EA01211848A0F824129DF8161025
:101370009DF8150041EA002001B21348A0F82C1294
:101380009DF818109DF8170041EA002001B20E48A0
:10139000A0F82E12B0F8240200EE900AF8EE600ACF
:1013A000B0EE600A094801F0ABFA074880ED8A0AFE
:1013B00007F060F80449C1F8200400BF00BF10BC6A
:1013C0005DF814FBD40C0020E80E0020F012002081
:1013D00000BF00BF704700000FB410B50298B0F511
:1013E000807F03D0A0F2011038BB0CE01548DDF877
:1013F000131041600146DDF81700C86007F03AF8A5
:101400001049886119E00F48DDF8131001600146AA
:10141000DDF817008860084690ED020AB1EE400A38
:1014200080ED020A90ED000AB1EE400A80ED000A5C
:1014300007F020F80349886100BF00BF10BC5DF8C9
:1014400014FB0000101300203748008E012811D132
:101450003648008870B936480088022803D1032036
:101460003349088006E032480088032802D1022070
:101470002F4908802C48008E00B22C4908802A4849
:10148000007A022806D12848407A022802D001209A
:10149000274908802448007A032806D12248407A48
:1014A000022802D00320224908801F48407A0228DF
:1014B00002D100201E4908801B48007A01280AD169
:1014C0001C480068012806D01748407A022802D03C
:1014D0000220174908801448007A16490860144809
:1014E0000088012803D012480088022809D10E483C
:1014F000407A032805D101200F49086000200F49D8
:1015000008600B480088012803D009480088022899
:1015100009D10548407A012805D100200649086014
:101520000120064908607047200500207C02002049
:101530008002002084020020540100205801002075
:1015400010B53E48008801282BD13D48006801288D
:1015500011D13C4890ED000ADFED3B0A30EE200A45
:1015600080ED000A394890ED000ADFED390A30EECF
:10157000200A80ED000A37480068012811D136485A
:1015800090ED000ADFED300A30EE200A80ED000A0F
:10159000324890ED000ADFED2E0A30EE200A80ED91
:1015A000000A2F48008801282BD12548006801280F
:1015B00011D1244890ED000ADFED230A30EE600AD5
:1015C00080ED000A214890ED000ADFED210A30EE9F
:1015D000600A80ED000A1F480068012811D11E48EA
:1015E00090ED000ADFED180A30EE600A80ED000A87
:1015F0001A4890ED000ADFED160A30EE600A80ED21
:10160000000ADFED180AB7EE080A0E4804F068FF7A
:10161000DFED140AB7EE000A0C4804F061FFDFEDBD
:10162000110AB7EE000A0C4804F05AFFDFED0D0A6C
:10163000B7EE000A094804F053FF10BDA0020020D5
:101640005401002094010020CDCC4C3D9801002095
:101650000AD7233C580100209C010020A001002053
:10166000A2020020000000002DE9F0470446DDE959
:10167000097CDDE90B58089E2A48B8F80090A0F8CC
:10168000009098F8029080F80290B0F8030064F39C
:101690008910DFF89090A9F803004846C07861F3FC
:1016A000020089F803004846C07820F0380038303E
:1016B00089F803004846007965F3850089F804003D
:1016C0004846008962F38C00A9F808004846B0F843
:1016D000090063F34F10A9F809004846808866F3B3
:1016E0008E10A9F804004846B0F8050067F3CF1043
:1016F000A9F805004846B0F807006CF30900A9F8FE
:1017000007000F2009E04FF00009DFF81CA00AF8DD
:10171000009000F1010909F0FF002D28F3DB0148DA
:10172000BDE8F08739150020D01400202DE9F04FD6
:1017300087B00D4616461F4611AC94E8100EDDF832
:1017400040803B46324629460020CDE903ABCDE937
:101750000149CDF80080FFF787FF06900F220F4860
:101760000699FEF789FD1E210C480F30FEF79DFDFE
:1017700022460A480F301599FEF77EFD2D20009075
:101780000748007800F5807205480178034B4FF454
:10179000887002F087FD07B0BDE8F08FD0140020FC
:1017A0007005002000B591B02EA103C9CDE90F014D
:1017B0000FA82E4903220223CDE90232CDE90410FD
:1017C000082014214FF422735202CDE900100121A8
:1017D0000020FFF7ABFF26A207CA0CAB07C30CA87B
:1017E000264903220223CDE90232CDE90410092063
:1017F000142140F252235202CDE9001001210020B1
:10180000FFF794FF1EA207CA09AB07C309A81F4927
:1018100003220223CDE90232CDE904100B2014216A
:101820004FF407735202CDE9001001210020FFF7A9
:101830007DFF17A103C9CDE9070107A816490322B7
:101840000223CDE90232CDE90410062014214FF421
:10185000F3730202CDE9001001210020FFF766FFBB
:1018600011B000BD5049544348203A004D020020B9
:1018700047696D62616C203A00000000510200204F
:101880004672696374696F6E203A00005502002049
:10189000594157203A00000059020020024600201A
:1018A00002EA01030BB1012000E0002070470000B4
:1018B00010B50021024A1160516006F0F1F810BD28
:1018C000F802002029B1064A52680243044B5A60CC
:1018D00004E0034A52688243014B5A60704700009B
:1018E000002004E010B50A490A4800F01DFA70B162
:1018F0000948FEF777FF0949064800F003F9074950
:10190000044800F019F90021024800F02FF910BD39
:1019100020800010106002403404002020000010DD
:1019200070B52149214800F0FFF900283AD020483D
:1019300020490A6802604A684260097A01720024FC
:101940001BE01B480938005D212814D1002507E061
:10195000281917490939085C17494855681C05B208
:10196000092DF5DB0921144804F078F810B112486C
:1019700001F0E8FD03E0601C04B2092CE1DB00BFCC
:101980004FF08151094800F0BDF80749074800F0C1
:10199000D3F80748093806490A6802604A68426075
:1019A000097A017270BD0000008020104060024082
:1019B0000405002060030020F204002010B50B494C
:1019C0000B4800F08FF901280FD10021084800F0E2
:1019D000CDF80A21064800F023FA0649044800F031
:1019E00091F80249024800F0A7F810BD20800020BD
:1019F000706002402000002010B50A490A4800F03B
:101A000093F970B109490848A83800F07BF84FF005
:101A10002051054800F090F800210348A83800F054
:101A2000A5F810BD00800028B8600240200000101A
:101A300010B51749174800F055F9012826D10022A2
:101A40000102154803F09DFC00221021114800F00E
:101A50009DF900210F4800F089F800210E4803F09D
:101A600045FD00210C4803F03FFD01210A4803F029
:101A70006DFC0121084803F063FC01221146064871
:101A800003F099FC0249034800F056F810BD00002D
:101A900000880010286402400008004010B5074983
:101AA000074800F01FF9012807D14FF08151044881
:101AB00000F028F8034801F043F910BD0080201021
:101AC000406402400704002010B50B490B4800F0A9
:101AD0002BF978B14FF02051084800F013F806496F
:101AE000064800F029F80021044800F03FF80020E3
:101AF0000349087010BD000000800028B86402404F
:101B0000F40100200246094B9A4201D2084801E044
:101B10000648103801F000531BB1064B0B40C36060
:101B200002E0044B0B4083607047000010640240E9
:101B3000006002407D0F7D0F0246094B9A4201D2A0
:101B4000084801E00648103801F000531BB1064B6D
:101B50000B40C36002E0044B0B4083607047000001
:101B600010640240006002407D0F7D0F21B10268C9
:101B700042F00102026003E0026822F0010202600A
:101B800070470000016821F001010160002101603F
:101B900041608160C1600161212141614A498842FF
:101BA00004D13D21484A103A91608CE046491831F1
:101BB000884205D14FF47461434A103A916082E043
:101BC00041493031884205D14FF474113E4A103AF0
:101BD000916078E03C494831884205D14FF074610A
:101BE000394A103A91606EE037496031884204D139
:101BF0003649354A103AD16065E033497831884238
:101C000004D13349304A103AD1605CE02E4990311A
:101C1000884204D12F492C4A103AD16053E02A4916
:101C2000A831884205D14FF03D51274A103AD16082
:101C300049E02949884204D13D21274A083A1160E8
:101C400041E025491831884205D14FF47461224A98
:101C5000083A116037E020493031884205D14FF40D
:101C600074111D4A083A11602DE01B494831884221
:101C700005D14FF07461184A083A116023E0164903
:101C80006031884204D11149134A121F11601AE0D1
:101C900011497831884204D10D490F4A121F116051
:101CA00011E00D499031884204D10A490A4A121FB5
:101CB000116008E00849A831884204D14FF03D5135
:101CC000054A121F11607047106002403D0000205D
:101CD000400F002000003D2010640240014648688B
:101CE00080B2704730B503460A46002000240B4DF1
:101CF000AB4201D20A4901E00849103902F000550F
:101D00000DB14C6800E00C68064D2C4004EA020559
:101D10000DB1012000E0002030BD00001064024041
:101D2000006002407D0F7D0F70B502460020002448
:101D30000025124EB24201D2114B01E00F4B103B75
:101D4000104E0E4036B11E2606EAD124166806EA69
:101D5000040502E0566906F0800501F000560EB158
:101D60005C6800E01C68084E344004EA010616B1C5
:101D70000DB1012000E0002070BD000010640240A1
:101D8000006002403C0F3C0F7D0F7D0F10B501F04D
:101D900080034BB122B1436943F08003436103E008
:101DA000436923F08003436180290BD02AB1036883
:101DB00001F01E042343036004E0036801F01E04E5
:101DC000A343036010BD000010B500220268134B4E
:101DD0001A40CC680B6823434C6923438C69234326
:101DE000CC6923430C6A23434C6A23438C6A234304
:101DF0004C6B23438C6B23431A430260426922F0ED
:101E00000702D1E90B3423431A4342610B69436053
:101E10004B6883608B68C36010BD00003F801CF07E
:101E200041607047704700009FED390A394880EDE6
:101E3000CF0A9FED370A80EDD00A9FED350A80ED7D
:101E4000D10A9FED330A80EDD20A9FED310A80ED71
:101E5000D30A9FED2F0A80EDD40A9FED2F0A80ED63
:101E6000D60A9FED2B0A80EDD70A9FED290A80ED57
:101E7000D80A9FED270A80EDD90A9FED250A80ED4B
:101E8000DA0A9FED230A80EDDB0A9FED210A80ED3F
:101E9000DC0A9FED1F0A80EDDE0A9FED1D0A1F4838
:101EA00080EDCF0A9FED1A0A80EDD00A9FED180A47
:101EB00080EDD10A9FED160A80EDD20A9FED140A3B
:101EC00080EDD30A9FED120A80EDD40A9FED120A2D
:101ED00080EDD60A9FED0E0A80EDD70A9FED0C0A21
:101EE00080EDD80A9FED0A0A80EDD90A9FED080A15
:101EF00080EDDA0A9FED060A80EDDB0A9FED040A09
:101F000080EDDC0A9FED020A80EDDE0A70470000DA
:101F100000000000A4050020000048423C09002009
:101F2000F0EE400A90ED030A30EEC00A90ED041A7C
:101F300030EE410A80ED050A90ED030A30EEC00A4A
:101F400080ED040AC0ED030A90ED030A90ED001A3B
:101F500020EE010A90ED041AD0ED011A01EE210ADB
:101F600090ED051AD0ED021A01EE210A80ED060A65
:101F700090ED060A90ED071AB1EE411AB4EEC10ACF
:101F8000F1EE10FA04D890ED070AB1EE400A70475E
:101F900090ED060A90ED071AB4EEC10AF1EE10FAC0
:101FA00002DB90ED070AF2E790ED060AEFE700008A
:101FB0002DE9F0430446DDE9087CDDE90A58079E77
:101FC000DFED3A0A60EE200AFDEEE00A3848C0ED87
:101FD000000A3848B8F80090A0F8009098F80290ED
:101FE00080F80290B0F8030064F38910DFF8C49021
:101FF000A9F803004846C07861F3020089F803009D
:102000004846C07820F03800283089F80300484658
:10201000B0F807006CF30900A9F8070048460079FA
:1020200065F3850089F804004846008962F38C0056
:10203000A9F808004846B0F8090063F34F10A9F862
:1020400009004846808866F38E10A9F804004846C7
:10205000B0F8050067F3CF10A9F805001448008810
:10206000B9F80B9060F309091248A0F80B901048DA
:1020700000684FEA90290F48808969F38C00DFF8E7
:102080003490A9F80C000A48006840F2FF7909EA88
:1020900060590848B0F80D0069F34F10DFF814904C
:1020A000A9F80D004846BDE8F083000000007A441E
:1020B000180200204815002030B587B004460D46B0
:1020C00018480068012815D1174818490122022331
:1020D000CDE90232CDE90410032014214FF4077337
:1020E0004FF4D862CDE90010114801780020FFF7C5
:1020F0001DFB14E00F480D4901220223CDE90232F5
:10210000CDE90410042014214FF407734FF4D86272
:10211000CDE90010064801780020FFF707FB07B063
:1021200030BD0000C0010020460200204202002015
:10213000F50100204902002070B52DED0E8B0446FC
:102140000D461646B0EE408AF0EE608AB0EE419A37
:10215000F0EE619AB0EE42AAF0EE62AAB0EE43BA97
:10216000F0EE63BAB0EE44CAF0EE64CAB0EE45DAFF
:10217000F0EE65DAB0EE46EAF0EE66EA1548206762
:1021800015486067F0EE6E6AB0EE4E6AF0EE6D5A7A
:10219000B0EE4D5AF0EE6C4AB0EE4C4AF0EE6B3AAF
:1021A000B0EE4B3AF0EE6A2AB0EE4A2AF0EE691A27
:1021B000B0EE491AF0EE680AB0EE480A32462946F7
:1021C0002046236F98472046616F8847BDEC0E8BF1
:1021D00070BD0000DD2100083122000807EE102A42
:1021E000B8EE477A80ED067A07EE101AB8EE477A15
:1021F00080ED0B7A80ED120AC0ED130A80ED141AFF
:10220000C0ED151A80ED162AC0ED172A80ED0E3AA2
:10221000C0ED0F3A80ED185AC0ED195A80ED1A6AD8
:10222000C0ED1B6AC0ED114A80ED104A70470000F6
:102230009FED100A80ED150A9FED0E0A80ED160A3B
:102240009FED0C0A80ED170A9FED0A0A80ED070A40
:102250009FED080A80ED080A9FED060A80ED090A45
:102260009FED040A80ED0C0A9FED020A80ED0D0A35
:10227000704700000000000000B585B000208DF818
:1022800008008DF8090008208DF80A0040F2FF10C0
:1022900000902248B0F90E002149884201DC08462E
:1022A0000BE01E48B0F90E0047F23051884201DBC6
:1022B000084602E01948B0F90E001849C8811948CB
:1022C000B0F90E001649884201DC08460BE01548BB
:1022D000B0F90E0047F23051884201DB084602E0B7
:1022E0001048B0F90E000F49C8810846C089010A9C
:1022F0008DF80D100B48817B8DF80E100748C089B2
:10230000010A8DF80F100548817B8DF81010694681
:102310000548FEF78CFE05B000BD0000A4050020B6
:10232000D08AFFFF3C0900200064004010B52DED6D
:10233000028BFE480088012803D0FC480088022850
:102340007BD1FB480068012878D1FA48037BB0F9BB
:102350001A0000EE900AF8EEE00AF0EE602AF54866
:10236000D0ED050AB0EE602AB0F9180000EE900A30
:10237000F8EEE00AF0EE601AEE48D0ED070AB0EE93
:10238000601AD0EDDF0AB0EE600ADFEDEB0A00F173
:10239000B80200F5107100F5FA7004F0C5F8FFEE10
:1023A000000A20EE200AF0EE408ABDEEE80A10EEA8
:1023B000100A00B2DF49C8819FEDE00AF4EEC08A3E
:1023C000F1EE10FA02D89FEDDD0A0BE09FEDDC0A7A
:1023D000F4EEC08AF1EE10FA02DB9FEDD90A01E0BB
:1023E000B0EE680ABDEEC00A10EE100A00B2D14984
:1023F000C8810020D3490860D348037BB0F91A0094
:1024000000EE900AF8EEE00AF0EE602ACE48D0ED39
:10241000050AB0EE602AB0F9180000EE900AF8EE56
:10242000E00AF0EE601AC848D0ED070AB0EE601A74
:10243000D0EDDF0AB0EE600A01E0BDE039E0DFED8B
:10244000BE0A00F1B80200F5107100F5FA7004F050
:102450006BF8BC48D0ED000AF8EEE00ABFEE001AB7
:10246000B0EE608A01EE008ABDEEC80A10EE100AD6
:1024700000B2B549C8819FEDB10AB4EEC08AF1EE51
:1024800010FA02D89FEDAD0A0BE09FEDAD0AB4EE55
:10249000C08AF1EE10FA02DB9FEDA90A01E0B0EE6E
:1024A000480ABDEEC00A10EE100A00B2A649C88163
:1024B00000BFA648006801287ED19E48B0F91A00E6
:1024C00000EE900AF8EEE00AF0EE602A9948D0EDAE
:1024D000050AB0EE602AB0F9180000EE900AF8EE96
:1024E000E00AF0EE601A9348D0ED070AB0EE601AE9
:1024F000D0EDDF0AB0EE600A0323DFED8F0A00F1B2
:10250000B80200F5367100F5237004F00DF8FFEE07
:10251000000A20EE200AF0EE408ABDEEE80A10EE36
:10252000100A00B28349C8819FED840AF4EEC08A84
:10253000F1EE10FA02D89FED810A0BE09FED800AC0
:10254000F4EEC08AF1EE10FA02DB9FED7D0A01E0A5
:10255000B0EE680ABDEEC00A10EE100A00B275496E
:10256000C8817948B0F91A0000EE900AF8EEE00A46
:10257000F0EE602A7448D0ED050AB0EE602AB0F99A
:10258000180000EE900AF8EEE00AF0EE601A6E48CD
:10259000D0ED070AB0EE601AD0EDDF0AB0EE600AA7
:1025A0000323DFED650A00F1B80200F5367100F58E
:1025B000237003F0B9FF00E028E0FFEE000A20EEF0
:1025C000208ABDEEC80A10EE100A00B25E49C8812A
:1025D0009FED5A0AB4EEC08AF1EE10FA02D89FEDD0
:1025E000570A0BE09FED560AB4EEC08AF1EE10FADE
:1025F00002DB9FED530A01E0B0EE480ABDEEC00ACF
:1026000010EE100A00B25049C88100BF4748008848
:1026100003287CD14748037BB0F91A0000EE900AEA
:10262000F8EEE00AF0EE602A4248D0ED050AB0EE7E
:10263000602AB0F9180000EE900AF8EEE00AF0EE19
:10264000601A3C48D0ED070AB0EE601AD0EDDF0A00
:10265000B0EE600ADFED380A00F1B80200F5107143
:1026600000F5FA7003F060FFFFEE000A20EE200A8A
:10267000F0EE408ABDEEE80A10EE100A00B22D49D5
:10268000C8819FED2E0AF4EEC08AF1EE10FA02D84E
:102690009FED2A0A0BE09FED2A0AF4EEC08AF1EEC4
:1026A00010FA02DB9FED260A01E0B0EE680ABDEEEB
:1026B000C00A10EE100A00B21E49C8812248037BEE
:1026C000B0F91A0000EE900AF8EEE00AF0EE602A87
:1026D0001D48D0ED050AB0EE602AB0F9180000EEF2
:1026E000900AF8EEE00AF0EE601A1748D0ED070AFB
:1026F000B0EE601AD0EDDF0AB0EE600ADFED0E0A30
:1027000000F1B80200F5107100F5FA7000E044E045
:1027100003F00AFF0B48D0ED000AF8EEE00ABFEE26
:10272000001AB0EE608A01EE008A11E080020020FB
:1027300054010020A4050020000000000060EAC64B
:102740000060EA46380100203C09002058010020C2
:10275000BDEEC80A10EE100A00B21649C8811FED7E
:10276000090AB4EEC08AF1EE10FA02D81FED0D0A84
:102770000BE01FED0D0AB4EEC08AF1EE10FA02DB99
:102780001FED110A01E0B0EE480ABDEEC00A10EEDE
:10279000100A00B20749C88100BF0748008820B965
:1027A00000200649C8810349C881FFF765FDBDECDB
:1027B000028B10BD3C09002080020020A4050020EF
:1027C000F0B50A4600210023002400BF3DE00125AA
:1027D00005FA01F3156805EA03049C4234D1056843
:1027E0004F000326BE40B543056015794E00B54045
:1027F0000668354305601579012D02D01579022D43
:1028000016D185684F000326BE40B54385605579D3
:102810004E00B540866835438560456801268E4088
:10282000B5434560456896798E40B6B235434560FC
:10283000C5684F000326BE40B543C560D5794E003C
:10284000B540C6683543C560491C1029BFD3F0BDEB
:10285000F0B5002300244D07ED0E02FA05F3CE106B
:1028600000F1200555F826504E07F70E0F26BE4002
:10287000B543CF1000F1200646F82750CE1000F1E6
:10288000200555F8265045EA0304CE1000F1200536
:1028900045F82640F0BD4183704701837047426987
:1028A0004A4042617047000030B5034613B94FF605
:1028B000FF7030BD09E013F8014B82EA0400C0B29A
:1028C000054D35F8100080EA2222081EA1F1010111
:1028D000F1D11046EDE70000CC86000830B5034684
:1028E00005E013F8010B80EA02040448025D081EAB
:1028F000A1F10101F5D1104630BD0000CD880008DE
:1029000000B50146B0EE402AB0EE420A084603F098
:102910000DF900BD30B587B004460D46ACB92F485F
:102920002F4901220223CDE90232CDE9041005200E
:10293000142140F252234FF4D862CDE90010294807
:1029400001780020FEF7F2FE46E0012C15D1264862
:10295000234901220223CDE90232CDE904100A20E5
:10296000142140F252234FF4D862CDE900101D48E3
:1029700001780020FEF7DAFE2EE0022C15D11B486C
:10298000174901220223CDE90232CDE904100320C8
:10299000142140F252234FF4D862CDE900101148BF
:1029A00001780020FEF7C2FE16E0032C14D1104877
:1029B0000B4901220223CDE90232CDE9041008209F
:1029C000142140F252234FF4D862CDE9001005489B
:1029D00001780020FEF7AAFE07B030BD28020020D3
:1029E00024020020F50100202D02002037020020E3
:1029F0003A02002002F0DCFE48E02548007808B9E1
:102A0000022000E00120234908702348408B012860
:102A100004D11F4800780A301D4908701C4800780E
:102A2000002806DDFEF7BEFE19480078401E184952
:102A3000087002F0BDFD01F021FD184991ED000A7A
:102A4000BDEEC00A10EE101A08B21149097803F061
:102A500021F8124991ED010ABDEEC00A10EE101ADC
:102A600008B20B49097801F055F80D490878084972
:102A70000978FFF74FFF0B49087805490978FFF7F8
:102A80001BFB09480068401C07490860B5E70000C7
:102A9000F6010020F5010020200500201013002081
:102AA00080020020C00100200802002000BFFEE7D5
:102AB00000B5B0EE402AF0EE602A0246F0EE411A70
:102AC00092ED050A32EE400ADFED1F0A80EE201A71
:102AD0009FED1E0A21EE000A1D4880ED000A92EDCE
:102AE000050A32EEC00ADFED180A80EE201A9FEDCB
:102AF000170A21EE000A174880ED000A144890EDED
:102B0000001A31EE811AF0EE410A124890ED001AD7
:102B100031EE811AB0EE410A084603F0E1FC0D489F
:102B200090ED000A31EE800ABDEEC00A0A4880ED41
:102B3000000A074890ED000A31EE800ABDEEC00A97
:102B4000064880ED000A00BD000000460000B443C6
:102B50004C01002050010020A4010020A801002009
:102B600070B505460C4645F2555000F02BF8284646
:102B700000F01CF8204600F01FF800F00FF800F0FD
:102B800001F870BD4CF6CC40014908607047000068
:102B90000030004010B500F001F810BD4AF6AA2040
:102BA000014908607047000000300040014948605A
:102BB0007047000000300040014988607047000005
:102BC00000300040014908607047000000300040BC
:102BD00003F04CF800F0D6FF05F04CFC47490860C4
:102BE00005F048FC45490968401AB0F5FA6F5CD217
:102BF0004348006801281DD14248008A00EE100AAF
:102C0000B8EE400A404880ED000A4048008A00EED5
:102C1000100AB8EE400A3E4880ED000A3A4890EDAE
:102C2000000A384880ED070A394890ED000A374815
:102C300080ED070A37480068012836D1364890ED04
:102C4000010A364880ED000A334890ED010A344805
:102C500080ED000A304890ED000A324880ED000A0D
:102C60002D4890ED010A304880ED000A2A4890ED89
:102C7000000AB0EE401A2B4922482C4A92ED000A75
:102C8000F8EEC00A2A4A92ED000AB8EEC00AFFF731
:102C90000FFF244890ED000A1A4880ED070A2248E9
:102CA00090ED000A194880ED070A00BF9FED210A48
:102CB000144880EDCA0A9FED1F0A144880EDCA0A25
:102CC0001D48007800F0550048B91C48008830B114
:102CD00000F0F4FCFDF7C0FD01F03EF801E000F06B
:102CE00017FA04F0BDFCFFF721FB04F0E3FC00F051
:102CF00067FC0A2004F078FDD8E7000030010020CE
:102D000058010020A4050020440100203C090020B7
:102D1000480100205401002010130020D40100209D
:102D2000D8010020400100203C010020600100206B
:102D30005C010020000000001C0100208002002037
:102D40002DE9F0410746002400252D223946BC48D4
:102D5000FDF792FA00BF68E1B9482D38005DA5285B
:102D60007ED1B7492D390819052102F077FE0128D7
:102D7000F6D1B3492D39A01D0E5C601D085C40EAF8
:102D80000626A01C0D5C601C085C40EA052540F28C
:102D9000012086420BD1081905F1090102F03EFE1F
:102DA00028B1A7492D39E01D085CA649087040F2FA
:102DB000032086427ED1A2492D39081905F1090167
:102DC00002F02CFE002875D09D492D3904F10A002F
:102DD000085C9D4908609A492D3904F10900085C96
:102DE0009949096840EA01209749086094492D39BA
:102DF00004F10800085C9449096840EA01209249FE
:102E000008608F492D39E01D085C8F49096840EA48
:102E100001208D4908608A492D3904F10E00085CB3
:102E20008A49086086492D3904F10D00085C8749FC
:102E3000096840EA01208549086081492D3904F17B
:102E40000C00085C8149096840EA01207F4908605C
:102E50007B492D3904F10B00085C7C49096800E0CE
:102E6000E1E040EA01207949086075492D3904F113
:102E70001200085C7649086071492D3904F111008F
:102E8000085C7349096840EA0120714908606C498F
:102E90002D3904F11000085C6D49096840EA0120F1
:102EA0006B49086066492D3904F10F00085C6849D8
:102EB000096800E043E040EA012065490860604994
:102EC0002D3904F11600085C624908605C492D390F
:102ED00004F11500085C5F49096840EA01205D497A
:102EE000086057492D3904F11400085C59490968F4
:102EF00040EA01205749086051492D3904F1130077
:102F0000085C5449096840EA0120524908604E486B
:102F100090ED000A4B4880ED010A4C4890ED000A04
:102F2000484880ED020A4A4890ED000A454880ED85
:102F3000030A084690ED000A424880ED040A40F278
:102F4000052086420DD13E492D39081905F10901A8
:102F500002F064FD28B13A492D39E01D085C394979
:102F6000887540F20720864240D135492D3908192D
:102F700005F1090102F052FDC0B331492D39E01DC0
:102F8000085C012832D104F10900085C2D4908765B
:102F90002B492D3904F10C00085C2F4908602849A1
:102FA0002D3904F10C00085C2B49096840EA012026
:102FB0002949086022492D3904F10B00085C264993
:102FC000096840EA0120244908601D492D3904F1AF
:102FD0000A00085C2049096840EA01201E4908608F
:102FE000084690ED000A174880ED070AB6F5027F03
:102FF00019D113492D39081905F1090102F00EFD07
:1030000088B10F492D3904F10800085C0D49088486
:103010000B492D39E01D085C0A4991F8201040EA5F
:10302000012008490884601C04B22D2CFFF694AEE0
:103030002D220349A1F12D00FDF71EF9BDE8F08115
:103040005D13002070050020E0000020E400002057
:10305000E8000020EC000020F000002000BF05F098
:1030600009FA00BF642004F0BFFBFBE72DE9F04341
:103070000446DDE9087CDDE90A58079E2348B8F8D4
:103080000090A0F8009098F8029080F80290B0F8B4
:10309000030064F38910DFF87490A9F80300484630
:1030A000C07861F3020089F803004846C07820F038
:1030B000380089F803004846B0F807006CF30900AF
:1030C000A9F807004846007965F3850089F80400EF
:1030D0004846008962F38C00A9F808004846B0F819
:1030E000090063F34F10A9F809004846808966F388
:1030F0008C00A9F80C004846B0F80D0067F34F109B
:10310000A9F80D004846BDE8F083000057150020DF
:1031100000B53348006801281ED1324890ED050AF9
:10312000314880ED000A314890ED050A304880EDC5
:10313000000A2D4890ED000A2A4880ED070A2C4825
:1031400090ED000A294880ED070A4FF48060294974
:10315000088048808880C8802748006801283DD1C1
:10316000264890ED010A264880ED000A234890ED9C
:10317000010A244880ED000A204890ED010A224807
:1031800080ED000A1D4890ED000A204880ED000AFD
:103190001A4890ED000AB0EE401A1C4911481C4A2A
:1031A00092ED000AF8EEC00A1A4A92ED000AB8EE53
:1031B000C00AFFF77DFC154890ED000A094880ED34
:1031C000070A114890ED000A084880ED070A4FF4FD
:1031D00080600849088048808880C88000BD000061
:1031E00058010020A4050020440100203C090020D3
:1031F0004801002020050020540100201013002069
:10320000D4010020D80100203C0100204001002012
:10321000600100205C01002000B585B000208DF821
:1032200008008DF8090008208DF80A008001009040
:103230003248B0F90E003249884201DC08460BE002
:103240002E48B0F90E0042F21071884201DB0846A8
:1032500002E02A48B0F90E002849C8812948B0F98F
:103260000E0010F5804F01DC27480BE02548B0F92F
:103270000E00B0F5804F02DB4FF4804002E02148A1
:10328000B0F90E001F49C8810846B0F9220210F5B6
:10329000804F01DC1C480BE01A48B0F92202B0F55F
:1032A000804F02DB4FF4804002E01648B0F9220262
:1032B0001449A1F822021148C089000A8DF80B00B8
:1032C0000E48817B8DF80C100E48C089010A8DF8DC
:1032D0000D100C48817B8DF80E10B0F82202010A07
:1032E0008DF80F10074890F822128DF810106946DB
:1032F0000648FDF79CFE05B000BD0000D40C002080
:10330000F0D8FFFFE80E002000C0FFFF006400407F
:1033100010B54C48037BB0F91A0000EE100AB8EE65
:10332000C00AF0EE402A474890ED050AB0EE402A68
:10333000B0F9180000EE100AB8EEC00AF0EE401A1C
:10334000404890ED070AB0EE401ADFED3F0A9FEDCE
:103350003E0A00F1B80200F16C01203003F0E4F8FD
:10336000BDEEC00A10EE100A00B23649C8813748D7
:10337000037BB0F91A0000EE100AB8EEC00AF0EEB6
:10338000402A324890ED050AB0EE402AB0F9180004
:1033900000EE100AB8EEC00AF0EE401A2B4890ED8D
:1033A000070AB0EE401ADFED280A9FED270A00F168
:1033B000B80200F16C01203003F0B6F8BDEEC00A8F
:1033C00010EE100A00B22149C881084690F8203258
:1033D000B0F92E0200EE100AB8EEC00AF0EE402A54
:1033E000084690ED8A0AB0EE402AB0F92C0200EEB1
:1033F000100AB8EEC00AF0EE401A084690ED8C0AAA
:10340000B0EE401ADFED100A9FED0F0A00F533729F
:1034100000F5207100F50D7003F086F8BDEEC00ACE
:1034200010EE100A01B20948A0F82212B0F92C02DD
:10343000074908600548B0F9180006490860FFF719
:10344000EBFE10BDD40C002000000000E80E0020B0
:103450004C0000205000002000BFFEE77047000035
:1034600070B5002100230F22C4781CB3174C2468C8
:1034700004F4E064C4F5E064C4F30721C1F104047A
:10348000E3B20A4144789C40E1B28478144021437D
:103490000C07210E0E4C05786155047804F01F05C9
:1034A0000124AC4005786D11AD0005F1E025C5F8AB
:1034B000004109E0047804F01F050124AC40054DEB
:1034C0000678761145F8264070BD00000CED00E04E
:1034D00000E400E080E100E01FB50121202000F0C1
:1034E00097FB01212020FEF7EDF9312002905320B7
:1034F000ADF804000020ADF80600ADF80C0001A9FD
:103500000F4801F0F5FF01210D4801F019FF0122DC
:1035100011460B4801F04FFF37208DF800000120C5
:103520008DF8010000208DF8020001208DF80300C5
:103530006846FFF795FF0121014801F007FF1FBD15
:103540000014004010B50446207821282FD160785F
:1035500005282CD1E078A17840EA012000B200EEE5
:10356000100AB8EEC00ADFED140A80EE201A1348E4
:1035700080ED001A20790006617940EA0140A179C6
:1035800040EA0120E179084300EE100AB8EEC00AD3
:10359000DFED090A80EE201A084880ED011A04F0D8
:1035A00069FF064908610846C068401CC8600020E1
:1035B0000249088110BD00000000C8425C050020DF
:1035C00010B533493348FEF79DFA2120324908707F
:1035D00005204870314890ED010A314880ED000A1D
:1035E00090ED000ADFED2F0A20EE200ABDEEC00AA2
:1035F00010EE100A00B22C49088008460088000A24
:103600002549887028480078C870244890ED000A41
:10361000264880ED000A90ED000ADFED220A20EE38
:10362000200ABDEEC00A224880ED000A0068000EA4
:1036300008711F480068000C48711D480088000A86
:1036400088711B480078C8711A4800786A2801D12F
:103650000120087217480078062802D100200E4980
:1036600008720A210C48FDF7E5F8134800680521A7
:1036700090FBF1F201FB120018B901210548FEF799
:1036800075FA0D480068401C0B49086010BD000029
:10369000200000207060024056030020101300201C
:1036A000FC0000200000C8420401002000010020AE
:1036B00008010020700500200C01002010B5DC4836
:1036C000008802287DD1DB48006801287AD1DA48D9
:1036D000008A00EE100AB8EE400AD84880ED000AD1
:1036E000D748008A00EE100AB8EE400AD54880EDAF
:1036F000000AD548008800EE100AB8EE400ADFED57
:10370000D30A70EE600AD24890ED001AD14890EDCD
:10371000000A00EE810A80ED000ACB48408800EEE6
:10372000100AB8EE400ADFEDC90A70EE600ACA4816
:1037300090ED001AC94890ED000A00EE810A80ED74
:10374000000AC148B0F90C0000EE100AF8EEC00AF9
:10375000C34890ED001AC14890ED000A00EEC10A7E
:1037600080ED000AB848B0F90A0000EE100AF8EE41
:10377000C00ABC4890ED001AB64890ED000A00EE71
:10378000810A80ED000AB848008890BBAE48408AA4
:1037900000EE100AF8EE400AAB48808A00EE100AEC
:1037A000B8EE400A70EEC00AB04890ED001AAB487F
:1037B00090ED000A00EE810A80ED000AA248008B1D
:1037C00001E0DBE057E000EE100AF8EE400A9E4808
:1037D000C08A00EE100AB8EE400A70EEC00AA44893
:1037E00090ED001A9B4890ED000A00EE810A80EDF2
:1037F000000AA04890ED000AB0EE401A95498E48A4
:103800009D4A92ED000AF8EEC00A9C4A92ED000A29
:10381000B8EEC00AFFF74CF98E4890ED000A8648D2
:1038200080ED070A9348D0ED000AB0EE600A944894
:10383000FEF776FB804880EDDF0A924890ED000AA3
:10384000F8EEC00A904890ED000AB8EEC00A83482E
:1038500002F046FE814890ED000A794880ED070AA3
:103860008448D0ED010AB0EE600A8848FEF758FBA4
:10387000734880EDDF0A8648006801287ED17D48C4
:1038800090ED000A734880ED000A7A4890ED010A35
:10389000724880ED000A774890ED000AB0EE401AB9
:1038A0006C496548744A92ED000AF8EEC00A734A02
:1038B00092ED000AB8EEC00AFFF7FAF862480088F5
:1038C00000EE100AB8EE400ADFED600A70EE600A02
:1038D000704890ED001A594890ED000A00EE810AF8
:1038E00080ED000A5848408800EE100AB8EE400A01
:1038F000DFED560A70EE600A674890ED001A5148F5
:1039000090ED000A00EEC10A80ED000A4E48B0F9C1
:103910000A0000EE100AF8EEC00A604890ED001AA6
:10392000464890ED000A00EE810A80ED000A464804
:10393000B0F90C0000EE100AF8EEC00A584890EDFD
:10394000001A404890ED000A00EEC10A80ED000A1E
:103950004548008888BB3C48408A00EE100AF8EED3
:10396000400A3948808A00EE100AB8EE400A70EE2C
:10397000C00A4C4890ED001A324800E057E090ED44
:10398000000A00EE810A80ED000A2F48008B00EE4D
:10399000100AF8EE400A2C48C08A00EE100AB8EE71
:1039A000400A70EEC00A404890ED001A234890ED9E
:1039B000000A00EE810A80ED000A304890ED000A0E
:1039C000F8EEC00A2C4890ED000AB8EEC00A1B4879
:1039D00002F086FD194890ED000A174880ED070AAD
:1039E000D0ED050AB0EE600A2548FEF799FA1248B4
:1039F00080EDDF0A2D4890ED000AF8EEC00A2C4851
:103A000090ED000AB8EEC00A0E4802F069FD0D48BC
:103A100090ED000A0A4880ED070AD0ED050AB0EEE5
:103A2000600A1A48FEF77CFA054880EDDF0A10BDEF
:103A30008002002054010020A40500204401002041
:103A40003C0900204801002020050020000080449F
:103A50007401002040010020780100203C0100207A
:103A6000880100208401002012020020980100201B
:103A70009401002010130020600100205C01002050
:103A8000E00800206801002064010020780C00207C
:103A9000580100207C010020800100208C010020C2
:103AA00090010020A00100209C0100207001002056
:103AB0006C0100202DE9F0412DED048B04460D46EC
:103AC00016461F46B0EE408AF0EE608AB0EE419A8C
:103AD0000E4860640E48A064B0EE491AF0EE680A21
:103AE000B0EE480A3B46324629462046D4F844C048
:103AF000E047B0EE491AF0EE680AB0EE480A2046F8
:103B0000A16C8847BDEC048BBDE8F0811367000809
:103B10002967000870B586B004460E461548012195
:103B200002220423CDE90132CDE90310142000EE76
:103B3000104AB8EEC00A4FF4227340F28C62009033
:103B40000D4801780020FEF733FA05460F2229467A
:103B50000A48FCF791FB0F2000900948007800F517
:103B6000807207480178054B40F2011000F09AFB83
:103B700006B070BD1C020020F5010020D01400200A
:103B80007005002040F29F600A4908604FF47A6097
:103B9000094908600A20094908606FF01D000849BA
:103BA00008604FF47A60074908609620064908606B
:103BB000704700005C0100206001002064010020CB
:103BC000680100206C010020700100204EF2A84026
:103BD000044908800449088042F2107003490860D3
:103BE00070470000B4010020B6010020B0010020A1
:103BF00029B1064A12680243044B1A6004E0034AE2
:103C000012688243014B1A6070470000303802404E
:103C100029B1064A12680243044B1A6004E0034AC1
:103C200012688243014B1A6070470000403802401E
:103C300029B1064A12680243044B1A6004E0034AA1
:103C400012688243014B1A6070470000203802401E
:103C500029B1064A12680243044B1A6004E0034A81
:103C600012688243014B1A607047000044380240DA
:103C7000F0B5002100220024022500260223324F45
:103C80003F6807F00C0121B1042905D0082937D17C
:103C900005E02E4F076036E02D4F076033E02A4FD6
:103CA0003F1F3F68C7F38056274F3F1F3F6807F00D
:103CB0003F036EB1264FB7FBF3F7DFF88CC0ACF1D2
:103CC000040CDCF800C0CCF3881C07FB0CF40CE0FF
:103CD0001E4FB7FBF3F7DFF870C0ACF1040CDCF853
:103CE00000C0CCF3881C07FB0CF4174F3F1F3F6844
:103CF000C7F301477F1C7D00B4FBF5F7076002E0C6
:103D0000124F076000BF00BF0F4F3F6807F0F00180
:103D10000909104F7A5C0768D74047600A4F3F682F
:103D200007F4E051890A0B4F7A5C4768D7408760F7
:103D3000054F3F6807F46041490B064F7A5C4768BE
:103D4000D740C760F0BD0000083802400024F400EE
:103D500000127A001400002010B5A748008801283E
:103D60007ED1A648006801287BD1A548008A00EED4
:103D7000100AB8EE400AA34880ED000AA248008A63
:103D800000EE100AB8EE400AA04880ED000AA048F4
:103D90000088A0F580600A280ADA9D480088A0F50E
:103DA000806010F10A0F03DD4FF4806098490880AD
:103DB00097484088A0F580600A280ADA944840882D
:103DC000A0F5806010F10A0F03DD4FF48060904988
:103DD00048808F48008800EE100AB8EE400ADFEDF8
:103DE0008D0A70EE600A8C4890ED001A8B4890EDB9
:103DF000000A00EE810A80ED000A8548408800EE46
:103E0000100AB8EE400ADFED830A70EE600A8448BB
:103E100090ED001A834890ED000A00EE810A80EDD3
:103E2000000A814890ED000AB0EE401A7B497448C0
:103E30007E4A92ED000AF8EEC00A7D4A92ED000A31
:103E4000B8EEC00AFEF734FE744890ED000A6C48E4
:103E500080ED070A774890ED000AF8EEC00A01E00D
:103E60009BE018E0744890ED000AB8EEC00A6D4877
:103E700002F036FB6B4890ED000A634880ED070ABC
:103E80006948D0ED010AB0EE600A6C48FEF748F8C8
:103E90005D4880EDDF0A6A48006801287DD16248EC
:103EA00090ED000A5D4880ED000A5F4890ED010A40
:103EB0005C4880ED000A5C4890ED000AB0EE401AC4
:103EC00056494F48594A92ED000AF8EEC00A584A3E
:103ED00092ED000AB8EEC00AFEF7EAFD46480088F7
:103EE00060B14B480088A0F580600A280ADA48488B
:103EF0000088A0F5806010F10A0F03DD4FF48060A8
:103F0000434908803C48008860B141484088A0F59A
:103F100080600A280ADA3E484088A0F5806010F1E7
:103F20000A0F03DD4FF48060394948803848008823
:103F300000EE100AB8EE400ADFED360A70EE600AB5
:103F4000404890ED001A2F4890ED000A00EE810ADB
:103F500080ED000A2E48408800EE100AB8EE400AB4
:103F6000DFED2C0A70EE600A374890ED001A274802
:103F700090ED000A00EEC10A80ED000A2C4890ED99
:103F8000000AF8EEC00A294890ED000AB8EEC00A0F
:103F90001C4802F0A5FA1B4800E02CE090ED000A56
:103FA000174880ED070AD0ED050AB0EE600A00F56B
:103FB0004F70FDF7B5FF124880EDDF0A234890ED02
:103FC000000AF8EEC00A224890ED000AB8EEC00AD6
:103FD0000E4802F085FA0D4890ED000A0A4880ED7F
:103FE000070AD0ED050AB0EE600A1448FDF798FF05
:103FF000054880EDDF0A10BD80020020540100203A
:10400000A4050020440100203C09002048010020B4
:1040100020050020000080447401002040010020A1
:10402000780100203C0100201013002060010020D6
:104030005C0100206801002064010020780C002051
:10404000580100207C010020800100207001002028
:104050006C01002010B54FF480410248FEF71DFCB2
:1040600010BD00000008024010B54FF48041024826
:10407000FEF711FC10BD00000008024010B5044618
:104080002078617840EA0120C0F30A006C4908807A
:104090006078C010A17840EA4110C0F30A00684976
:1040A0004880A0788011E17840EA8100217940EAD7
:1040B0008120C0F30A00624988802079401061792C
:1040C00040EAC110C0F30A005D49C8806079C0F3BE
:1040D0000110087260798009487208460088A0F5CE
:1040E00080600F2809DA08460088A0F5806010F18A
:1040F0000F0F02DD4FF48060088051484088A0F522
:1041000080600F280ADA4E484088A0F5806010F1E0
:104110000F0F03DD4FF4806049494880484880888C
:10412000A0F580600A280ADA45488088A0F58060FA
:1041300010F10A0F03DD4FF4806041498880404848
:10414000C088A0F580600A280ADA3D48C088A0F53A
:10415000806010F10A0F03DD4FF480603849C88099
:10416000A079E17940EA012000B235494881207AFE
:10417000617A40EA012001B231488181A07AE17A76
:1041800040EA012001B22E48C181217B0174617B8C
:104190004174A07B00F0010029494882A07BC0F354
:1041A000400127488182A07BC0F380012448C1825E
:1041B000A07BC0F3C00122480183A07BC0F30011A3
:1041C0001F48C185A07BC0F340111D480186A07B1C
:1041D000C0F380111A484183A07BC109184881832C
:1041E000E07B00F001011648C183E07BC0F3400191
:1041F00013480184E07BC0F3800111484184E07BD7
:10420000C0F3C0010E488184E07BC0F300110C486C
:10421000C184E07BC0F3401109480185E07BC0F315
:10422000801107484185E07BC10905488185002050
:104230000349C88604F01EF90149C1F8320010BDD7
:104240002005002004F016F91449086002F000F976
:1042500040F214514020FEF783FC06E002F064FDBA
:10426000FEF798FC012003F0BFFA04F003F90B49B4
:104270000968401AB0F57A7FF0D30948008810B970
:1042800000BF01F0D9FC00BF02F04EFD02F0E6F8DD
:10429000FEF780FC642003F0A7FAF5E72C0100206C
:1042A0001C0100202DE9FC4705460E46174698469E
:1042B000DDF82890ADF80050ADF80260ADF804705C
:1042C0000624224669460948FBF7D6FF0749081924
:1042D0004A464146FBF7D0FF09EB040081B240F2A9
:1042E000013000F005F8BDE8FC8700008E030020D7
:1042F00013B5BDF8040009301F490870A5201F49F7
:1043000008700846BDF80410A0F801101C48007899
:104310001A49C8701A480078401C194908700521CC
:104320001648FCF787FA1548BDF80010A0F80510EC
:10433000114801781148FCF765FA032419E0601E62
:10434000C4B210491048FDF7DDFB0B4800780E4958
:10435000091D086001210C48FDF708FC01200B49EC
:10436000087000BF094800780128FBD0232003F023
:104370003BFA002CE3D11CBD15020020870300206E
:104380001402002000800028B8640240F4010020DC
:104390000CB50020019000903448006840F4803053
:1043A0003249086000BF3148006800F400300090D6
:1043B0000198401C0190009818B90198B0F5A04FE1
:1043C000F1D12A48006800F4003010B101200090BB
:1043D00001E0002000900098012846D12348403099
:1043E000006840F080502149403108602048006852
:1043F00040F440401E4908601C48083000681B49D2
:10440000083108600846006840F40040086008462B
:10441000006840F4A05008601648091F0860081F93
:10442000006840F08070091F086000BF0F480068F6
:1044300000F000700028F9D040F205700E490860C5
:104440000A480830006820F0030008490831086075
:104450000846006840F00200086000BF03480830CA
:10446000006800F00C000828F8D10CBD00380240AC
:104470000070004008544007003C02402DE9F04322
:104480002DED068B85B0FE4A02210123FD4890EDFB
:10449000000ADFEDFD0A20EE200ABCEEC00A10EE95
:1044A000100A80B2CDE9023104920190F74890EDF4
:1044B000000ADFEDF70A20EE200ABCEEC00A10EE7B
:1044C000100A80B20090F34890ED000ADFEDEE0A8A
:1044D00020EE200ABCEEC00A10EE100A83B2EB48B0
:1044E00090ED000ADFEDEA0A20EE200ABCEEC00AD9
:1044F00010EE100A82B2E84801780120FEF7B6FDFE
:1045000004460F222146E548FBF7B6FEE4490222A5
:104510000123DC4890ED000ADFEDDB0A20EE200AE3
:10452000BCEEC00A10EE100A80B2CDE9023204914E
:104530000190DC4890ED000ADFEDD50A20EE200A5C
:10454000BCEEC00A10EE100A80B20090D14890ED87
:10455000000ADFEDCD0A20EE200ABCEEC00A10EE04
:10456000100A83B2CF4890ED000ADFEDC90A20EEB1
:10457000200ABCEEC00A10EE100A82B2C6480178CA
:104580000120FEF773FD04460F222146C3480F3079
:10459000FBF772FEC44902220123BE4890ED000AD7
:1045A000DFEDB90A20EE200ABCEEC00A10EE100AB8
:1045B00080B2CDE9023204910190BA4890ED000A30
:1045C000DFEDB30A20EE200ABCEEC00A10EE100A9E
:1045D00080B20090AF4890ED000ADFEDAB0A20EE0C
:1045E000200ABCEEC00A10EE100A83B2A74890ED74
:1045F000000ADFEDA70A20EE200ABCEEC00A10EE8A
:10460000100A82B2A44801780120FEF72FFD04466B
:104610000F222146A1481E30FBF72EFEA34902229D
:104620000123984890ED000ADFED970A20EE200A5A
:10463000BCEEC00A10EE100A80B2CDE9023204913D
:104640000190984890ED000ADFED910A20EE200AD3
:10465000BCEEC00A10EE100A80B20090894890EDBE
:10466000000ADFED890A20EE200ABCEEC00A10EE37
:10467000100A83B2854890ED000ADFED850A20EE2E
:10468000200ABCEEC00A10EE100A82B282480178FD
:104690000120FEF7EBFC04460F2221467F482D3017
:1046A000FBF7EAFD77480068FBF749FF41EC1A0B7E
:1046B0009FED7F0B53EC102BFBF7A3FE41EC190B86
:1046C0009FED7D0B53EC102BFBF7A1FE41EC180B7B
:1046D000FBF71CFF85B2734890ED000A6B48D0EDE4
:1046E000000A30EE200ADFED6A0A20EE200AF0EE22
:1046F000000A80EE201ABCEEC10A10EE100A86B243
:1047000064480068FBF71BFF41EC1A0B9FED680B38
:1047100053EC102BFBF7D4FD41EC190B9FED660B0E
:1047200053EC102BFBF773FE41EC180BFBF7EEFE7E
:1047300087B25C4890ED000A5448D0ED000A30EE94
:10474000200ADFED530A20EE200AF0EE000A80EE88
:10475000201ABCEEC10A10EE100A1FFA80F8584861
:10476000022101223B46CDE90065CDE902210490FA
:104770004246494801780120FEF778FC04460F22A2
:10478000214646483C30FBF777FD424890ED000A51
:104790003C48D0ED000A30EE200ADFED3B0A20EE67
:1047A000200AF0EE000A80EE201ABCEEC10A10EEDC
:1047B000100A85B23B480068FBF7C1FE41EC1A0BBA
:1047C0009FED3B0B53EC102BFBF77AFD41EC190BE3
:1047D0009FED3C0B53EC102BFBF719FE41EC180B33
:1047E000FBF794FE86B22B4890ED000A2548D0EDE9
:1047F000000A30EE200ADFED240A20EE200AF0EE57
:10480000000A80EE201ABCEEC10A10EE100A87B230
:104810001E480068FBF793FE41EC1A0B9FED240B3A
:1048200053EC102BFBF7EDFD41EC190B9FED250B25
:1048300053EC102BFBF7EBFD41EC180BFBF766FE7E
:104840001FFA80F82148022101223B46CDE900658C
:10485000CDE90221049042460F4801780120FEF77D
:1048600005FC04460F2221460C484B30FBF704FDA3
:10487000084890ED000A0348D0ED000A28E0000047
:104880005D020020FC01002000008744000200209F
:104890000000F044F8010020F5010020DF140020A2
:1048A000610200200402002065020020690200204D
:1048B0009A9999999999A93F0000000000E09040C9
:1048C0006D0200200000000000009E4071020020E8
:1048D00030EE200AF0EE000A80EE201A11EE109A57
:1048E0004846FBF72CFE41EC1A0B9FED4A0B53ECAC
:1048F000102BFBF786FD41EC190B1FED110B53EC50
:10490000102BFBF784FD41EC180BFBF7FFFD85B284
:1049100042480068FBF713FE41EC1A0B9FED400B79
:1049200053EC102BFBF7CCFC41EC190B1FED1B0BD0
:1049300053EC102BFBF76BFD41EC180BFBF7E6FD7E
:1049400086B2394890ED000A3848D0ED000A30EEC2
:10495000200AF0EE000A80EE201A11EE109A484666
:10496000FBF7EDFD41EC1A0B9FED2A0B53EC102BDE
:10497000FBF747FD41EC190B1FED310B53EC102BEE
:10498000FBF745FD41EC180BFBF7C0FD87B228484B
:104990000068FBF7D4FD41EC1A0B9FED210B53ECA3
:1049A000102BFBF72EFD41EC190B1FED3A0B53ECCE
:1049B000102BFBF72CFD41EC180BFBF7A7FD1FFAA2
:1049C00080F81C48022101223B46CDE90065CDE973
:1049D000022104904246184801780120FEF746FB68
:1049E00004460F2221461548FBF746FC692000903B
:1049F0001348007800F58072114801780F4B693B2D
:104A00004FF48270FFF74EFC05B0BDEC068BBDE89D
:104A1000F0830000B81E85EB51B89E3F04020020D1
:104A20007B14AE47E17A943FF8010020FC0100209E
:104A30000002002075020020F50100203915002039
:104A40007005002002F0F6F9FFF7C0F803F012FD40
:104A5000FE49086003F00EFDFC490968401A40F663
:104A6000C411884204D2FA4890ED050A80ED070A85
:104A70004FF48060F749C88000BFF748407800F0E5
:104A80000300012807D1F24890ED050A80ED070ADE
:104A90000020F2490860EF48407A032803D0ED482F
:104AA000407A012879D1EE480088012803D0EC48EB
:104AB0000088032872D1EB480068EB4909888842D6
:104AC0001DDDEA480068012819D10020E549086089
:104AD000E148407800F0030001283BD0DC48D0EDED
:104AE000070AE34890ED000AB8EEC00A30EE800AEB
:104AF000D74880ED070A0120D84908602AE0DB4842
:104B00000068032816D1D448407800F0030001283B
:104B100020D0CF48D0ED070AD64890ED000AB8EE75
:104B2000C00A30EE800ACA4880ED070A0120CB494E
:104B300008600FE0CD48006802280BD1C44890ED12
:104B4000070ADFEDCD0A30EE200A80ED070A0020CB
:104B5000C2490860C3480068401CC2490860C34895
:104B60000068032803D0C1480068012817D1C34852
:104B7000B0F90000404200EE100AB8EEC00AC0488A
:104B800080ED070ABF48B0F9000000EE100AB8EE49
:104B9000C00ABB4880ED8C0A33E0C7E044E0BA4865
:104BA000B0F9000000EE100AB8EEC00AB748D0ED28
:104BB000000A20EE200AD0ED000AB7EE001A71EECE
:104BC000600A9FEDAD1A00EE810AAD4880ED070A3C
:104BD000AD48B0F9020000EE100AB8EEC00AAB48CA
:104BE000D0ED000A20EE200AD0ED000AB7EE001A40
:104BF00071EE600A9FEDA01A00EE810AA04880EDD8
:104C00008C0A9F4890ED070ABDEEC00A10EE100A0C
:104C100000B29D4908809A4890ED8C0ABDEEC00A0A
:104C200010EE100A00B248808D48008802287DD11D
:104C30008848007C012819D19548007810BB864827
:104C4000407800F0030001281CD08148D0ED070A0D
:104C5000884890ED000AB8EEC00A30EE800A7C4821
:104C600080ED070A01207D4908600BE0784890ED4F
:104C7000070ADFED810A30EE200A80ED070A0020E6
:104C8000764908607348007C012819D1744800886F
:104C9000022815D17948B0F90000404200EE100A10
:104CA000B8EEC00A764880ED070A7648B0F90000F1
:104CB00000EE100AB8EEC00A714880ED8C0A31E0AF
:104CC0007148B0F9000000EE100AB8EEC00A6F4853
:104CD000D0ED000A20EE200AD0ED000AB7EE001A4F
:104CE00071EE600A9FED641A00EE810A644880ED5F
:104CF000070A6548B0F9020000EE100AB8EEC00AD3
:104D00006248D0ED000A20EE200AD0ED000AB7EE8E
:104D1000001A71EE600A9FED581A00EE810A584899
:104D200080ED8C0A564890ED070A00E00FE0BDEEDA
:104D3000C00A10EE100A00B253490880504890EDA6
:104D40008C0ABDEEC00A10EE100A00B2488044483A
:104D50000088E0BB3E4890ED050A80ED070A4FF45D
:104D600080603C49088048808880C8804648B0F907
:104D7000000000EE100AB8EEC00A4448D0ED000A68
:104D800020EE200AD0ED000AB7EE001A71EE600A9C
:104D90009FED391A00EE810A394880ED070A3A483A
:104DA000B0F9020000EE100AB8EEC00A3748D0EDA4
:104DB000000A20EE200AD0ED000AB7EE001A71EECC
:104DC000600A9FED2D1A00EE810A2D4800E013E0E5
:104DD00080ED8C0A90ED070ABDEEC00A10EE100AB5
:104DE00000B229490880264890ED8C0ABDEEC00A21
:104DF00010EE100A00B2488002F032FCFEF788FA8A
:104E000002F058FC2348B0F90000002848DD9FED6F
:104E10001A1AF6EE000AB2EE040A42F2107343F6D2
:104E2000982201210A482030FEF744FE9FED121A15
:104E3000DFED110A9FED180A44F620631A4601219E
:104E400003486C30FEF736FE002027E0DC0100202E
:104E5000D40C0020200500201C010020C0010020EF
:104E600080020020EC010020B80100208802002010
:104E7000AC010020B001002000000000B4010020BF
:104E8000E80E0020B6010020C6010020CC01002061
:104E9000BA010020E80100208FC2F53C02490880D9
:104EA0000A2002F0A1FCE8E5E80100201CB5044658
:104EB00002F0D6FB2348042100238022CDE9001014
:104EC00021A1254803F0A6FA1E480830012100233D
:104ED0008022CDE9001021A1234803F09BFA194854
:104EE0000C30012100238022CDE900101FA12448AD
:104EF00003F090FA13481030052100238022CDE9F9
:104F0000001020A1244803F085FA0E481430052132
:104F100000238022CDE9001020A1224803F07AFA74
:104F200008481C30042100238A01CDE900101EA18D
:104F3000224803F06FFA2248006802F083FC02F076
:104F4000B9FB1CBD9013002053656C6663686563F4
:104F50006B205461736B0000454200084A7564671A
:104F600065205461736B00005D300008477261700A
:104F70006869632053656E647461736B00000000A0
:104F8000F5290008496D7520636F74726F6C206796
:104F9000696D62616C000000D12B000873686F6F4F
:104FA00074000000454A0008416374696F6E436FE6
:104FB0006E74726F6C5F7461736B0000A5070008FC
:104FC0001801002010B500BF502080F31188BFF3F6
:104FD0004F8FBFF36F8F00BF03F052FA18B14FF03D
:104FE00080500449086000BF002080F3118800BF92
:104FF00010BD000004ED00E010B51548006840F455
:105000007000134908601348006840F0010011491E
:10501000086000200F49083108600E4800680E49FA
:1050200008400C4908600D48091D0860081F006809
:1050300020F48020091F0860002006490C31086018
:10504000FFF7A6F94FF0006001498039086010BDF4
:1050500088ED00E000380240FFFFF6FE103000242B
:1050600010B50121014800F095F910BD0004004081
:1050700010B501219F4800F08DF900287ED0002155
:105080009C4800F063F9002201219A4800F093F94E
:1050900099480088002801DC002009E09648008833
:1050A000B0F5FA6F02DB4FF4FA6001E09248008835
:1050B0009149088091480088002801DC002009E01F
:1050C0008E480088B0F5FA6F02DB4FF4FA6001E019
:1050D0008A4800888949088087480088C0F3802072
:1050E0008749087084480088C0F34020487082488F
:1050F0000088C0F3002088707F480078C0F3C0109B
:10510000C8707D480078C0F3801008717A48007834
:10511000C0F34010487178480078C0F300108871DF
:1051200075480078C0F3C000C87173480078C0F3B8
:105130008000087270480078C0F3400048726E48E2
:10514000007800F0010088720020C87208460078DC
:10515000097948406A49097A48406949087308460C
:105160004078497948406649497A484064494873DB
:105170000846807889794840614900E0B9E0897A39
:1051800048405F4988730846C078C97948405C49FF
:10519000C97A48405A49C87300205A49086013E048
:1051A000574858490968405C012801D1172000E0A0
:1051B0000C20544909684900534A42F821005148DB
:1051C0000068401C4F4908604E4800681028E7DB23
:1051D0004A480088C0F38020494908704748008841
:1051E000C0F34020487045480088C0F30020887014
:1051F00042480078C0F3C010C87040480078C0F33F
:10520000801008713D480078C0F3401048713B4859
:105210000078C0F30010887138480078C0F3C000EF
:10522000C87136480078C0F38000087233480078AF
:10523000C0F3400048723148007800F001008872E5
:105240000020C87208460078097948402C49097A3C
:1052500048402B4908730846407849794840284916
:10526000497A4840264948730846807889794840F9
:105270002349897A4840224988730846C078C97909
:1052800048401F49C97A48401D49C87300201D493C
:10529000086014E01A481B490968405C012801D1E4
:1052A000172100E00C21174800684000401C164AF6
:1052B00042F8201013480068401C12490860114849
:1052C00000681028E6DB11491148FCF71BFC01229D
:1052D0001102104800F055F8012210210C48FCF78B
:1052E00055FD01210A48FCF741FC0121014800F06D
:1052F0002AF810BD000800404000002042000020B5
:105300000D0500204400002054000020000800107B
:10531000286402400004014010B50121064800F055
:1053200039F840B105480068401C04490860012173
:10533000014800F008F810BD0014004040030020B0
:10534000CA4302827047CA430282704721B1028871
:1053500042F00102028004E002884FF6FE731A4018
:105360000280704731B1B0F8442042F40042A0F806
:10537000442005E0B0F84420C2F30E02A0F8442017
:1053800070471AB183890B43838102E083898B4381
:105390008381704730B50246002000230024158A1F
:1053A00005EA0103958905EA010413B10CB1012056
:1053B00000E0002030BD1AB183890B43838102E0F5
:1053C00083898B438381704770B5002400220023BA
:1053D000058C4FF6FE7635400584028C8388048B5D
:1053E0004FF68F752C40B51E2C400D882C43751E32
:1053F0002A408D892A434D882A43104DA84202D065
:105400000F4DA84213D14FF6F7752A40CD892A4394
:105410004FF6FB752A408D882A434FF6FF652B40D7
:105420004FF6FF552B400D8A2B434D8A2B4383802B
:1054300004838D684563028470BD00000000014054
:105440000004014070B5002400220023058C4FF6B3
:10545000EF7635400584028C8388048B48F6FF750F
:105460002C404FF6FF452C400D884FF6FF7606EA9C
:1054700005252C434FF6DF752A408D8906EA051570
:105480002A434D8806EA05152A43154DA84202D045
:10549000144DA8421DD14FF67F752A40CD894FF695
:1054A000FF7606EA05152A434FF6BF752A408D8818
:1054B00006EA05152A434FF6FF352B404FF2FF75DC
:1054C0002B400D8A06EA85052B434D8A06EA8505A1
:1054D0002B43838004838D688563028470BD000044
:1054E0000000014000040140416370478163704740
:1054F00000220288184B98420ED0184B98420BD0CD
:10550000B0F1804F08D0164B984205D0154B984209
:1055100002D0154B984204D14FF68F731A404B8836
:105520001A43124B984207D0114B984204D04FF6C1
:10553000FF431A400B891A4302804B68C3620B88F1
:105540000385054B984202D0044B984201D18B7AD7
:10555000038601238382704700000140000401405C
:105560000004004000080040000C00400010004013
:105570000014004010B540F22441054800F08FF9B6
:1055800020B1034800880248001D008810BD0000BB
:10559000004C004010B540F22441044800F07FF96F
:1055A00018B1024800880148808810BD00500040B2
:1055B00010B52DED0C8B7548408C012810D1744826
:1055C000008868B97348008818B9012071490880BB
:1055D00006E070480088012802D100206D4908804B
:1055E0006A48408C00B26A4908806A4800880128ED
:1055F0007ED16649888AFAF77CFF41EC1B0B9FED50
:10560000660B53EC102BFAF702FF41EC190B5F49C4
:10561000488AFAF76EFF41EC1D0B9FED5F0B53ECD0
:10562000102BFAF7F4FE41EC1B0B5D480068FAF70B
:1056300086FF41EC1C0B53EC1B2BFAF741FE41ECAF
:105640001A0B53EC192BFAF7DCFE41EC180BFAF7A6
:1056500089FF534908604D49888AFAF74AFF41ECAF
:105660001B0B9FED4D0B53EC102BFAF7D0FE41ECCA
:10567000190B4649488AFAF73CFF41EC1D0B9FED98
:10568000460B53EC102BFAF7C2FE41EC1B0B4548BE
:105690000068FAF754FF41EC1C0B53EC1B2BFAF794
:1056A0000FFE41EC1A0B53EC192BFAF7AAFE41EC52
:1056B000180BFAF757FF3B4908603449C88AFAF7D4
:1056C00018FF41EC1B0B9FED340B53EC102BFAF73A
:1056D0009EFE41EC190B2D49088BFAF70AFF41ECAD
:1056E0001D0B9FED2D0B53EC102BFAF790FE00E0F5
:1056F00049E041EC1B0B2C480068FAF720FF41EC15
:105700001C0B53EC1B2BFAF7DBFD41EC1A0B53EC93
:10571000192BFAF776FE41EC180BFAF723FF224912
:1057200008601A49C88AFAF7E4FE41EC1A0B9FEDAB
:105730001A0B53EC102BFAF76AFE41EC180B1349C5
:10574000088BFAF7D6FE41EC1D0B9FED130B53ECC3
:10575000102BFAF75CFE41EC1C0B14480068FAF7BA
:10576000EEFE41EC1A0B53EC1C2BFAF7A9FD41ECB1
:10577000190B53EC182BFAF744FE41EC1B0BFAF70C
:10578000F1FE0A490860BDEC0C8B10BD200500201D
:1057900010020020120200207B14AE47E17AA43FE1
:1057A000F8010020FC01002000020020040200207B
:1057B000B6EE000A094880ED000A9FED090A094883
:1057C00080ED000A9FED080A084880ED000A9FED71
:1057D000080A084880ED000A70470000F801002020
:1057E000AE47E13EFC0100206666E63E0002002076
:1057F000CDCC0C3F0402002010B540F224410448F7
:1058000000F04DF818B1024800880148808810BDAA
:105810000010014010B540F22441124800F03FF85A
:10582000F0B1104800880F48001D008800210E4884
:10583000FCF79CF90C48FCF751FAC0F11E000B492B
:10584000086008460068122802D10948FEF716FCD5
:105850001E210548FCF7E4FA01210348FCF786F90C
:1058600010BD000000480040286002403C000020BD
:105870004403002021B1828942F40052828104E075
:1058800082894DF6FF731A40828170471AB1838A6C
:105890000B43838202E0838A8B438382704770B517
:1058A0000246002400230025002040F66A16B1427B
:1058B00000D100BFC1F3421501F01F03012606FA13
:1058C00003F3012D02D19689334006E0022D02D167
:1058D000168A334001E0968A33400C12012606FAFC
:1058E00004F41688344013B10CB1012000E000200C
:1058F00070BDF0B50346002400260025002040F6C8
:105900006A17B94200D100BF1846C1F3421401F032
:105910001F06012707FA06F5012C01D10C3004E01F
:10592000022C01D1103000E014301AB107682F4367
:10593000076002E00768AF430760F0BD2DE9FF474D
:1059400005460E460024A14600BFA046B08900B11E
:1059500000BF2C8A24F44054F08804432C82AC8984
:1059600041F20C608443B08831890843718908434F
:105970000443AC81AC8A24F44074B0890443AC8203
:105980006846FEF775F92048854202D01F488542D7
:1059900002D1DDF80C9001E0DDF80890A88900F450
:1059A000004040B109EBC90000EB09103168490023
:1059B000B0FBF1F707E009EBC90000EB0910316813
:1059C0008900B0FBF1F76420B7FBF0F00401200977
:1059D000642101FB1078A88900F4004040B1322016
:1059E00000EBC800B0FBF1F000F00700044308E052
:1059F000322000EB08106421B0FBF1F000F00F0042
:105A000004432C81BDE8FF870010014000140140D1
:105A1000C1F308028280704700BFFEE770B50546FB
:105A20000C4600260DB1022C01D8002070BDA11E2D
:105A3000094802882846FCF737FF0646F1B2A01E47
:105A4000285C814206D1601E285CB0EB162F01D184
:105A50000120EBE70020E9E74800002070B505468B
:105A60000C4600260DB1022C01D8002070BD611E2D
:105A7000FF222846FCF732FF064605490880601ED3
:105A8000285CB04201D10120F0E70020EEE70000E1
:105A90004A00002070B586B004460E461548012124
:105AA00002220423CDE90132CDE90310142000EED7
:105AB000104AB8EEC00A4FF4F37340F28C620090C3
:105AC0000D4801780020FCF773FA05460F2229469D
:105AD0000A48FAF7D1FB0F2000900948007800F53A
