:020000040800F2
:10000000784B0020C10400089D0200089F020008F0
:10001000A3020008A7020008AB02000800000000CD
:100020000000000000000000000000009D0100082A
:10003000AF02000800000000F101000805260008DA
:10004000DB040008DB040008DB040008DB04000814
:10005000DB040008DB040008DB040008DB04000804
:10006000DB040008DB040008DB040008DB040008F4
:10007000DB040008DB040008DB040008DB040008E4
:10008000DB040008DB040008DB040008DB040008D4
:10009000DB040008DB040008DB040008DB040008C4
:1000A000DB040008DB040008DB040008DB040008B4
:1000B000DB040008DB040008DB040008DB040008A4
:1000C000DB040008DB040008DB040008DB04000894
:1000D000DB040008DB040008DB040008DB04000884
:1000E000DB040008DB040008DB040008DB04000874
:1000F000DB040008DB040008DB040008DB04000864
:10010000DB040008DB040008DB040008DB04000853
:10011000DB040008DB040008DB040008DB04000843
:10012000DB040008DB040008DB040008DB04000833
:10013000DB040008DB040008DB040008DB04000823
:10014000DB040008DB040008DB040008DB04000813
:10015000DB040008DB040008DB040008DB04000803
:10016000DB040008DB040008DB040008DB040008F3
:10017000DB040008DB040008DB040008DB040008E3
:10018000DB040008DB040008DFF80CD002F0E8FB19
:100190000048004787020008784B00202A4B196866
:1001A0000868B0E8F04F80F30988BFF36F8F4FF015
:1001B000000080F3118870470000000006480068C6
:1001C000006880F3088862B661B6BFF34F8FBFF353
:1001D0006F8F00DF00BF00BF08ED00E0DFF80C000C
:1001E000016841F470010160704700BF88ED00E0D4
:1001F000EFF30980BFF36F8F134B1A681EF0100FD7
:1002000008BF20ED108A20E9F04F106008B44FF0CD
:10021000500080F31188BFF34F8FBFF36F8F01F051
:1002200039FB4FF0000080F3118808BC196808689A
:10023000B0E8F04F1EF0100F08BFB0EC108A80F34A
:100240000988BFF36F8F704734000020EFF30580FB
:10025000704710B5002107E042F63C0200BF131EB4
:10026000A2F10102FBD1491C8142F5DB10BD00B5B2
:100270006420FFF7EEFF00BD10B500F0ABFD642079
:10028000FFF7E7FF10BD10B5FFF7F6FFFFF7EFFF31
:1002900000F023FE01F08DFC002010BD704700BF70
:1002A000FEE700BFFEE700BFFEE700BFFEE77047C6
:1002B0000CB50020019000907648006840F4803032
:1002C0007449086000BF7348006800F40030009073
:1002D0000198401C0190009818B90198B0F5A04F02
:1002E000F1D16C48006800F4003010B1012000909A
:1002F00001E0002000900098012846D16548403078
:10030000006840F0805063494031086062480068EE
:1003100040F44040604908605E48083000685D492C
:10032000083108600846006840F40040086008464C
:10033000006840F4A05008605848091F0860081F72
:10034000006840F08070091F086000BF51480068D5
:1003500000F000700028F9D040F2057050490860A4
:100360004C480830006820F003004A490831086012
:100370000846006840F00200086000BF45480830A9
:10038000006800F00C000828F8D10CBD10B54548F5
:10039000006840F47000434908603E48006840F03F
:1003A00001003C49086000203A490831086039489A
:1003B00000683D490840374908603C48091D08600D
:1003C000081F006820F48020091F086000203149C0
:1003D0000C310860FFF76CFF4FF000603149803945
:1003E000086010BD70B50020002202230024022105
:1003F000284D08352D6805F00C0020B1042806D0E2
:10040000082834D107E02A4D2A4E356033E02A4DC2
:10041000284E35602FE01F4D2D1D2D68C5F38054EB
:100420001C4D2D1D2D6805F03F0154B1224DB5FB2B
:10043000F1F5184E361D3668C6F3881605FB06F230
:1004400009E01B4DB5FBF1F5124E361D3668C6F3BB
:10045000881605FB06F20F4D2D1D2D68C5F30145CD
:100460006D1C6B00B2FBF3F5124E356003E0104DCE
:10047000104E356000BF00BF064D08352D68C5F32E
:1004800003150E4E705D0B4D2D68C540094E35604D
:1004900070BD000000380240007000400854400762
:1004A000003C024088ED00E0FFFFF6FE1030002423
:1004B0000024F4000000002000127A000400002054
:1004C0000648804706480047FEE7FEE7FEE7FEE7EE
:1004D000FEE7FEE7FEE7FEE7FEE7FEE78D03000826
:1004E0008901000810B504469848844208D10121CA
:1004F000084600F086FB0021012000F082FB76E038
:100500009348844208D10121022000F07AFB0021A7
:10051000022000F076FB6AE08E48844208D1012177
:10052000042000F06EFB0021042000F06AFB5EE076
:100530008948844208D10121082000F062FB002193
:10054000082000F05EFB52E08448844208D101217B
:10055000102000F056FB0021102000F052FB46E076
:100560007F48844208D10121202000F04AFB00216D
:10057000202000F046FB3AE07A48844208D101216D
:10058000402000F03EFB0021402000F03AFB2EE02E
:100590007548844208D10121802000F032FB0021FF
:1005A000802000F02EFB22E07048844208D1012117
:1005B000801500F026FB0021A01500F022FB16E0BC
:1005C0006B48844208D10121401500F01AFB00213C
:1005D000601500F016FB0AE06648844207D101214D
:1005E000001500F00EFB0021201500F00AFB10BDE5
:1005F000F0B50A4600210023002400BF3DE001259C
:1006000005FA01F3156805EA03049C4234D1056834
:100610004F000326BE40B543056015794E00B54036
:100620000668354305601579012D02D01579022D34
:1006300016D185684F000326BE40B54385605579C5
:100640004E00B540866835438560456801268E407A
:10065000B5434560456896798E40B6B235434560EE
:10066000C5684F000326BE40B543C560D5794E002E
:10067000B540C6683543C560491C1029BFD3F0BDDD
:100680004FF6FF7101600021017141718171C171EB
:10069000704708B54FF480320092009A0A430092E6
:1006A000009AC261C161009AC261C2690092C269C6
:1006B000009208BD0246002013690B400BB10120D7
:1006C00000E0002070470146086980B2704702468A
:1006D000002053690B400BB1012000E0002070475F
:1006E0000146486980B27047018370474183704773
:1006F0000AB1018300E0418370474161704742695C
:100700004A4042617047F0B5002300244D07ED0ECA
:1007100002FA05F3CE1000F1200555F826504E07D9
:10072000F70E0F26BE40B543CF1000F1200646F865
:100730002750CE1000F1200555F8265045EA030455
:10074000CE1000F1200545F82640F0BD0000024023
:100750000004024000080240000C02400010024069
:100760000014024000180240001C02400020024019
:100770000024024000280240F948006840F00100CF
:10078000F74908600020F64908310860F44800681D
:10079000F4490840F2490860F348091D0860F3482D
:1007A000EF4984310860F0481038091D0860EC48B2
:1007B000006820F48020EA4908600020E8490C31F4
:1007C0000860E7498C31086070470021E44A921CB8
:1007D000117011460870704710B5014600220023C1
:1007E00000204A11012A02D1DD4C236808E0022AC8
:1007F00003D1DB4C7034236802E0D94C7434236895
:1008000001F01F02012494401C400CB1012000E0C3
:10081000002010BD38B5002000900024002500BF46
:100820003120FFF7D9FF05460098401C0090009842
:10083000B0F5A04F01D0002DF2D03120FFF7CCFF52
:1008400008B1012400E00024204638BD0146002004
:10085000C34A106820F0F80040EAC10010607047F9
:10086000C349086070470021BD4A70321170117091
:10087000012802D004280AD104E00121B84A7032CC
:10088000117005E00521B64A7032117000E000BF1A
:1008900000BF7047B7490860704770B5049C41EAD3
:1008A00082150126C6EB530645EA0645054345EA8F
:1008B0000465AB4E361D356070BDAD4908667047A6
:1008C000820142EA0172A64B84331A607047A8493C
:1008D0008866704710B5830143EA016343EA0273F7
:1008E0009F4C8834236010BDA14908677047A04918
:1008F000C864704702460020994B0833186820F0FE
:10090000EC6042EA01031843954B083318607047C6
:1009100002460020924B0833186820F0784042EAE3
:10092000010318438E4B08331860704701460020BE
:100930008B4A0832106820F00300084310607047AB
:1009400087480830006800F00C007047014600201E
:10095000834A0832106820F0F000084310607047A6
:10096000014600207E4A0832106820F4E050084317
:100970001060704701460020794A0832106820F460
:10098000604040EAC10010607047F0B500210022CD
:100990000024022500260223714F08373F6807F024
:1009A0000C0121B1042905D0082937D105E0724F87
:1009B000076036E0714F076033E0694F3F1D3F68C5
:1009C000C7F38056664F3F1D3F6807F03F036EB187
:1009D0006A4FB7FBF3F7DFF888C10CF1040CDCF8C1
:1009E00000C0CCF3881C07FB0CF40CE0624FB7FB93
:1009F000F3F7DFF86CC10CF1040CDCF800C0CCF3A9
:100A0000881C07FB0CF4564F3F1D3F68C7F3014796
:100A10007F1C7D00B4FBF5F7076002E0564F0760CE
:100A200000BF00BF4E4F08373F6807F0F0010909CB
:100A3000534F7A5C0768D7404760494F08373F6893
:100A400007F4E051890A4E4F7A5C4768D7408760C7
:100A5000434F08373F6807F46041490B484F7A5CC1
:100A60004768D740C760F0BD002100F44072B2F57E
:100A7000407F0AD13A4A0832116821F4F811414AFC
:100A800002401143364A08321160354A703212680A
:100A9000C0F30B031A43324B70331A607047354969
:100AA0004439086070473349403908607047364917
:100AB0000860704701460020294A8C32106820F0F7
:100AC0001F004A1E1043264A8C32106070470146B0
:100AD0000020234A8C32106820F4F8504A1E40EA65
:100AE00002201F4A8C3210607047014600201C4AC9
:100AF0008C32106820F440100843106070470146A3
:100B00000020174A8C32106820F44000084310601F
:100B1000704701460020124A8C32106820F44030A1
:100B200008431060704719490860704739B10C4A92
:100B30003032126802430A4B30331A6006E0084A2A
:100B4000303212688243064B30331A607047F9B175
:100B5000034A343212680243014B34331A601CE0FA
:100B600000380240FFFFF6EA103000240030002079
:100B700000004742800E47420024F40000127A0031
:100B800014000020FFFCFF0F5C014742E0114742C8
:100B90008F4A126882438E4B1A60704739B18C4A73
:100BA000121D126802438A4B1B1D1A6006E0884A18
:100BB000121D12688243864B1B1D1A60704739B1A3
:100BC000834A0C3212680243814B0C331A6006E0F0
:100BD0007F4A0C32126882437D4B0C331A60704797
:100BE00039B17B4A103212680243794B10331A60D4
:100BF00006E0774A103212688243754B10331A6050
:100C0000704739B1724A243A12680243704B243B50
:100C10001A6006E06E4A243A126882436C4B243B09
:100C20001A60704739B16A4A203A12680243684B29
:100C3000203B1A6006E0664A203A12688243644B01
:100C4000203B1A60704739B1614A1C3A126802436E
:100C50005F4B1C3B1A6006E05D4A1C3A12688243F7
:100C60005B4B1C3B1A60704739B1594A143A126801
:100C70000243574B143B1A6006E0554A143A126877
:100C80008243534B143B1A60704739B1504A103AB3
:100C9000126802434E4B103B1A6006E04C4A103A71
:100CA000126882434A4B103B1A60704739B1484A78
:100CB0001C3212680243464B1C331A6006E0444A59
:100CC0001C3212688243424B1C331A60704739B1A0
:100CD0003F4A2032126802433D4B20331A6006E03F
:100CE0003B4A203212688243394B20331A607047E6
:100CF00039B1374A243212680243354B24331A6023
:100D000006E0334A243212688243314B24331A609E
:100D1000704739B12E4A2C32126802432C4B2C33C7
:100D20001A6006E02A4A2C3212688243284B2C3380
:100D30001A60704739B1264A303212680243244B98
:100D400030331A6006E0224A303212688243204B68
:100D500030331A607047012808D11D493C310968B9
:100D600041F008011A4A3C32116007E018493C3151
:100D7000096821F00801164A3C321160704739B108
:100D8000134A273A12780243114B273B1A7006E0A8
:100D90000F4A273A127882430D4B273B1A7070474F
:100DA0000B484030006840F08070094940310860CD
:100DB000704701460020064A283A12680A400AB1E4
:100DC000012000E000207047014926390870704773
:100DD000343802401CB501210846FFF7A7FE402029
:100DE000009001208DF8040003208DF805000020FC
:100DF0008DF8060001208DF8070069460E48FFF7C0
:100E0000F7FB8020009001208DF8040003208DF86E
:100E1000050000208DF8060001208DF807006946C6
:100E20000548FFF7E5FB40210348FFF75DFC802103
:100E30000148FFF759FC1CBD000002401EE04021A4
:100E40001448FFF75CFC14480078102804DA1248B4
:100E50000078401C104908700F480078102809DB02
:100E60000E48007830B90E48006800F0B7F901204C
:100E70000A4908704FF4FA7000F0E1FBDFE707E081
:100E800080210448FFF73BFC4FF4FA7000F0D7FBD9
:100E9000F6E70000000002402400002025000020AA
:100EA000300000201CB50446124801210023802296
:100EB000CDE9001010A1134800F042F912480121B9
:100EC00000238022CDE9001010A1134800F038F96A
:100ED0001248006800F082F91CBD1CB50F480121C2
:100EE00000238022CDE900100DA1AFF2470000F0F1
:100EF00027F91CBD2C0000204C454431205374724E
:100F0000696B65003D0E0008300000204C454432FE
:100F100020537472696B65007F0E00082800002062
:100F200053797374656D53746172740000F1080134
:100F300041604FF0FF31816000F10801C160016143
:100F400000210160704700210161704742684A60DA
:100F500093688B60936859609160086103685B1CBB
:100F60000360704710B502460B685C1C0CB9106931
:100F700007E002F1080000E04068446824689C42F1
:100F8000FAD944684C604C68A160886041600A618D
:100F90001468641C146010BD01460A69D1E901306F
:100FA0009860D1E9010358605068884201D188688F
:100FB0005060002008611068401E10601068704783
:100FC00010B5002407E004EB8401F74A02EB81002E
:100FD000FFF7ACFF641C202CF5D3F448FFF7A6FF05
:100FE000F348FFF7A3FFF348FFF7A0FFF248FFF72E
:100FF0009DFFF248FFF79AFFEC48F1490860EC4882
:10100000F049086010BD10B5044601F0B8FAEE488A
:101010000068401CEC490860EC48006840B9EB48A7
:1010200004600846006801280DD1FFF7C9FF0AE0F7
:10103000E748006838B9E5480068C06AE16A884254
:1010400001D8E2480460E3480068401CE1490860B8
:1010500094F82C1001208840DF4909680843DE49D4
:101060000860E16A01EB8101CF4A02EB8100211D9A
:10107000FFF76CFF01F0AAFAD548006868B1D348C1
:101080000068C06AE16A884207D24FF08050D349B5
:101090000860BFF34F8FBFF36F8F10BD2DE9FF5F67
:1010A00081460E469246DDE90E7B109CAAF10100B6
:1010B000216B01EB800828F0070808F0070008B949
:1010C000012000E0002050B900BF502080F31188BB
:1010D000BFF34F8FBFF36F8F00BF00BFFEE7002548
:1010E00007E0715D04F134004155705D00B902E024
:1010F0006D1C102DF5D300BF002143200155202F7A
:1011000000D31F27E762201DFFF71DFF04F1180021
:10111000FFF719FF2461C7F12000A061646200207D
:10112000606484F8480049464046039A01F062F939
:101130002060BBF1000F01D0CBF80040BDE8FF9F5D
:101140002DE9FF4F85B0804689461746DDE912AB91
:10115000B80001F018FB064656B14C2001F013FB15
:1011600004460CB1266304E0304601F0A0FB00E029
:1011700000247CB10020CDE900ABCDE902403A4625
:1011800049464046089BFFF789FF2046FFF73BFF93
:10119000012501E04FF0FF35284609B0BDE8F08F8A
:1011A00087490968096809B9012100E0002121B1D6
:1011B0004FF0FF318A4A116006E081490968C96829
:1011C000C868874A41681160704710B50446206BB3
:1011D00001F06DFB204601F06AFB10BD70B50546BD
:1011E00001F0CDF915B97948006800E028460446B9
:1011F000201DFFF7D1FE78B9E06A00EB80006A4954
:1012000051F8200040B994F82C1001208840724910
:101210000968814370480160A06A18B104F11800A0
:10122000FFF7BAFE6B480068401C6A4908606748CF
:101230000068844209D1211D5F48FFF787FE694895
:101240000068401C6749086009E05F480068401E6C
:101250005D4908602046FFF7B8FFFFF7A1FF01F0E6
:10126000B5F95B480068E8B158480068844219D174
:101270005D48006808B9012000E0002050B900BFB7
:10128000502080F31188BFF34F8FBFF36F8F00BFE3
:1012900000BFFEE74FF0805050490860BFF34F8F0A
:1012A000BFF36F8F70BD2DE9F0414FF000084E483D
:1012B0000068002876D14D480068451C4B48056001
:1012C00015BB3F480068006808B9012000E0002015
:1012D00050B900BF502080F31188BFF34F8FBFF388
:1012E0006F8F00BF00BFFEE73548076835480068CC
:1012F00033490860334807603D480068401C3C495A
:101300000860FFF74DFF00BF3548006885423CD3B9
:1013100000BF2B480068006808B9012000E00020E9
:1013200020B14FF0FF302E4908602DE024480068BE
:10133000C068C4686668B54202D22948066023E0E6
:10134000201DFFF729FEA06A18B104F11800FFF76D
:1013500023FE94F82C10012088401F490968084397
:101360001D490860E16A01EB81010F4A02EB81002F
:10137000211DFFF7EBFD1549E06A0968C96A88423B
:10138000C7D34FF00108C4E700BF10480068C06A27
:1013900000EB8000044951F82000012801D94FF0EA
:1013A00001082CE026E00000940000201403002037
:1013B000280300203C030020500300206403002089
:1013C000380000203C0000204400002034000020B1
:1013D00050000020600000204C00002004ED00E0E0
:1013E00064000020400000206C0000204800002025
:1013F0005C000020FE480068401CFD490860FD4874
:10140000006808B14FF001084046BDE8F08170B5B2
:1014100000240026F848006850B900BF502080F32F
:101420001188BFF34F8FBFF36F8F00BF00BFFEE780
:1014300001F0A5F8F0480068401EEF490860084632
:10144000006800284FD1ED48006800284BD024E008
:10145000EB48C068C46804F11800FFF79DFD201D2B
:10146000FFF79AFD94F82C1001208840E54909689F
:101470000843E4490860E16A01EB8101E24A02EBBA
:101480008100211DFFF762FDE049E06A0968C96A31
:10149000884202D30120D7490860D948006808B9BA
:1014A000012000E000200028D2D00CB1FFF778FE28
:1014B000CF48056865B100BFFFF7F5FE10B1012008
:1014C000CC4908606D1E002DF6D10020C849086087
:1014D000C848006838B101263007CD490860BFF31D
:1014E0004F8FBFF36F8F01F071F8304670BD2DE95B
:1014F000F04105460E46C7480768C4480068001D0D
:10150000FFF74AFD50B9C148006890F82C1001203F
:101510008840BC4909688143BA480160681C38B9F1
:1015200036B1BA480168091DBB48FFF70FFD1AE044
:101530007C19B64800684460BC4207D2B3480168D1
:10154000091DB6480068FFF70DFD0CE0AF480168C3
:10155000091DB3480068FFF705FDB24800688442E2
:1015600001D2B0480460BDE8F081A3480068401C87
:10157000A149086070472DE9F04704460F464FF037
:10158000000954B900BF502080F31188BFF34F8F7A
:10159000BFF36F8F00BF00BFFEE70FB1012000E077
:1015A000002050B900BF502080F31188BFF34F8F47
:1015B000BFF36F8F00BF00BFFEE78F48006808B918
:1015C000012000E0002050B900BF502080F31188B6
:1015D000BFF34F8FBFF36F8F00BF00BFFEE7FFF772
:1015E000C4FF8C4806682068C5192068B04207D936
:1015F0002068A8420BD9B54209D94FF0010906E08D
:101600002068A84201D8B54201D94FF001092560F0
:10161000B9F1000F03D0A81B0021FFF768FFFFF707
:10162000F6FE8046B8F1000F07D14FF080507849A0
:101630000860BFF34F8FBFF36F8FBDE8F08770B5C1
:1016400004460025D4B16C48006808B9012000E0C8
:10165000002050B900BF502080F31188BFF34F8F96
:10166000BFF36F8F00BF00BFFEE7FFF77EFF0021D3
:101670002046FFF73CFFFFF7CAFE05463DB94FF095
:10168000805063490860BFF34F8FBFF36F8F70BD09
:101690002DE9F04107463E4656B900BF502080F381
:1016A0001188BFF34F8FBFF36F8F00BF00BFFEE7FE
:1016B00056480068864201D100241EE000F05FFF1A
:1016C000756900F083FF56480068854203D053488F
:1016D0000068854201D102240FE04F48854205D1C0
:1016E000B06A08B9032408E0022406E04E488542A7
:1016F00000D00DB9042400E001242046BDE8F081AB
:1017000070B5044600F03BFF14B94048006800E0A3
:1017100020460646F56A00F059FF284670BD2DE9BF
:10172000F041054600F086FF00BF5021EFF3118025
:1017300081F31188BFF34F8FBFF36F8F00BF044653
:1017400015B93248006800E028460746FE6A00BF27
:1017500084F3118800BF3046BDE8F0812DE9F047E1
:1017600080460D464FF00009202D01D2012000E0F7
:10177000002050B900BF502080F31188BFF34F8F75
:10178000BFF36F8F00BF00BFFEE7202D00D31F25E2
:1017900000F0F5FEB8F1000F02D11C48006800E02F
:1017A00040460446E66AAE4270D0B5420BD91748AF
:1017B000006884420DD015480068C06AA84208D865
:1017C0004FF0010905E011480068844201D14FF053
:1017D0000109E76AE562A06900F0004010B9C5F1AF
:1017E0002000A06107EB8701074A02EB81011DE0A1
:1017F00054000020580000206C000020440000200D
:101800003C0300204C000020940000203400002005
:1018100004ED00E048000020640300203C000020AC
:1018200038000020640000205003002060698842D6
:1018300001D1012000E00020E0B1201DFFF7ACFB4A
:1018400030B90120B840FE4909688143FC48016075
:1018500094F82C1001208840F94909680843F84998
:101860000860E16A01EB8101F64A02EB8100211D6B
:10187000FFF76CFBB9F1000F07D04FF08050F24931
:101880000860BFF34F8FBFF36F8F00BF00F09EFE65
:10189000BDE8F087ED48006818B10120EC49086008
:1018A00032E00020EA490860E5480068B0FA80F0BC
:1018B000C0F11F0101EB8100E24A52F8200008B19B
:1018C000012000E0002050B900BF502080F31188B3
:1018D000BFF34F8FBFF36F8F00BF00BFFEE701EB79
:1018E0008102D84B03EB820042685268426000F1EB
:1018F00008024368934202D14268526842604268DB
:10190000D268D44B1A6000BF704770B5054600F02E
:1019100036FE15B9CF48006800E028460446201D71
:10192000FFF73AFB78B9E06A00EB8000C54951F84F
:10193000200040B994F82C1001208840C049096863
:101940008143BF480160A06A18B104F11800FFF795
:1019500023FB211DC048FFF7F9FA00F037FEBF480E
:10196000006828B100F00BFEFFF71AFC00F02EFE15
:10197000B8480068844229D1B8480068D0B1B3485B
:10198000006808B9012000E0002050B900BF5020D5
:1019900080F31188BFF34F8FBFF36F8F00BF00BF7D
:1019A000FEE74FF08050A8490860BFF34F8FBFF3A8
:1019B0006F8F0BE0A8480068A9490968884203D1E5
:1019C0000020A449086001E0FFF764FF70BD10B576
:1019D00002460020114652B900BF502383F31188FC
:1019E000BFF34F8FBFF36F8F00BF00BFFEE79A4C6E
:1019F0004B69A34201D1012300E0002373B1994C4C
:101A00008B6AA34201D1012300E0002333B98B6A22
:101A10000BB9012300E0002303B1012010BD70B514
:101A200005462C4655B900BF502080F31188BFF3FE
:101A30004F8FBFF36F8F00BF00BFFEE774B38548C1
:101A4000006884422AD000F09AFD2046FFF7BFFFCD
:101A500010B3201DFFF7A0FA94F82C100120884045
:101A600077490968084376490860E16A01EB81011A
:101A7000744A02EB8100211DFFF768FA7549E06A9C
:101A80000968C96A884207D34FF080506E490860E0
:101A9000BFF34F8FBFF36F8F00F098FD70BD2DE93E
:101AA000F04106460027344656B900BF502080F367
:101AB0001188BFF34F8FBFF36F8F00BF00BFFEE7EA
:101AC00000F0B8FD00BF5021EFF3118081F31188C1
:101AD000BFF34F8FBFF36F8F00BF05462046FFF760
:101AE00076FF20B359480068E0B95A49E06A0968AE
:101AF000C96A884200D30127201DFFF74DFA94F8E8
:101B00002C10012088404E49096808434C49086060
:101B1000E16A01EB81014B4A02EB8100211DFFF7D5
:101B200015FA04E004F118014E48FFF70FFA00BF60
:101B300085F3118800BF3846BDE8F08170B523E019
:101B4000FFF713FD4848006808B9012000E00020B5
:101B50000546FFF75CFCBDB900F011FD4248C068C6
:101B6000C468201DFFF718FA3D480068401E3C4934
:101B700008603E480068401E3C49086000F026FDB1
:101B80002046FFF722FB00BF384800680028D7D165
:101B900070BD00BFFFF7D2FF2A4800680128F9D9BD
:101BA0004FF0805028490860BFF34F8FBFF36F8F0D
:101BB000F0E71CB52E4800210B468022CDE900102D
:101BC0002CA12E48FFF7BCFA0446012C15D100BF0A
:101BD000502080F31188BFF34F8FBFF36F8F00BF8A
:101BE0004FF0FF302649086001201C4908600020A2
:101BF0002449086000F01EFC10E0601C08B10120C0
:101C000000E0002050B900BF502080F31188BFF3DE
:101C10004F8FBFF36F8F00BF00BFFEE71CBD10B535
:101C200000BF502080F31188BFF34F8FBFF36F8F39
:101C300000BF00200949086000F08CFC10BD0000C6
:101C40004C0000209400002004ED00E06C00002017
:101C500058000020340000206403002050000020C1
:101C6000440000203C0300205003002040000020DE
:101C70006800002049444C4500000000931B000808
:101C80006400002048000020FB490868704770B5D8
:101C900000F0D0FC0025F8480468204670BDF748E5
:101CA00000687047014611B9F548006800E0084631
:101CB000024652B900BF502080F31188BFF34F8F06
:101CC000BFF36F8F00BF00BFFEE702F13400704723
:101CD00070B504460D4654B900BF502080F31188FA
:101CE000BFF34F8FBFF36F8F00BF00BFFEE7E44825
:101CF000016818312046FFF735F901212846FFF722
:101D0000F6FB70BD70B504460D46164654B900BFCB
:101D1000502080F31188BFF34F8FBFF36F8F00BF48
:101D200000BFFEE7D748006808B1012000E00020AE
:101D300050B900BF502080F31188BFF34F8FBFF31D
:101D40006F8F00BF00BFFEE745F00040CC49096837
:101D50008861CB48016818312046FFF7F7F8012168
:101D60003046FFF7C4FB70BD70B50646F068C46826
:101D700054B900BF502080F31188BFF34F8FBFF3D9
:101D80006F8F00BF00BFFEE704F11800FFF704F9F2
:101D9000BC480068A8B9201DFFF7FEF894F82C1085
:101DA00001208840B84909680843B7490860E16ADA
:101DB00001EB8101B54A02EB8100211DFFF7C6F856
:101DC00004E004F11801B248FFF7C0F8AC49E06A3A
:101DD0000968C96A884204D901250120AD49086013
:101DE00000E00025284670BD2DE9F04105460F466C
:101DF000A448006808B1012000E0002050B900BFED
:101E0000502080F31188BFF34F8FBFF36F8F00BF57
:101E100000BFFEE747F000402860EC6854B900BFFF
:101E2000502080F31188BFF34F8FBFF36F8F00BF37
:101E300000BFFEE72846FFF7AFF8201DFFF7ACF81C
:101E400094F82C10012088408F49096808438E4976
:101E50000860E16A01EB81018C4A02EB8100211DDF
:101E6000FFF774F88649E06A0968C96A884204D9AC
:101E7000012601208749086000E000263046BDE8C1
:101E8000F08150B900BF502181F31188BFF34F8F0B
:101E9000BFF36F8F00BF00BFFEE77F490968016095
:101EA000754909684160704770B504460D4654B9DC
:101EB00000BF502080F31188BFF34F8FBFF36F8FA7
:101EC00000BF00BFFEE755B900BF502080F3118866
:101ED000BFF34F8FBFF36F8F00BF00BFFEE700F06F
:101EE0004EFB654803682868401C08B9002619E0C5
:101EF000694920680968884204D06068984201D81E
:101F000001260FE06068181A2968884209D22868FB
:101F10006168591A401A28602046FFF7B2FF002670
:101F200000E0012600F052FB304670BD0120594907
:101F30000860704752490968886951490968C96A47
:101F4000C1F120014E4A12689161704770B5064692
:101F50000D4600F014FB4A480068406C88B9012027
:101F60004749096881F848005DB101212846FFF71B
:101F7000BEFA4FF0805049490860BFF34F8FBFF35E
:101F80006F8F00F023FB00F0FAFA3D480068446CC4
:101F90004CB126B100203A490968486403E0601E4C
:101FA00037490968486400203549096881F84800C4
:101FB00000F00CFB204670BD2DE9F0410746884635
:101FC00014461D4600F0DBFA2D48006890F84800E2
:101FD000022818D02A49096801F14400496CB94324
:101FE000016001202649096881F848005DB101219E
:101FF0002846FFF77CFA4FF0805028490860BFF36D
:102000004F8FBFF36F8F00F0E1FA00F0B8FA1CB108
:102010001B480068406C20601948006890F8480030
:10202000012801D1002608E01549096801F14400A2
:10203000496C21EA08010160012600201049096865
:1020400081F8480000F0C2FA3046BDE8F0812DE981
:10205000F04706460D46174698464FF0010A56B916
:1020600000BF502080F31188BFF34F8FBFF36F8FF5
:1020700000BF00BFFEE713E048000020440000203E
:10208000340000206C0000204C0000209400002050
:102090003C030020580000205C00002004ED00E01C
:1020A000344600F06CFAB8F1000F02D0606CC8F84A
:1020B000000094F84890022084F84800052F17D2B9
:1020C000DFE807F01503070B0D00606C2843606420
:1020D0000EE0606C401C60640AE0656408E0B9F1E1
:1020E000020F01D0656401E04FF0000A00E000BF7C
:1020F00000BFB9F1010F33D1201DFEF74DFF94F859
:102100002C1001208840A54909680843A3490860AC
:10211000E16A01EB8101A24A02EB8100211DFEF779
:1021200015FFA06A08B9012000E0002050B900BFE7
:10213000502080F31188BFF34F8FBFF36F8F00BF24
:1021400000BFFEE79749E06A0968C96A884207D973
:102150004FF0805094490860BFF34F8FBFF36F8FEB
:1021600000F034FA5046BDE8F0872DE9F84F0746F5
:102170000E4690469946DDF828B00120009057B9E8
:1021800000BF502080F31188BFF34F8FBFF36F8FD4
:1021900000BF00BFFEE700F04DFA3C4600BF5021F3
:1021A000EFF3118081F31188BFF34F8FBFF36F8F6F
:1021B00000BF0546B9F1000F02D0606CC9F80000FD
:1021C00094F848A0022084F84800B8F1050F17D20F
:1021D000DFE808F01503070B0D00606C3043606406
:1021E0000EE0606C401C60640AE0666408E0BAF1CE
:1021F000020F01D0666401E00020009000E000BF03
:1022000000BFBAF1010F3ED1A06A08B9012000E079
:10221000002050B900BF502080F31188BFF34F8FCA
:10222000BFF36F8F00BF00BFFEE760480068A8B92A
:10223000201DFEF7B1FE94F82C100120884057496C
:102240000968084355490860E16A01EB8101544A75
:1022500002EB8100211DFEF779FE04E004F1180174
:102260005348FEF773FE4F49E06A0968C96A88421D
:1022700009D9BBF1000F03D00120CBF8000002E028
:1022800001204C49086000BF85F3118800BF009809
:10229000BDE8F88F2DE9F04105460F4655B900BF5E
:1022A000502080F31188BFF34F8FBFF36F8F00BFB3
:1022B00000BFFEE700F0BEF92C4600BF5021EFF34F
:1022C000118081F31188BFF34F8FBFF36F8F00BF71
:1022D000064694F84880022084F84800606C401C50
:1022E0006064B8F1010F3BD1A06A08B9012000E099
:1022F000002050B900BF502080F31188BFF34F8FEA
:10230000BFF36F8F00BF00BFFEE728480068A8B981
:10231000201DFEF741FE94F82C10012088401F4933
:10232000096808431D490860E16A01EB81011C4A04
:1023300002EB8100211DFEF709FE04E004F1180103
:102340001B48FEF703FE1749E06A0968C96A88421C
:1023500006D917B10120386002E001201549086054
:1023600000BF86F3118800BFBDE8F08170B5054657
:1023700015B90C48006800E02846064600F0FFF852
:1023800096F84800022804D1002086F8480001246D
:1023900000E0002400F01AF9204670BD4C00002037
:1023A000940000203400002004ED00E06C000020C8
:1023B0003C03002058000020B9480068401C08B9C0
:1023C000012000E0002050B900BF502080F31188A8
:1023D000BFF34F8FBFF36F8F00BF00BFFEE700BF9B
:1023E000502080F31188BFF34F8FBFF36F8F00BF72
:1023F00000BFFEE7001F4FF080730360001F21F055
:1024000001030360001FA74B036014380260001F24
:102410006FF00203036020387047A34800684FF450
:102420007A71B0FBF1F0401E4FF0E02148610720C7
:10243000086170471CB59D4800689D49884201D0DD
:10244000012000E0002050B900BF502080F3118827
:10245000BFF34F8FBFF36F8F00BF00BFFEE79348FE
:1024600000689349491E884201D0012000E0002005
:1024700050B900BF502080F31188BFF34F8FBFF3D6
:102480006F8F00BF00BFFEE78A49084600780190C1
:10249000FF200A4610700846007800909DF8000062
:1024A00000F0F0009DF80020904201D1012000E0F2
:1024B000002050B900BF502080F31188BFF34F8F28
:1024C000BFF36F8F00BF00BFFEE79DF8000000F074
:1024D0005000794A10700720784A106009E0774868
:1024E0000068401E754A10609DF800004006000E0E
:1024F00000909DF8000000F080008028EFD06F4829
:10250000006800026D4A10601046008800F4E06028
:102510001060684A0198107064482030006840F4E8
:1025200070006249203108600846006840F0704041
:102530000860FFF772FF002059490860FDF74EFE62
:102540005F48006840F040405D490860FDF736FE96
:1025500000201CBD52480068B0F57A7F01D10120EF
:1025600000E0002050B900BF502080F31188BFF375
:102570004F8FBFF36F8F00BF00BFFEE7704700BFF4
:10258000502080F31188BFF34F8FBFF36F8F00BFD0
:1025900043480068401C424908600846006801281A
:1025A00013D14248001D0068C0B208B9012000E004
:1025B000002050B900BF502080F31188BFF34F8F27
:1025C000BFF36F8F00BF00BFFEE77047344800685D
:1025D00050B900BF502080F31188BFF34F8FBFF375
:1025E0006F8F00BF00BFFEE72D480068401E2C49DA
:1025F00008600846006820B9002080F3118800BFF9
:1026000000BF704710B500BF502080F31188BFF3A2
:102610004F8FBFF36F8F00BFFEF745FE20B14FF025
:1026200080502249091D086000BF002080F31188F6
:1026300000BF10BD70B5FDF709FE0446102C16D37F
:1026400004F1E02090F8F0531B480078854201DB4C
:10265000012000E0002050B900BF502080F3118815
:10266000BFF34F8FBFF36F8F00BF00BFFEE70F4870
:102670000C30006800F4E06010490968884201D815
:10268000012000E0002050B900BF502080F31188E5
:10269000BFF34F8FBFF36F8F00BF00BFFEE770BD6A
:1026A00070000020B92300080000002000ED00E0C9
:1026B00071C20F4100E400E07400002078000020A7
:1026C00034EF00E010B501469F4800E00068036861
:1026D0008B42FBD30246436813448B4204D14368C8
:1026E0004C682344436001460A464B68134404681F
:1026F000A34211D1954C03682468A34208D04B68CB
:102700000468646823444B6003681B680B6005E041
:102710008E4B1B680B6001E003680B60884200D0A1
:10272000016010BD30B54FF48843894800F00704BC
:102730002CB1C01D20F00700854C041B1B1B02465A
:10274000814C22600024804D6C60D018083820F045
:1027500007007E4C206000247C4D2D686C607B4D12
:102760002D682C601146441A4C60784C24680C602B
:10277000784D4C682C60784D4C682C604FF00044CC
:10278000764D2C6030BD2DE9F04104464FF0000835
:10279000FEF7EBFE6D48006808B9FFF7C3FF6F480E
:1027A0000068204000286BD1D4B1083404F0070041
:1027B000B0B104F00700C0F10800044404F00700C1
:1027C00008B9012000E0002050B900BF502080F37C
:1027D0001188BFF34F8FBFF36F8F00BF00BFFEE7BD
:1027E000002C4DD05C480068844249D8564E304693
:1027F000056801E02E462D686868A04202D228686C
:102800000028F7D151480068854239D0306800F17E
:102810000808286830606868001B102819D92F192B
:1028200007F0070008B9012000E0002050B900BF00
:10283000502080F31188BFF34F8FBFF36F8F00BF1D
:1028400000BFFEE76868001B78606C603846FFF7E1
:1028500039FF414968680968081A3F490860084615
:1028600000683C490968884203D23B4800683949FE
:1028700008603A4968680968084368600020286071
:10288000FEF7C5FD08F0070008B9012000E00020B0
:1028900050B900BF502080F31188BFF34F8FBFF3B2
:1028A0006F8F00BF00BFFEE74046BDE8F08170B506
:1028B00006463546002E3FD0083D2C462749606825
:1028C0000968084008B1012000E0002050B900BFAD
:1028D000502080F31188BFF34F8FBFF36F8F00BF7D
:1028E00000BFFEE7206808B9012000E0002050B9D1
:1028F00000BF502080F31188BFF34F8FBFF36F8F5D
:1029000000BF00BFFEE7154960680968084098B13C
:10291000206888B911496068096888436060FEF7DB
:1029200024FE0D496068096808440B490860204688
:10293000FFF7C8FEFEF76BFD70BD074800687047E3
:1029400004480068704770477C0000208400002025
:10295000780300208C0000208800002090000020D8
:10296000064C074D06E0E06840F0010394E80700DC
:1029700098471034AC42F6D3FDF70AFCA4290008AE
:10298000C429000802E008C8121F08C1002AFAD1B1
:1029900070477047002001E001C1121F002AFBD1DF
:1029A00070470000C42900080000002094000000C7
:1029B00084290008582A000894000020E44A0000F6
:1029C00094290008007A030A0000000000000000BB
:1029D00001020304060708090000000001020304C5
:1029E00001020304060708090000000000000000BF
:1029F00000000000000000000000000000000000D7
:102A000000000000000000000000000000000000C6
:102A100000000000000000000000000000000000B6
:102A200000000000000000000000000000000000A6
:102A300000000000AAAAAAAA0000000000000000EE
:102A40000000000000000000000000000000000086
:082A500000000000000000007E
:040000050800018965
:00000001FF
