:020000040800F2
:100000007837002005050008E1020008E302000837
:10001000E7020008EB020008EF0200080000000001
:100020000000000000000000000000009D0100082A
:10003000F302000800000000F1010008FD80000844
:100040001F0500081F0500081F0500081F05000800
:100050001F0500081F0500081F0500081F050008F0
:100060001F0500081F0500081F0500081F050008E0
:100070001F0500080D3800081F0500088D3800080E
:100080001F050008D53900081F050008793D000844
:100090008F3D0008BF3D00081F0500081F05000830
:1000A0001F0500081F0500081F0500081F050008A0
:1000B0001F0500083D400008914000081F0500088A
:1000C0001F0500081F0500081F0500081F05000880
:1000D0001F0500081F0500081F050008E735000878
:1000E0001F0500081F0500081F0500081F05000860
:1000F0001F0500081F0500081F0500081F05000850
:100100001F0500081F0500081F0500081F0500083F
:10011000F33700081F0500081F0500081F05000829
:100120001F0500084D4A0008AB3400081F050008F1
:100130001F0500081F0500081F0500084F3E0008A6
:10014000EF3D00081F3E00081F0500081F050008BE
:100150001F0500081F050008CB3400081F05000814
:100160001F0500081F0500081F0500081F050008DF
:100170001F0500081F0500081F0500081F050008CF
:100180001F0500081F050008DFF80CD008F0D6FB9B
:1001900000480047AF020008783700202A4B196852
:1001A0000868B0E8F04F80F30988BFF36F8F4FF015
:1001B000000080F3118870470000000006480068C6
:1001C000006880F3088862B661B6BFF34F8FBFF353
:1001D0006F8F00DF00BF00BF08ED00E0DFF80C000C
:1001E000016841F470010160704700BF88ED00E0D4
:1001F000EFF30980BFF36F8F134B1A681EF0100FD7
:1002000008BF20ED108A20E9F04F106008B44FF0CD
:10021000500080F31188BFF34F8FBFF36F8F06F04C
:10022000B3FE4FF0000080F3118808BC196808681D
:10023000B0E8F04F1EF0100F08BFB0EC108A80F34A
:100240000988BFF36F8F704788010020EFF30580A6
:100250007047000010B5002107E042F63C0200BFE5
:100260001300A2F10102FBD1491C8142F5DB10BD54
:1002700000B56420FFF7EEFF00BD10B502F08CFE64
:1002800002F0A2FD03F01AFB03F037F903F0D2F9F4
:1002900003F0C3FB03F036FC03F0D1FC03F0DAFEFD
:1002A00004F080FB4FF44870FFF7D4FF10BD10B589
:1002B000002006E0002100E0491CB1F57A7FFBDB5D
:1002C000401C06498842F5DBFFF7D7FFFFF7D0FF58
:1002D00005F0A7FA07F001F8002010BDA086010084
:1002E000704700BFFEE700BFFEE700BFFEE700BFAC
:1002F000FEE770470CB5002001900090764800683A
:1003000040F480307449086000BF7348006800F40E
:10031000003000900198401C0190009818B9019895
:10032000B0F5A04FF1D16C48006800F4003010B176
:100330000120009001E0002000900098012846D1A3
:1003400065484030006840F08050634940310860A3
:100350006248006840F44040604908605E480830E8
:1003600000685D49083108600846006840F40040B4
:1003700008600846006840F4A05008605848091F0B
:100380000860081F006840F08070091F086000BF07
:100390005148006800F000700028F9D040F2057064
:1003A000504908604C480830006820F003004A4972
:1003B000083108600846006840F00200086000BF8D
:1003C00045480830006800F00C000828F8D10CBD42
:1003D00010B54548006840F47000434908603E4845
:1003E000006840F001003C49086000203A490831AB
:1003F0000860394800683D490840374908603C4872
:10040000091D0860081F006820F48020091F08608B
:10041000002031490C310860FFF76CFF4FF000609D
:1004200031498039086010BD70B5002000220223D8
:1004300000240221284D08352D6805F00C0020B15C
:10044000042806D0082834D107E02A4D2A4E35600A
:1004500033E02A4D284E35602FE01F4D2D1D2D68AD
:10046000C5F380541C4D2D1D2D6805F03F0154B17E
:10047000224DB5FBF1F5184E361D3668C6F38816C9
:1004800005FB06F209E01B4DB5FBF1F5124E361DDA
:100490003668C6F3881605FB06F20F4D2D1D2D6834
:1004A000C5F301456D1C6B00B2FBF3F5124E3560D0
:1004B00003E0104D104E356000BF00BF064D0835FB
:1004C0002D68C5F303150E4E705D0B4D2D68C540AC
:1004D000094E356070BD00000038024000700040D9
:1004E00008544007003C024088ED00E0FFFFF6FEA4
:1004F000103000240024F4000000002000127A00D4
:10050000040000200648804706480047FEE7FEE753
:10051000FEE7FEE7FEE7FEE7FEE7FEE7FEE7FEE7B3
:10052000D10300088901000832490143324A1160B1
:10053000704770B5002100230F22C4781CB32E4CE5
:10054000246804F4E064C4F5E064C4F30721C1F155
:100550000404E3B20A4144789C40E1B28478144038
:1005600021430C07210E254C05786155047804F0D1
:100570001F050124AC4005786D11AD0005F1E025A3
:10058000C5F8004109E0047804F01F050124AC40DF
:100590001B4D0678761145F8264070BD194A0A4071
:1005A0000243154B1B1F1A60704739B1124A121DC6
:1005B00012680243104B1B1D1A6006E00E4A121D02
:1005C000126882430C4B1B1D1A607047042808D127
:1005D0004FF0E021096941F004014FF0E022116180
:1005E00007E04FF0E021096921F004014FF0E0221B
:1005F000116170470000FA050CED00E000E400E036
:1006000080E100E080FFFF1F10B50446FE488442F1
:1006100009D10121480601F085FA00214FF0007050
:1006200001F080FA08E00121880601F07BFA002140
:100630004FF0806001F076FA10BD30B50246002020
:100640000023146824F002041460146844F00104C8
:10065000146000E05B1C546804F001041CB94FF600
:10066000FF74A342F6D1546804F001040CB90020D1
:100670006CE08C79012C04D1146844F0800414607F
:1006800003E0146824F080041460CC79012C04D1B8
:10069000146844F04004146003E0146824F040043B
:1006A00014600C7A012C04D1146844F02004146006
:1006B00003E0146824F0200414604C7A012C04D167
:1006C000146844F01004146003E0146824F010046B
:1006D00014608C7A012C04D1146844F0080414606E
:1006E00003E0146824F008041460CC7A012C04D1CF
:1006F000146844F00404146003E0146824F0040453
:1007000014608C78A407CD7844EA05640D7944EA36
:1007100005444D7944EA05540D886D1E2C43D4617F
:10072000146824F001041460002300E05B1C54688A
:1007300004F001041CB14FF6FF74A342F6D15468D3
:1007400004F001040CB1002000E0012030BD10B520
:100750000021837A012202FA03F1AC4A126842F0C6
:100760000102AA4B1A60A94A1C3212688A43A74B9D
:100770001C331A60027BCAB9A44A0C3212688A433D
:10078000A24B0C331A604288C38842EA03439F4A53
:100790004032847A42F834300288838842EA034344
:1007A0009A4A4032847A02EBC4025360027B012AE7
:1007B00019D1964A0C3212680A43944B0C331A60D2
:1007C0004288038842EA0343904A4032847A42F8DE
:1007D0003430C288838842EA03438C4A4032847AA8
:1007E00002EBC4025360C27A3AB9884A121D1268F9
:1007F0008A43864B1B1D1A6006E0844A121D12684C
:100800000A43824B1B1D1A60028932B97F4A143297
:1008100012688A437D4B14331A600289012A06D17B
:100820007A4A143212680A43784B14331A60427BB6
:10083000012A06D1754A1C3212680A43734B1C33D5
:100840001A60724A126822F00102704B1A6010BDE1
:1008500000218171C171017241728172C172817016
:10086000C170032101710221417101210180704792
:100870006649096841F00101644A1160114609683E
:1008800043F60E729143614A11601146096841EACC
:10089000002111601146096821F0010111607047C3
:1008A00021B1026842F48032026003E0026822F45F
:1008B000803202607047E1B1026842F0800202605B
:1008C0004FF4C272125842F480734FF4C272135044
:1008D0004FF4CA72125842F480734FF4CA72135024
:1008E0004FF4D272125842F480734FF4D272135004
:1008F0001BE0026822F0800202604FF4C2721258BC
:1009000022F480734FF4C27213504FF4CA7212581B
:1009100022F480734FF4CA7213504FF4D2721258FB
:1009200022F480734FF4D2721350704710B5024610
:100930000020936803F08063B3F1806F00D110E072
:10094000936803F00063B3F1006F01D1012008E068
:10095000936803F08053B3F1805F01D1022000E07F
:100960000420042879D002F5C07303EB00131B6840
:1009700003F0010402F5C07303EB00131C600B7A53
:100980007BB94B7A0C8843EA445302F5C07404EBFC
:1009900000142468234302F5C07404EB00142360A0
:1009A00010E00B7A4C6843EAC4034C7A234302F507
:1009B000C07404EB00142468234302F5C07404EBF4
:1009C000001423608B7A03F00F038B7202F5C0735F
:1009D00003EB00135B6823F00F0402F5C07303EB15
:1009E00000135C6002F5C07303EB00135B688C7A44
:1009F000234302F5C07404EB001463608B7B1C0678
:100A00004B7B44EA034403E000640040006600407E
:100A10000B7B44EA0323CC7A234302F5C07404EB36
:100A20000014A3608B7C1C064B7C44EA03440B7CC3
:100A300044EA0323CC7B234302F5C07404EB001487
:100A4000E36002F5C07303EB00131B6843F001047D
:100A500002F5C07303EB00131C6010BD10B5024615
:100A6000002321B1012907D002290FD109E09068A4
:100A7000F94C00EA04030BE09068F84C00EA040328
:100A800006E09068F64C00EA040301E0002300BF92
:100A900000BFF44C181BA34216D007DC83B16FF0E3
:100AA0008060184470B1022818D111E0B0F5007FC1
:100AB00010D0ED4C204448B1B0F5003F0ED10BE012
:100AC00002230DE000230BE0002309E0002307E0F0
:100AD000012305E0012303E0012301E0002300BF1F
:100AE00000BFD8B210BD21B1012907D002290FD112
:100AF00009E0826842F0800282600AE0826842F483
:100B00000042826005E0826842F40002826000E0F8
:100B100000BF00BF704710B500F5D87303EB011399
:100B20001B6803F004031372137A53B900F5D873EA
:100B300003EB01131B6840F2FF7404EA5353136084
:100B400009E000F5D87303EB01131B686FF06044F4
:100B500004EAD303536000F5D87303EB01131B6859
:100B600003F00203537200F5D87303EB01135B68C3
:100B700003F00F03937200F5D87303EB01135B6866
:100B80001B0AD37400F5D87303EB01139B68D3726F
:100B900000F5D87303EB01139B681C0A147300F56E
:100BA000D87303EB01139B681C0C547300F5D873C6
:100BB00003EB01139B681B0E937300F5D87303EBD3
:100BC0000113DB68D37300F5D87303EB0113DB6803
:100BD0001C0A147400F5D87303EB0113DB681C0CBA
:100BE000547400F5D87303EB0113DB681B0E937488
:100BF00021B9C36843F02003C36003E0036943F0F5
:100C00002003036110BD21B9C26842F02002C26016
:100C100003E0026942F020020261704702460020B0
:100C200019B9D36803F0030006E0012903D1136961
:100C300003F0030000E00020704710B502460B46A9
:100C400000204FF6FF71BBB9146824F0020444F091
:100C50000104146000E0491E546804F00304012CF0
:100C600001D00029F7D1546804F00304012C01D00D
:100C7000002032E0012030E0012B13D1146824F071
:100C80000304146000E0491E546804F003040CB12E
:100C90000029F8D1546804F003040CB100201CE0D2
:100CA00001201AE0022B17D1146824F0010444F04B
:100CB0000204146000E0491E546804F00304022C8E
:100CC00001D00029F7D1546804F00304022C01D0AC
:100CD000002002E0012000E0002010BD01460020BD
:100CE0000A6822F0010242F002020A604A6802F039
:100CF0000302022A00D10120704701464FF6FF721D
:100D000000200B6823F002030B6000E0521E4B68CA
:100D100003F00203022B01D1002AF7D14B6803F044
:100D20000203022B00D001207047014600208A698F
:100D300002F070007047014600208A69100E70476B
:100D4000014600208A69C2F3074070471AB143691F
:100D50000B43436102E043698B434361704710B525
:100D60000246002001F4700343B19369C1F31304F8
:100D700023400BB101202DE000202BE001F0807317
:100D800043B15368C1F3130423400BB1012021E0A8
:100D900000201FE001F0006343B19368C1F3130426
:100DA00023400BB1012015E0002013E001F0007397
:100DB00043B1D368C1F3130423400BB1012009E010
:100DC000002007E01369C1F3130423400BB1012095
:100DD00000E0002010BD0022244B994202D10023E4
:100DE000836111E0C1F3130201F000730BB1C26023
:100DF0000AE001F080630BB1026105E001F00063DD
:100E00000BB1826000E0426070470246002002EAB7
:100E100001030BB1012000E00020704770B50446CB
:100E20000D46002660692840002872D0B5F5807F05
:100E300069D01DDC082D42D006DC012D2DD0022DFD
:100E400031D0042D7FD134E0102D3ED0202D42D062
:100E5000402D78D145E000000300000400030008A5
:100E600000000310000100080001FFF77000F030DF
:100E7000B5F5004F61D009DCB5F5007F4AD0B5F576
:100E8000806F4DD0B5F5006F5DD150E0B5F5803F76
:100E90002DD0B5F5003F56D12FE0A0685549FFF79A
:100EA000B4FF064651E0E0680321FFF7AEFF0646B7
:100EB0004BE0E0680821FFF7A8FF064645E0E06840
:100EC0001021FFF7A2FF06463FE020690321FFF74C
:100ED0009CFF064639E020690821FFF796FF064689
:100EE00033E020691021FFF790FF06462DE060688F
:100EF0000821FFF78AFF064627E060681021FFF708
:100F000084FF064621E0A0690121FFF77EFF064627
:100F10001BE01BE0A0690221FFF777FF064614E003
:100F2000A0690421FFF771FF06460EE00BE0A069FF
:100F30007021FFF76AFF064607E060680421FFF7AB
:100F400064FF064601E0002600BF00E000263046B0
:100F500070BDB1F5007F3AD00FDC202928D006DC27
:100F600001291CD004291DD0082940D11DE04029A9
:100F700021D0B1F5807F3AD126E0B1F5004F31D0D4
:100F800006DCB1F5806F25D0B1F5006F2FD124E0DC
:100F9000B1F5803F12D0B1F5003F28D111E0154ADC
:100FA000826025E00822C26022E01022C2601FE0B9
:100FB000082202611CE01022026119E0082242604E
:100FC00016E01022426013E00422426010E0042286
:100FD00042600DE0042242600AE0002282610422A5
:100FE000426005E0002282610422426000E000BF0E
:100FF00000BF704701010100016821F0010101609B
:101000000021016041608160C16001612121416175
:10101000DB49884204D13D21D94A103A91608CE0E5
:10102000D7491831884205D14FF47461D44A103A37
:10103000916082E0D2493031884205D14FF4741179
:10104000CF4A103A916078E0CD494831884205D1C5
:101050004FF07461CA4A103A91606EE0C84960313D
:10106000884204D1C749C64A103AD16065E0C449F4
:101070007831884204D1C449C14A103AD1605CE059
:10108000BF499031884204D1C049BD4A103AD1606D
:1010900053E0BB49A831884205D14FF03D51B84AD1
:1010A000103AD16049E0BA49884204D13D21B84A9A
:1010B000083A116041E0B6491831884205D14FF431
:1010C0007461B34A083A116037E0B149303188425F
:1010D00005D14FF47411AE4A083A11602DE0AC49C5
:1010E0004831884205D14FF07461A94A083A11602D
:1010F00023E0A7496031884204D1A249A44A121FC3
:1011000011601AE0A2497831884204D19E49A04A70
:10111000121F116011E09E499031884204D19B4911
:101120009B4A121F116008E09949A831884204D1F6
:101130004FF03D51964A121F1160704710B50022C2
:101140000268944B1A40CC680B6823434C692343D4
:101150008C692343CC6923430C6A23434C6A2343A1
:101160008C6A23434C6B23438C6B23431A430260EA
:10117000426922F00702D1E90B3423431A4342614A
:101180000B6943604B6883608B68C36010BD0021AE
:10119000016041608160C160016141618161C16143
:1011A000016241628162C162016341638163704790
:1011B00021B1026842F00102026003E0026822F0FD
:1011C00001020260704721B1026842F400420260ED
:1011D00003E0026822F400420260704721B1026815
:1011E00042F02002026003E0026822F02002026066
:1011F0007047416070470146486880B2704722B12D
:10120000036843F40023036003E0036823F400232E
:1012100003600161704721B1026842F480220260DC
:1012200003E0026822F48022026070470AB1016183
:1012300000E0C1607047014600200A6802F4002205
:101240000AB1012000E000207047014600200A6832
:1012500002F001020AB1012000E0002070470146BF
:1012600000204A6902F03800704730B503460A464C
:1012700000200024464DAB4202D24149103901E022
:101280004349103902F000550DB14C6800E00C687C
:10129000414D2C4004EA02050DB1012000E0002080
:1012A00030BD02463A4B9A4202D23548103801E02E
:1012B0003748103801F000531BB1374B0B40C36067
:1012C00002E0354B0B408360704710B501F080039E
:1012D0004BB122B1436943F08003436103E04369AA
:1012E00023F08003436180290BD02AB1036801F009
:1012F0001E042343036004E0036801F01E04A343BB
:10130000036010BD70B50246002000240025204E69
:10131000B24202D21A4B103B01E01D4B103B1F4E54
:101320000E4036B11E2606EAD124166806EA0405E8
:1013300002E0566906F0800501F000560EB15C68C7
:1013400000E01C68144E344004EA010616B10DB1E9
:10135000012000E0002070BD02460D4B9A4202D2EF
:101360000748103801E00A48103801F000531BB15B
:10137000094B0B40C36002E0074B0B408360704792
:10138000106002403D000020400F002000003D2082
:10139000106402403F801CF07D0F7D0F3C0F3C0F1E
:1013A00010B504469848844208D10121084600F04F
:1013B00086FB0021012000F082FB76E09348844206
:1013C00008D10121022000F07AFB0021022000F068
:1013D00076FB6AE08E48844208D10121042000F0A7
:1013E0006EFB0021042000F06AFB5EE08948844225
:1013F00008D10121082000F062FB0021082000F044
:101400005EFB52E08448844208D10121102000F0A4
:1014100056FB0021102000F052FB46E07F4884423A
:1014200008D10121202000F04AFB0021202000F0FB
:1014300046FB3AE07A48844208D10121402000F07E
:101440003EFB0021402000F03AFB2EE0754884422C
:1014500008D10121802000F032FB0021802000F023
:101460002EFB22E07048844208D10121801500F053
:1014700026FB0021A01500F022FB16E06B488442F9
:1014800008D10121401500F01AFB0021601500F081
:1014900016FB0AE06648844207D10121001500F0DE
:1014A0000EFB0021201500F00AFB10BDF0B50A4626
:1014B00000210023002400BF3DE0012505FA01F3CF
:1014C000156805EA03049C4234D105684F000326E1
:1014D000BE40B543056015794E00B54006683543FA
:1014E00005601579012D02D01579022D16D1856878
:1014F0004F000326BE40B543856055794E00B54088
:10150000866835438560456801268E40B543456051
:10151000456896798E40B6B235434560C5684F0040
:101520000326BE40B543C560D5794E00B540C668B8
:101530003543C560491C1029BFD3F0BD4FF6FF717C
:1015400001600021017141718171C171704708B55D
:101550004FF480320092009A0A430092009AC261CE
:10156000C161009AC261C2690092C269009208BD5D
:101570000246002013690B400BB1012000E000205F
:1015800070470146086980B27047024600205369DF
:101590000B400BB1012000E0002070470146486974
:1015A00080B2704701837047418370470AB101835D
:1015B00000E0418370474161704742694A4042619F
:1015C0007047F0B5002300244D07ED0E02FA05F335
:1015D000CE1000F1200555F826504E07F70E0F26C5
:1015E000BE40B543CF1000F1200646F82750CE107C
:1015F00000F1200555F8265045EA0304CE1000F10D
:10160000200545F82640F0BD0000024000040240DD
:1016100000080240000C024000100240001402408A
:1016200000180240001C024000200240002402403A
:1016300000280240F948006840F00100F7490860BE
:101640000020F64908310860F4480068F449084071
:10165000F2490860F348091D0860F348EF498431F6
:101660000860F0481038091D0860EC48006820F454
:101670008020EA4908600020E8490C310860E74909
:101680008C31086070470021E44A921C11701146A9
:101690000870704710B501460022002300204A114F
:1016A000012A02D1DD4C236808E0022A03D1DB4C79
:1016B0007034236802E0D94C7434236801F01F02AF
:1016C000012494401C400CB1012000E0002010BD1A
:1016D00038B5002000900024002500BF3120FFF71E
:1016E000D9FF05460098401C00900098B0F5A04F27
:1016F00001D0002DF2D03120FFF7CCFF08B101243A
:1017000000E00024204638BD01460020C34A10688E
:1017100020F0F80040EAC10010607047C34908603B
:1017200070470021BD4A703211701170012802D03B
:1017300004280AD104E00121B84A7032117005E092
:101740000521B64A7032117000E000BF00BF70473B
:10175000B7490860704770B5049C41EA82150126BC
:10176000C6EB530645EA0645054345EA0465AB4E1C
:10177000361D356070BDAD4908667047820142EA8A
:101780000172A64B84331A607047A8498866704777
:1017900010B5830143EA016343EA02739F4C883426
:1017A000236010BDA14908677047A049C86470470D
:1017B00002460020994B0833186820F0EC6042EA9A
:1017C00001031843954B0833186070470246002008
:1017D000924B0833186820F0784042EA010318431E
:1017E0008E4B083318607047014600208B4A083240
:1017F000106820F0030008431060704787480830E5
:10180000006800F00C00704701460020834A08324F
:10181000106820F0F0000843106070470146002077
:101820007E4A0832106820F4E05008431060704788
:1018300001460020794A0832106820F4604040EAEE
:10184000C10010607047F0B500210022002402257D
:1018500000260223714F08373F6807F00C0121B1C1
:10186000042905D0082937D105E0724F076036E01A
:10187000714F076033E0694F3F1D3F68C7F38056E3
:10188000664F3F1D3F6807F03F036EB16A4FB7FBDD
:10189000F3F7DFF888C10CF1040CDCF800C0CCF3DE
:1018A000881C07FB0CF40CE0624FB7FBF3F7DFF882
:1018B0006CC10CF1040CDCF800C0CCF3881C07FBF5
:1018C0000CF4564F3F1D3F68C7F301477F1C7D0056
:1018D000B4FBF5F7076002E0564F076000BF00BF9A
:1018E0004E4F08373F6807F0F0010909534F7A5C03
:1018F0000768D7404760494F08373F6807F4E05111
:10190000890A4E4F7A5C4768D7408760434F083753
:101910003F6807F46041490B484F7A5C4768D740FD
:10192000C760F0BD002100F44072B2F5407F0AD1DB
:101930003A4A0832116821F4F811414A0240114331
:10194000364A08321160354A70321268C0F30B0310
:101950001A43324B70331A60704735494439086076
:10196000704733494039086070473649086070470E
:1019700001460020294A8C32106820F01F004A1EC0
:101980001043264A8C321060704701460020234ADB
:101990008C32106820F4F8504A1E40EA02201F4A98
:1019A0008C3210607047014600201C4A8C3210684F
:1019B00020F4401008431060704701460020174A89
:1019C0008C32106820F440000843106070470146D4
:1019D0000020124A8C32106820F440300843106016
:1019E000704719490860704739B10C4A30321268A3
:1019F00002430A4B30331A6006E0084A303212685C
:101A00008243064B30331A607047F9B1034A3432CF
:101A100012680243014B34331A601CE00038024064
:101A2000FFFFF6EA1030002400300020000047429B
:101A3000800E47420024F40000127A0014000020B7
:101A4000FFFCFF0F5C014742E01147428F4A1268DA
:101A500082438E4B1A60704739B18C4A121D12684E
:101A600002438A4B1B1D1A6006E0884A121D126849
:101A70008243864B1B1D1A60704739B1834A0C3272
:101A800012680243814B0C331A6006E07F4A0C3225
:101A9000126882437D4B0C331A60704739B17B4A20
:101AA000103212680243794B10331A6006E0774A0D
:101AB000103212688243754B10331A60704739B187
:101AC000724A243A12680243704B243B1A6006E0C3
:101AD0006E4A243A126882436C4B243B1A6070476A
:101AE00039B16A4A203A12680243684B203B1A60B7
:101AF00006E0664A203A12688243644B203B1A6033
:101B0000704739B1614A1C3A126802435F4B1C3B73
:101B10001A6006E05D4A1C3A126882435B4B1C3B2C
:101B20001A60704739B1594A143A12680243574B48
:101B3000143B1A6006E0554A143A12688243534B2C
:101B4000143B1A60704739B1504A103A1268024388
:101B50004E4B103B1A6006E04C4A103A1268824322
:101B60004A4B103B1A60704739B1484A1C32126820
:101B70000243464B1C331A6006E0444A1C3212688A
:101B80008243424B1C331A60704739B13F4A2032BE
:101B9000126802433D4B20331A6006E03B4A203274
:101BA00012688243394B20331A60704739B1374A83
:101BB000243212680243354B24331A6006E0334A5C
:101BC000243212688243314B24331A60704739B192
:101BD0002E4A2C32126802432C4B2C331A6006E03A
:101BE0002A4A2C3212688243284B2C331A607047E1
:101BF00039B1264A303212680243244B30331A601E
:101C000006E0224A303212688243204B30331A6099
:101C10007047012808D11D493C31096841F008018D
:101C20001A4A3C32116007E018493C31096821F03A
:101C30000801164A3C321160704739B1134A273AFD
:101C400012780243114B273B1A7006E00F4A273ADD
:101C5000127882430D4B273B1A7070470B48403077
:101C6000006840F0807009494031086070470146C3
:101C70000020064A283A12680A400AB1012000E012
:101C800000207047014926390870704734380240F7
:101C900010B50446FE48844208D101210846FFF7EA
:101CA00052FF00210120FFF74EFF9DE0B4F1804F6D
:101CB00008D101210846FFF735FF00210120FFF779
:101CC00031FF91E0F348844208D101210220FFF75F
:101CD00029FF00210220FFF725FF85E0EE4884421E
:101CE00008D101210420FFF71DFF00210420FFF788
:101CF00019FF79E0E948844208D101210820FFF763
:101D000011FF00210820FFF70DFF6DE0E448844239
:101D100008D101211020FFF705FF00211020FFF757
:101D200001FF61E0DF48844208D101212020FFF754
:101D3000F9FE00212020FFF7F5FE55E0DA48844245
:101D400008D101210220FFF7FEFE00210220FFF74B
:101D5000FAFE49E0D548844209D101210804FFF781
:101D6000F2FE00214FF48030FFF7EDFE3CE0D0485A
:101D7000844209D101214804FFF7E5FE00214FF418
:101D80000030FFF7E0FE2FE0CA48844209D101216C
:101D90008804FFF7D8FE00214FF48020FFF7D3FE20
:101DA00022E0C548844208D101214020FFF7BAFE55
:101DB00000214020FFF7B6FE16E0C048844208D15B
:101DC00001218020FFF7AEFE00218020FFF7AAFE50
:101DD0000AE0BB48844207D101218015FFF7A2FE2B
:101DE0000021A015FFF79EFE10BD00220288A84B1F
:101DF00098420ED0AC4B98420BD0B0F1804F08D037
:101E0000A44B984205D0A44B984202D0A34B9842D1
:101E100004D14FF68F731A404B881A43A04B984257
:101E200007D0A04B984204D04FF6FF431A400B89CD
:101E30001A4302804B68C3620B880385944B984217
:101E400002D0994B984201D18B7A03860123838279
:101E500070474FF0FF3141600021018001814180D6
:101E6000817270470185828270470A46002101888D
:101E70004FF68F73194011430180704741627047DC
:101E8000C16270470146486A70470146088D704735
:101E900021B1028842F00202028004E002884FF67B
:101EA000FD731A400280704721B1028842F004029B
:101EB000028004E002884FF6FB731A4002807047EC
:101EC00021B1028842F08002028004E002884FF6CD
:101ED0007F731A400280704702884FF6F7731A40EA
:101EE000028002880A430280704702884FF6FF434F
:101EF0001A40028002880A430280704721B102889A
:101F000042F00102028004E002884FF6FE731A409C
:101F10000280704770B5002400220023058C4FF624
:101F2000FE7635400584028C8388048B4FF68F75CE
:101F30002C40B51E2C400D882C43751E2A408D89DF
:101F40002A434D882A43524DA84202D0564DA842FA
:101F500013D14FF6F7752A40CD892A434FF6FB750A
:101F60002A408D882A434FF6FF652B404FF6FF55D8
:101F70002B400D8A2B434D8A2B43838004838D682D
:101F80004563028470BD70B5002400220023058CD7
:101F90004FF6EF7635400584028C8388048B48F633
:101FA000FF752C404FF6FF452C400D884FF6FF760D
:101FB00006EA05252C434FF6DF752A408D8906EA8F
:101FC00005152A434D8806EA05152A43304DA842D7
:101FD00002D0354DA8421DD14FF67F752A40CD89DC
:101FE0004FF6FF7606EA05152A434FF6BF752A40DD
:101FF0008D8806EA05152A434FF6FF352B404FF230
:10200000FF752B400D8A06EA85052B434D8A06EAAB
:1020100085052B43838004838D688563028470BDAE
:1020200070B5002400220023058C4FF6FF66354072
:102030000584028C8388848B4FF68F752C404FF675
:10204000FC752C400D882C434FF6FF552A408D8996
:102050004FF6FF7606EA05252A434D8806EA052550
:102060002A430B4DA84202D00F4DA84238D14FF25F
:10207000FF752A40CD894FF6FF7606EA05252A43EB
:102080004FF6FF352A408D8806EA05252A4319E0D8
:10209000000001400004004000080040000C004027
:1020A00000100040001400400004014000400140C6
:1020B000004401400048014000180040001C00405E
:1020C000002000404EF6FF752B404DF6FF752B406B
:1020D0000D8A06EA05152B434D8A06EA05152B43A2
:1020E000838084838D68C563028470BD70B50022CF
:1020F00000230024058C4EF6FF7635400584038CC2
:102100008488828B48F6FF752A404FF6FF452A40A7
:102110000D884FF6FF7606EA05252A434DF6FF7532
:102120002B408D8906EA05352B434D8806EA053597
:102130002B43FE4DA84202D0FD4DA84208D14BF6DC
:10214000FF752C400D8A4FF6FF7606EA85152C4365
:10215000848082838D680564038470BD00210180C2
:102160004180818081608181C1810182418270478B
:1021700070B50346002000241846183001258D4014
:10218000ACB21D8CA5431D8409B108290AD100EB0E
:10219000610005684FF68F76354005600568154388
:1021A00005600FE00D1FC5F34E052844056848F68D
:1021B000FF763540056005684FF6FF7606EA022691
:1021C0003543056070BD4163704781637047C163EB
:1021D0007047016470470A460021018B4FF68F73E8
:1021E00019401143018370470A460021018B48F6CC
:1021F000FF7319404FF6FF7303EA0223194301836B
:1022000070470A460021818B4FF68F7319401143A6
:10221000818370470A460021818B48F6FF7319407D
:102220004FF6FF7303EA02231943818370470A467E
:102230000021018B4FF6F77319401143018370475A
:102240000A460021018B4FF2FF7319404FF6FF73CE
:1022500003EA02231943018370470A460021818B58
:102260004FF6F77319401143818370470A460021E6
:10227000818B4FF2FF7319404FF6FF7303EA02237D
:102280001943818370470A460021018B4FF6FB7387
:1022900019401143018370470A460021018B4FF614
:1022A000FF3319404FF6FF7303EA022319430183FA
:1022B00070470A460021818B4FF6FB73194011438A
:1022C000818370470A460021818B4FF6FF33194006
:1022D0004FF6FF7303EA02231943818370470A46CE
:1022E0000021018B4FF67F73194011430183704722
:1022F0000A460021018BC1F30E014FF6FF7303EA7A
:1023000002231943018370470A460021818B4FF64F
:102310007F7319401143818370470A460021818BE6
:10232000C1F30E014FF6FF7303EA022319438183C1
:1023300070470A460021018C4FF6FD731940114386
:10234000018470470A460021018C4FF6F77319404B
:102350001143018470470A460021018C4FF6DF7358
:1023600019404FF6FF7303EA0213194301847047C3
:102370000A460021018C4FF67F7319404FF6FF7318
:1023800003EA02131943018470470A460021018CB5
:102390004FF6FF5319404FF6FF7303EA0223194328
:1023A000018470470A460021018C4FF2FF731940E7
:1023B0004FF6FF7303EA02231943018470470A466C
:1023C0000021018C4DF6FF7319404FF6FF7303EAAD
:1023D000023319430184704730B5002301248C4037
:1023E000A3B2048C9C430484048C02FA01F5ADB2C0
:1023F0002C43048430BD30B5002304248C40A3B2A8
:10240000048C9C430484048C02FA01F5ADB22C4385
:10241000048430BD828B4FF2FF331A408283828B5B
:102420004FF6FF7303EA01231A4382837047F0B526
:102430000C461546002100220026078C4EF6FF7C34
:1024400007EA0C070784818B028C4FF6FF7707EAB7
:10245000043640F6FF4739404FF6FF7707EA052775
:1024600039434FF6FF7707EA0337394345F6FF77DD
:102470003A4046F480573A4381830284F0BD828B10
:102480004FF6F3731A408283828B0A43828370472C
:10249000F0B50C461546002100220026078C4FF6A9
:1024A000FF6C07EA0C070784818B028C4FF6FF77DD
:1024B00007EA04264FF60C7739404FF6FF7707EA14
:1024C00003172F4339434FF2FF573A4046F48077C2
:1024D0003A4381830284F0BD028B4FF2FF331A40EE
:1024E0000283028B4FF6FF7303EA01231A43028330
:1024F0007047F0B50C461546002100220026078CD7
:102500004FF6EF7C07EA0C070784018B028C4FF62D
:10251000FF7707EA041640F6FF4739404FF6FF778A
:1025200007EA033739434FF6FF7703E00000014025
:102530000004014007EA052739434FF65F773A4028
:1025400046F010073A4301830284F0BD028B4FF638
:10255000F3731A400283028B0A4302837047F0B57B
:102560000C46154600210022068C4FF6FE773E40B1
:102570000684018B028C4FF60C7631407E1C06EAF5
:1025800003162E4331434FF6F576324044F00106F0
:10259000324301830284F0BD70B505460C462088A5
:1025A00050B92389A28861882846FFF7D8FFE188BF
:1025B0002846FFF7CBFF25E0208804280AD123898D
:1025C000A28861882846FFF794FFE1882846FFF734
:1025D00083FF17E0208808280AD12389A288618810
:1025E0002846FFF755FFE1882846FFF748FF09E036
:1025F0002389A28861882846FFF719FFE1882846C9
:10260000FFF708FF70BD002101804180012181801A
:102610000021C180018170472DE9F04105460C463B
:1026200000260127608808B9022600E00026A0885D
:10263000012801D1022700E001272088A0B92389C1
:10264000A28861882846FFF78AFFE1882846FFF7BD
:102650007DFF23893A4631462846FFF74AFFE18845
:102660002846FFF739FF13E02389A28861882846AE
:10267000FFF73FFFE1882846FFF72EFF23893A4600
:1026800031462846FFF76BFFE1882846FFF75EFFDB
:10269000BDE8F0810146486B70470146886B704782
:1026A0000146C86B70470146086C70470A884B8822
:1026B0001A438B881A43CB881A430B891A434B89D8
:1026C0001A438B891A43A0F84420704700210180E7
:1026D00041808180C180018141818181704731B118
:1026E000B0F8442042F40042A0F8442005E0B0F8DD
:1026F0004420C2F30E02A0F84420704721B1828822
:1027000042F00402828004E082884FF6FB731A4094
:102710008280704721B1828842F00102828004E009
:1027200082884FF6FE731A40828070471AB18389FF
:102730000B43838102E083898B43838170478182CD
:10274000704702460020138A0B400BB1012000E0C5
:1027500000207047CA430282704730B5024600200D
:1027600000230024158A05EA0103958905EA01047E
:1027700013B10CB1012000E0002030BDCA43028239
:10278000704741EA0203A0F8483070471AB18389C4
:102790000B43838102E083898B438381704721B19E
:1027A000828842F00802828004E082884FF6F77344
:1027B0001A408280704701894FF6F87211400181FA
:1027C00070470A46002101894FF68F731940114363
:1027D0000181704730B504460D4629462046FFF773
:1027E000F0FF208940F00700208130BD2DE9F04145
:1027F00004460D4616461F46602D06D13B46012273
:1028000031462046FFF775FE05E03B460122314682
:102810002046FFF7A4FE29462046FFF7D2FF208975
:1028200040F007002081BDE8F08130B50C46002162
:102830000189C9B24FF6FF7505EA03251543254303
:102840002943018130BD2DE9F04105460E4617466A
:102850009846002443463A4631462846FFF7E5FFAE
:102860002C894FF6F870044044F007044FF68F703F
:10287000044044F070042C81BDE8F081F0B50446BA
:102880000D4616461F463B46324629462046FFF770
:10289000CCFF208940F480402081F0BD82884FF633
:1028A0008F731A40828082880A438280704702892F
:1028B0004FF6F8731A40028102890A430281704779
:1028C00002894FF67F731A40028102890A4302810E
:1028D0007047F0B50C4615461E4600210022002325
:1028E0000189028B038C4FF6F877394021434FF66C
:1028F000FC473A4040F201173A434FF6DD773B4040
:102900004FF6FF7707EA06172F433B430181028307
:102910000384F0BD21B1828842F08002828004E00D
:1029200082884FF67F731A4082807047A0F850105B
:102930007047000010B50446FA48844208D10121CE
:102940001020FFF700F900211020FFF7FCF857E0F6
:10295000F548844209D101214804FFF7E3F800213A
:102960004FF40030FFF7DEF84AE0F048844209D126
:1029700001218804FFF7D6F800214FF48020FFF7EB
:10298000D1F83DE0EA48844209D10121C804FFF7AB
:10299000C9F800214FF40020FFF7C4F830E0E54803
:1029A000844209D101210805FFF7BCF800214FF44A
:1029B0008010FFF7B7F823E0DF48844208D10121F7
:1029C0002020FFF7C0F800212020FFF7BCF817E017
:1029D000DA48844209D101218807FFF7A3F80021D2
:1029E0004FF08040FFF79EF80AE0D548844207D1B7
:1029F00001214005FFF796F800216005FFF792F8E6
:102A000010BD2DE9FF4705460E460024A14600BF34
:102A1000A046B08900B100BF2C8A24F44054F0884D
:102A200004432C82AC8941F20C608443B088318924
:102A30000843718908430443AC81AC8A24F4407490
:102A4000B0890443AC826846FEF7FDFEB548854276
:102A500002D0B948854202D1DDF80C9001E0DDF8E2
:102A60000890A88900F4004040B109EBC90000EBD0
:102A7000091031684900B0FBF1F707E009EBC90024
:102A800000EB091031688900B0FBF1F76420B7FB57
:102A9000F0F004012009642101FB1078A88900F4FA
:102AA000004040B1322000EBC800B0FBF1F000F074
:102AB0000700044308E0322000EB08106421B0FB5B
:102AC000F1F000F00F0004432C81BDE8FF874FF4C4
:102AD0001651016000218180C18001810C2141815A
:102AE00000218181704710B502460020108A20F431
:102AF00070600B884C8823438C882343CC88234305
:102B00001843108210BD0021018041808180C18066
:102B1000704721B1828942F40052828104E08289A7
:102B20004DF6FF731A4082817047028B02F47F4298
:102B30000283028B0A430283704721B1828942F4E7
:102B40000042828103E08289C2F30E0282817047D3
:102B500021B1828A42F40062828204E0828A4FF2CA
:102B6000FF731A4082827047C1F308028280704767
:102B700001468888C0F308007047028A4FF6F07358
:102B80001A400282028A0A430282704721B1828976
:102B900042F00202828104E082894FF6FD731A40FE
:102BA0008281704782894FF2FF731A408281828945
:102BB0000A4382817047028A4FF6DF731A4002820D
:102BC000028A0A430282704721B1028A42F480429B
:102BD000028204E0028A4BF6FF731A4002827047B9
:102BE000818941F001018181704721B1828A42F0DF
:102BF0000802828204E0828A4FF6F7731A408282CA
:102C00007047028BD2B20283028B42EA0122028316
:102C1000704721B1828A42F02002828204E0828AD7
:102C20004FF6DF731A408282704721B1828A42F0E8
:102C30001002828204E0828A4FF6EF731A40828289
:102C40007047828A4FF6FB731A408282828A0A4357
:102C50008282704721B1828A42F00202828204E0BD
:102C6000828A4FF6FD731A40828270471AB1838AB6
:102C70000B43838202E0838A8B4383827047F0B5E3
:102C80000346002400260025002040F66A17B942BA
:102C900000D100BF1846C1F3421401F01F060127FE
:102CA00007FA06F5012C01D10C3004E0022C01D109
:102CB000103000E014301AB107682F43076002E0BB
:102CC0000768AF430760F0BD02460020B1F5007F02
:102CD00000D100BF13880B400BB1012000E00020A1
:102CE000704701F40072B2F5007F00D100BFCA4303
:102CF0000280704770B502460024002300250020A2
:102D000040F66A16B14200D100BFC1F3421501F08E
:102D10001F03012606FA03F3012D13D196893340D0
:102D200017E000000010014000440040004800404F
:102D3000004C00400050004000140140007800406A
:102D4000007C0040022D02D1168A334001E0968AB1
:102D500033400C12012606FA04F41688344013B1ED
:102D60000CB1012000E0002070BD10B5002200234E
:102D700040F66A14A14200D100BF0A120124944017
:102D8000A3B2DC43048010BD0E49086070470D49B2
:102D9000486070470B49886070474AF6AA20094985
:102DA000086070474CF6CC40064908607047014601
:102DB0000020044AD2680A400AB1012000E0002045
:102DC000704700000030004008B53A208DF8000040
:102DD00003208DF8010002208DF8020001208DF8FB
:102DE00003006846FDF7A5FB0E208DF800000320C8
:102DF0008DF801008DF8020001208DF8030068466F
:102E0000FDF797FB11208DF8000001208DF80100DF
:102E10008DF802008DF803006846FDF78AFB272035
:102E20008DF8000001208DF8010002208DF80200CD
:102E300001208DF803006846FDF77BFB34208DF8F8
:102E4000000001208DF8010002208DF80200012011
:102E50008DF803006846FDF76CFB0D208DF800002F
:102E600001208DF801008DF802008DF803006846FE
:102E7000FDF75FFB0F208DF8000001208DF80100A9
:102E80008DF802008DF803006846FDF752FB1D2007
:102E90008DF8000001208DF8010000208DF802005F
:102EA00001208DF803006846FDF743FB39208DF8BB
:102EB000000002208DF801008DF8020001208DF83D
:102EC00003006846FDF735FB1E208DF80000012049
:102ED0008DF8010003208DF8020001208DF8030019
:102EE0006846FDF726FB14208DF8000000208DF8C1
:102EF000010002208DF8020001208DF803006846D1
:102F0000FDF717FB15208DF8000000208DF801005B
:102F100001208DF802008DF803006846FDF709FBDB
:102F200013208DF8000002208DF801008DF80200BA
:102F300001208DF803006846FDF7FBFA40208DF86C
:102F4000000000208DF8010003208DF80200012010
:102F50008DF803006846FDF7ECFA41208DF800007B
:102F600000208DF8010002208DF8020001208DF86C
:102F700003006846FDF7DDFA3F208DF800000020D1
:102F80008DF8010001208DF802008DF803006846DD
:102F9000FDF7CFFA08BD00001CB501210846FEF779
:102FA00023FD01210220FEF71FFD01210420FEF771
:102FB0001BFD4FF40050009001208DF80400032009
:102FC0008DF8050000208DF8060001208DF807001F
:102FD0006946D548FEF76AFA4FF480400090012018
:102FE0008DF8040003208DF8050000208DF8060000
:102FF00001208DF807006946CB48FEF757FA4FF4D9
:103000008041C948FEF7CEFA4FF40051C648FEF79A
:10301000C9FA1CBD10B54FF40051C348FEF7CDFAF4
:1030200010BD10B54FF48041BF48FEF7BBFA10BD8C
:1030300010B5FFF7F6FFBD480068142190FBF1F2D0
:1030400001FB120038B1B948006890FBF1F201FBB6
:103050001200022801D1FFF7DDFFB4480068401CD0
:10306000B249086008460068B149884202DD002084
:10307000AE49086010BD10B54FF48041AA48FEF774
:1030800093FA10BD10B54FF40051A748FEF78AFA25
:1030900010BD10B5FFF7F6FFFFF7EDFF10BD10B53F
:1030A0004FF40051A048FEF77FFA10BD10B5FFF7AE
:1030B000E2FFFFF7F4FF10BD10B5FFF7B2FF9D4828
:1030C00000680A2190FBF1F201FB120010B9FFF732
:1030D000E6FF0AE0974800680A2190FBF1F201FB45
:1030E0001200012801D1FFF7CDFF92480068401C73
:1030F00090490860084600688D49884202DD00203A
:103100008C49086010BD10B5FFF7BCFF8A48006805
:103110000A2190FBF1F201FB120010B9FFF7ABFF9F
:103120000AE0854800680A2190FBF1F201FB1200D9
:10313000012801D1FFF775FF7F480068401C7E49D8
:103140000860084600687A49884202DD00207A4912
:10315000086010BD704710B578480068142190FBD6
:10316000F1F201FB120010B9FFF799FF0AE0734872
:103170000068142190FBF1F201FB1200022801D13A
:10318000FFF780FF6D480068142190FBF1F201FB0E
:1031900012000A2802D1FFF76EFF0AE067480068B4
:1031A000142190FBF1F201FB12000C2801D1FFF772
:1031B00038FF62480068401C6049086008460068A3
:1031C0005B49884202DD00205C49086010BD10B5F3
:1031D0005B4800680A2190FBF1F201FB120010B974
:1031E000FFF75DFF0AE0564800680A2190FBF1F204
:1031F00001FB1200012801D1FFF744FF504800688D
:103200000A2190FBF1F201FB1200052802D1FFF721
:1032100032FF0AE04A4800680A2190FBF1F201FB04
:103220001200062801D1FFF7FCFE45480068401C4B
:1032300043490860084600683D49884202DD002095
:103240003F49086010BD10B5FFF729FFFFF7E9FE01
:1032500010BD10B5FFF7E5FE3A480068C82190FBA5
:10326000F1F201FB1200B8B13648006890FBF1F2B0
:1032700001FB12000A280FD03248006890FBF1F2DF
:1032800001FB1200142807D02E48006890FBF1F2D1
:1032900001FB12001E2801D1FFF7BCFE294800687F
:1032A000401C28490860084600682149884202DD20
:1032B00000202449086010BD10B54FF480411A4821
:1032C000FEF770F94FF400511748FEF76BF910BD87
:1032D00010B54FF480411448FEF766F94FF40051E1
:1032E0001148FEF75FF910BD10B54FF480410E484C
:1032F000FEF758F94FF400510B48FEF755F910BD91
:1033000010B54FF480410848FEF74EF94FF40051D4
:103310000548FEF749F910BD10B54FF48041024849
:10332000FEF74BF910BD0000000802402400002009
:10333000A0860100280000202C0000203000002082
:10334000340000203800002000B595B00121084667
:10335000FEF74AFB01211020FEF78FFB01218805B3
:10336000FEF742FB07220921FE48FEF72AF9072251
:103370000A21FC48FEF725F94FF4C0600F900220A7
:103380008DF8400000208DF8420003208DF84100A8
:1033900000208DF843000FA9F248FEF787F84FF49C
:1033A000E13011900020ADF84800ADF84A00ADF8CA
:1033B0004C000C20ADF84E000020ADF8500011A9D3
:1033C000E948FFF71EFB0121E748FFF7A2FB0122B6
:1033D0004021E548FFF74AFC01228021E248FFF73F
:1033E00045FCE248FDF708FE4FF000600090DE4823
:1033F000001D0190DE4802900020039020200490E0
:10340000002005904FF480600690002007900890FF
:103410004FF4807009904FF440300A9000200B90D8
:103420000C900D900E906946D048FDF787FE012262
:103430001021CE48FDF749FF0121CC48FDF7B8FE29
:10344000CA487830FDF7D8FD4FF000600090C648BC
:10345000001D0190C7480290402003901620049060
:10346000002005904FF4806006900020079008909F
:103470004FF4807009904FF440300A9000200B9078
:103480000C900D900E906946B8487830FDF756FEC6
:1034900001221021B5487830FDF717FF0021B3480D
:1034A0007830FDF785FE15B000BD10B5B249AF48C4
:1034B000FDF7DBFE012807D14FF08151AB48FDF746
:1034C000F0FEAB4801F041FF10BD10B5AB49A74875
:1034D0007830FDF717FF78B14FF02051A3487830CE
:1034E000FDF7DFFEA549A1487830FDF735FF002143
:1034F0009E487830FDF75CFE10BD00B595B0012107
:103500000220FEF771FA01218804FEF7B6FA0722BD
:103510000B219B48FEF755F84FF400600F900220F6
:103520008DF8400000208DF8420003208DF8410006
:1035300000208DF843000FA99148FDF7B7FF91488F
:1035400011900020ADF84800ADF84A004FF48060BB
:10355000ADF84C000420ADF84E000020ADF850004E
:1035600011A98948FFF74DFA012240F2244186480B
:10357000FFF785FB01218448FFF7CBFA01224021A8
:103580008148FFF773FB01214805FEF72DFA7F48BC
:10359000FDF732FD4FF0006000907B48001D019068
:1035A0007B480290002003901E200490002005908C
:1035B0004FF4806006900020079008904FF48070D0
:1035C00009904FF440300A9000200B900C900D9021
:1035D0000E9069466D48FDF7B1FD01216B48FDF77E
:1035E000E7FD15B000BD10B540F224416648FFF775
:1035F00081FBF0B1644800886348001D0088002109
:103600006248FDF7D5FD6148FDF7F5FDC0F11E00EC
:103610006049086008460068122802D15C4801F041
:10362000F3FA1E215948FDF7E4FD01215748FDF743
:10363000BFFD10BD00B595B001210420FEF7D4F9FF
:103640000121C804FEF719FA08220A215248FDF7A1
:10365000B8FF08220B215048FDF7B3FF4FF440603C
:103660000F9002208DF8400000208DF842000320CA
:103670008DF8410000208DF843000FA94648FDF762
:1036800015FF4FF4E13011900020ADF84800ADF87F
:103690004A00ADF84C000C20ADF84E000020ADF80B
:1036A000500011A93D48FFF7ACF9012240F2244136
:1036B0003A48FFF7E4FA01213848FFF72AFA0122D5
:1036C00040213648FFF7D2FA012280213348FFF724
:1036D000CDFA01214805FEF787F92C481830FDF78F
:1036E0008BFC4FF0006000902C48001D01902C488E
:1036F00002900020039008200490002005904FF4D1
:10370000806006900020079008904FF48070099028
:103710004FF440300A9000200B900C900D900E90CA
:1037200069461A481830FDF709FD01221021174893
:103730001830FDF7CAFD012114481830FDF738FD97
:1037400001214805FEF750F910484830FDF754FCB8
:103750004FF0006000901148001D01901148029048
:10376000402021E00000024000100140406402407F
:103770004A0200203402002000802010008000282F
:1037800000040240A086010000480040286002407A
:10379000040200205400002000080240004C0040B9
:1037A000440000203C0000200390082004900020EA
:1037B00005904FF4806006900020079008904FF429
:1037C000807009904FF440300A9000200B900C90CC
:1037D0000D900E906946BB48FDF7B0FC0122102108
:1037E000B848FDF772FD0021B648FDF7E1FC15B0C1
:1037F00000BD10B540F22441B348FFF77BFA20B179
:10380000B1480088B048001D008810BD70B5AF49B0
:10381000AC483038FDF776FD002836D0AC48AD49CD
:103820000A6882604968C16000241AE0A848005D07
:10383000212814D1002506E02819A549085CA649CD
:103840004855681C05B2082DF6DB0621A248401C2D
:1038500000F0D0FD10B1A04801F0B7FA03E0601C01
:1038600004B2082CE2DB00BF4FF08151954830389C
:10387000FDF717FD954993483038FDF76DFD9448E5
:1038800001468A680260C968416070BD10B59349FD
:103890008C48FDF7EAFC01280FD100218948FDF78B
:1038A00087FC08218748FDF7A4FC8D498548FDF772
:1038B000F8FC8A498348FDF74FFD10BD00B595B06F
:1038C00001210846FEF790F801214804FEF7D5F8DB
:1038D000072202218348FDF774FE07220321814855
:1038E000FDF76FFE04200F9002208DF840000020AD
:1038F0008DF8420003208DF8410000208DF8430030
:103900000FA97848FDF7D2FD08200F9000208DF810
:10391000400003208DF8410000208DF843000FA9DE
:103920007048FDF7C3FD7048FFF704F84FF4E1302D
:1039300011900020ADF84800ADF84A00ADF84C00F9
:103940000C20ADF84E000020ADF8500011A96648DB
:10395000FFF757F801216448FFF7DBF801228021C7
:103960006148FFF783F901214805FEF73DF8554806
:103970003030FDF741FB4FF0006000905A48001DC9
:1039800001905A480290402003901E20049000208D
:1039900005904FF4806006900020079008900990F1
:1039A0004FF440300A9000200B900C900D900E9038
:1039B000694644483030FDF7C1FB012210214148DF
:1039C0003030FDF782FC00213E483030FDF7F0FB3F
:1039D00015B000BD10B546493A483030FDF745FCFA
:1039E00001280ED1002137483030FDF7E1FB414975
:1039F00034483030FDF755FC3D4932483030FDF752
:103A0000ABFC10BD00BF3C4A128802F04002002A05
:103A1000F9D0C2B2384B9A80704700B587B0012107
:103A20000420FDF7E1FF01210820FDF7DDFF012162
:103A30000805FEF722F8082202213048FDF7C1FDF3
:103A400008220C212E48FDF7BCFD4FF48050019058
:103A500002208DF8080000208DF80A0003208DF860
:103A6000090000208DF80B0001A92548FDF71EFD77
:103A70000420019000208DF8080003208DF8090033
:103A800000208DF80B0001A91C48FDF70FFD4FF435
:103A9000E13003900020ADF81000ADF81200ADF851
:103AA00014000C20ADF816000020ADF8180003A992
:103AB0001148FEF7A6FF01210F48FFF72AF807B0CB
:103AC00000BD000070600240004C004000802010EB
:103AD0006A020020440000204C00002020800020CA
:103AE0002000002000000240004400401602002098
:103AF000008020200000202000500040000C0240E8
:103B00000008024000B589B001210220FDF76CFFDA
:103B100001214806FDF7B1FF09220821D148FDF730
:103B200050FD09221146CF48FDF74BFD4FF4407080
:103B3000009002208DF804008DF8050000208DF81B
:103B4000060001208DF807006946C648FDF7AEFC67
:103B5000C548FCF759FD06A8FCF77AFE00208DF851
:103B60001E0001208DF81F008DF820008DF8210027
:103B700000208DF8220001208DF8230000208DF810
:103B80001A008DF81B0008208DF81C0003208DF80A
:103B90001D00ADF8180006A9B348FCF74EFD002043
:103BA0008DF8120001208DF8130000208DF814000C
:103BB00044F2A000ADF8080044F2C000ADF80A00DD
:103BC00044F2E000ADF80C004FF48240ADF80E0076
:103BD0000020ADF8100001208DF8150002A8FCF7B8
:103BE000B6FD01208DF812008DF813008DF8140039
:103BF00044F22000ADF808000020ADF80A0044F2BD
:103C00004000ADF80C000020ADF80E000120ADF82A
:103C100010008DF8150002A8FCF799FD0122022181
:103C20009148FDF793F8012210218F48FDF78EF897
:103C3000012211468C48FDF789F809B000BD00B596
:103C400089B001210220FDF7CFFE01218806FDF792
:103C500014FF09220D218348FDF7B3FC09220C2132
:103C60008048FDF7AEFC4FF44050009002208DF8E4
:103C700004008DF8050000208DF8060001208DF865
:103C8000070069467748FDF711FC7848FCF7BCFC53
:103C900006A8FCF7DDFD00208DF81E0001208DF840
:103CA0001F008DF820008DF8210000208DF82200E3
:103CB00001208DF8230000208DF81A008DF81B00DC
:103CC00008208DF81C0003208DF81D00ADF81800A9
:103CD00006A96648FCF7B1FC0F208DF81200012000
:103CE0008DF8130000208DF8140044F22000ADF888
:103CF000080044F24000ADF80A0044F26000ADF85C
:103D00000C004FF48140ADF80E000020ADF810001B
:103D100001208DF8150002A8FCF719FD10208DF880
:103D2000120001208DF813008DF814004003ADF847
:103D300008000020ADF80A0042F22000ADF80C00A7
:103D40000020ADF80E000120ADF810008DF8150030
:103D500002A8FCF7FCFC012202214448FCF7F6FF14
:103D6000012210214148FCF7F1FF012211463F4892
:103D7000FCF7ECFF09B000BD10B501213A48FDF792
:103D80004DF818B101213848FDF7E3F810BD00B532
:103D900087B002213448FDF741F870B10221324862
:103DA000FDF7D7F802AA00212F48FCF7B4FE0698C9
:103DB000009002A80FC801F076F807B000BD00B56A
:103DC00087B010212848FDF729F870B11021264846
:103DD000FDF7BFF802AA01212348FCF79CFE0698D4
:103DE000009002A80FC801F0BEF807B000BD00B5F2
:103DF00087B002211D48FDF711F870B102211B4860
:103E0000FDF7A7F802AA00211848FCF784FE0698DF
:103E1000009002A80FC801F0DEF807B000BD00B5A1
:103E200087B010211148FCF7F9FF70B110210F483D
:103E3000FDF78FF802AA01210C48FCF76CFE0698EA
:103E4000009002A80FC801F0C9F807B000BD10B576
:103E500001210648FCF7E2FF18B101210348FDF7F4
:103E600078F810BD00040240006400400068004083
:103E7000D0ED000AF4EEC00AF1EE10FA01DD80ED9B
:103E8000000AD0ED000AB1EE401AF4EEC10AF1EEDC
:103E900010FA03D2F1EE400AC0ED000A7047036445
:103EA000C263816380ED000AC0ED010A80ED021A51
:103EB000704780ED000AC0ED010A80ED021ADFEDC7
:103EC0004D1AC0ED081ADFED4B1AC0ED091ADFEDEF
:103ED000491AC0ED0A1ADFED471AC0ED0B1A7047F8
:103EE00010B52DED028B0446B0EE408AF0EE608AEC
:103EF00084ED048AC4ED038A38EEC80A84ED050A0D
:103F000094ED0C0AD4ED050A30EE200A84ED0C0A7B
:103F1000D4ED100AF8EE600AB0EE600A04F1300049
:103F2000FFF7A6FF94ED000AD4ED050A20EE200A63
:103F300084ED080A94ED010AD4ED0C0A20EE200A63
:103F400084ED090A94ED050AD4ED060A30EE600A04
:103F5000D4ED020A20EE200A84ED0A0A94ED080A44
:103F6000D4ED090A30EE200AD4ED0A0A30EE200A18
:103F700084ED0B0A94ED050A84ED060AD4ED0F0AD0
:103F8000F8EE600AB0EE600A04F12C00FFF770FF53
:103F900094ED0B0ABDEC028B10BD2DE9F0412DED27
:103FA000048B04460D4616461F46B0EE408AF0EEDE
:103FB000608AB0EE419A104860641048A064B0EE88
:103FC000491AF0EE680AB0EE480A3B4632462946E6
:103FD0002046D4F844C0E047B0EE491AF0EE680A33
:103FE000B0EE480A2046A16C8847BDEC048BBDE8C2
:103FF000F0810000000000009F3E0008B33E000872
:104000000EB501210220FDF738FD5320ADF8000068
:104010000020ADF80200312001900020ADF808002A
:104020006946BC48FDF7E1FE0121BA48FEF792FB64
:1040300001221146B748FEF779FB0EBD10B50121EC
:10404000B448FEF78AFB20B1B3480068401CB2496F
:10405000086010BD0EB501210420FDF70EFD032000
:10406000ADF800000020ADF80200292001900020EA
:10407000ADF808006946A948FDF7B7FE0121A74839
:10408000FEF768FB01221146A448FEF74FFB0EBD68
:1040900010B50121A148FEF760FB00287ED0002169
:1040A0009E48FDF72BFF002201219C48FEF73EFBB6
:1040B0009B480088002801DC002009E0984800881F
:1040C000B0F5FA6F02DB4FF4FA6001E09448008823
:1040D0009349088093480088002801DC002009E00B
:1040E00090480088B0F5FA6F02DB4FF4FA6001E007
:1040F0008C4800888B49088089480088C0F380205C
:104100008949087086480088C0F340204870844878
:104110000088C0F30020887081480078C0F3C01088
:10412000C8707F480078C0F3801008717C48007820
:10413000C0F3401048717A480078C0F300108871CD
:1041400077480078C0F3C000C87175480078C0F3A4
:104150008000087272480078C0F3400048727048CE
:10416000007800F0010088720020C87208460078CC
:10417000097948406C49097A48406B4908730846F8
:104180004078497948406849497A484066494873C7
:104190000846807889794840634900E0B9E0897A27
:1041A0004840614988730846C078C97948405E49EB
:1041B000C97A48405C49C87300205C49086013E034
:1041C00059485A490968405C012801D1172000E08C
:1041D0000C20564909684900554A42F821005348C5
:1041E0000068401C51490860504800681028E7DB0F
:1041F0004C480088C0F380204B490870494800882B
:10420000C0F34020487047480088C0F30020887001
:1042100044480078C0F3C010C87042480078C0F32A
:10422000801008713F480078C0F3401048713D4845
:104230000078C0F3001088713A480078C0F3C000DD
:10424000C87138480078C0F380000872354800789B
:10425000C0F3400048723348007800F001008872D3
:104260000020C87208460078097948402E49097A2A
:1042700048402D49087308464078497948402A4902
:10428000497A4840284948730846807889794840E7
:104290002549897A4840244988730846C078C979F5
:1042A00048402149C97A48401F49C87300201F4926
:1042B000086014E01C481D490968405C012801D1D0
:1042C000172100E00C21194800684000401C184AE2
:1042D00042F8201015480068401C14490860134833
:1042E00000681028E6DB13491348FCF7DAFF0122C7
:1042F00011021248FEF74AFA012210210E48FCF77B
:10430000E4FF01210C48FCF753FF01210348FEF7AD
:1043100035FA10BD0004004058000020000800409D
:104320005C0000205E0000207A0200206000002077
:1043300068000020000800102864024000040140CA
:1043400030B5034613B94FF6FF7030BD09E013F8DE
:10435000014B82EA0400C0B23C4D35F8100080EAFF
:1043600022220800A1F10101F1D11046EDE770B55C
:1043700005460C4600260DB1022C01D8002070BD68
:10438000A11E334802882846FFF7DAFF0646F1B23D
:10439000A01E285C814206D1601E285CB0EB162F5F
:1043A00001D10120EBE70020E9E770B505460C4696
:1043B00000260DB1022C00D870BDA11E2448028831
:1043C0002846FFF7BDFF0646A01E2E54310A601E88
:1043D000295400BFF0E730B5034605E013F8010BA0
:1043E00080EA02041B48025D0800A1F10101F5D139
:1043F000104630BD70B505460C4600260DB1022CA6
:1044000001D8002070BD611EFF222846FFF7E3FFA0
:10441000064611490880601E285CB04201D1012087
:10442000F0E70020EEE770B505460C4600260DB11A
:10443000022C00D870BD611EFF222846FFF7CBFF7B
:104440000646601E2E5400BFF4E70000A695000843
:1044500064000020A79700086600002070B52DEDCD
:10446000048B06460D46B0EE408AF0EE608AB0EE50
:10447000419A144624B9B0EE480ABDEC048B70BDD5
:10448000012C07D1F0EE480AB0EE680A3046FFF77B
:1044900027FDF2E7022C07D1F0EE480AB0EE490AF8
:1044A0002846FFF71DFDE8E7032C10D1F0EE480A7F
:1044B000B0EE490A2846FFF713FDF0EE409AF0EE01
:1044C000690AB0EE680A3046FFF70AFDD5E7042C0A
:1044D00016D1FD48D0ED010AB0EE600AF0EE480AB0
:1044E0002846FFF7FDFCF0EE409AF748D0ED030AAE
:1044F000B0EE600AF0EE690A3046FFF7F1FCBCE767
:10450000052C16D1F048D0ED000AB0EE600AF0EEAE
:10451000480A2846FFF7E4FCF0EE409AEA48D0ED5E
:10452000020AB0EE600AF0EE690A3046FFF7D8FCE6
:10453000A3E79FEDE60AA0E700B585B0E448006870
:1045400001283DD1E348027BD0ED081AB0EE611A94
:10455000B0F9240001EE900AF8EEE11AF0EE610ADB
:10456000DC48D0ED0A1AB0EE610A00F178012C3077
:10457000FFF774FFBDEEC00A10EE100A00B2D54975
:104580008882D548027BD0ED081AB0EE611AB0F9E6
:10459000240001EE900AF8EEE11AF0EE610ACE482E
:1045A000D0ED0A1AB0EE610A00F178012C30FFF765
:1045B00055FFBDEEC00A10EE100A00B2C64988824F
:1045C000C348006802283FD1C248027BD0ED081AD8
:1045D000B0EE611AB0F9240001EE900AF8EEE11A8B
:1045E000F0EE610ABB48D0ED0A1AB0EE610A00F5A0
:1045F000D47100F5AE70FFF731FFBDEEC00A10EECA
:10460000100A00B2B3498882B348027BD0ED081A81
:10461000B0EE611AB0F9240001EE900AF8EEE11A4A
:10462000F0EE610AAC48D0ED0A1AB0EE610A00F56E
:10463000D47100F5AE70FFF711FFBDEEC00A10EEA9
:10464000100A00B2A4498882A148006803283DD11D
:10465000A048027BD0ED081AB0EE611AB0F9240030
:1046600001EE900AF8EEE11AF0EE610A9948D0EDF9
:104670000A1AB0EE610A00F58871C430FFF7EEFE49
:10468000BDEEC00A10EE100A00B29249888292482C
:10469000027BD0ED081AB0EE611AB0F9240001EEE9
:1046A000900AF8EEE11AF0EE610A8B48D0ED0A1A92
:1046B000B0EE610A00F58871C430FFF7CFFEBDEEA1
:1046C000C00A10EE100A00B28349888200208DF8DB
:1046D00008008DF8090008208DF80A0040F2FF104C
:1046E00000907C48B0F914007C49884201DC0846FF
:1046F0000BE07848B0F9140047F23051884201DBF2
:10470000084602E07348B0F9140072498882724882
:10471000B0F914007149884201DC08460BE06E488C
:10472000B0F9140047F23051884201DB084602E03C
:104730006948B0F91400684988820846806840F2E8
:104740000621884216D163488068491C884211D1ED
:104750006148808A000A8DF80B005F48017D8DF862
:104760000C105C48808A010A8DF80D105948017DB3
:104770008DF80E1069465A48FCF7D8F805B000BD10
:104780001CB50024FF208DF800008DF80100FE20EC
:104790008DF8020002208DF8030005208DF804003A
:1047A000FA208DF8050000BF0DE01DF804104D48FB
:1047B000FEF7DAF900BF40214A48FEF785FA0128E2
:1047C000F9D1601CC4B2052CEFDD1CBD7FB50446D9
:1047D0000025FF208DF800008DF80100FE208DF8E7
:1047E000020005208DF8030004208DF804001E202F
:1047F0008DF80500E0B28DF8060020128DF8070054
:104800009DF802009DF8031008449DF80410084428
:104810009DF8051008449DF8061008449DF80710FF
:104820000844C043C0B28DF8080000BF0DE01DF879
:1048300005102C48FEF798F900BF40212948FEF7E3
:1048400043FA0128F9D1681CC5B2082DEFDD7FBD00
:104850001FB50024FF208DF800008DF80100FE2018
:104860008DF8020004208DF8030003208DF8040069
:1048700004208DF8050010208DF806009DF8020038
:104880009DF8031008449DF8041008449DF8051095
:1048900008449DF806100844C043C0B28DF80700D4
:1048A00000BF0DE01DF804100E48FEF75DF900BFD3
:1048B00040210C48FEF708FA0128F9D1601CC4B267
:1048C000072CEFDD1FBD00002C08002000000000B9
:1048D0002C010020100300202C050020D08AFFFFAF
:1048E000006400400044004000B585B02A48027BC7
:1048F000D0ED081AB0EE611AB0F9240001EE900A6A
:10490000F8EEE11AF0EE610A2348D0ED0A1AB0EE93
:10491000610A00F178012C30FFF7A0FDBDEEC00A5E
:1049200010EE100A00B21C49888200208DF80800A1
:104930008DF8090008208DF80A00800100900846D3
:10494000B0F914001549884201DC08460BE0124812
:10495000B0F9140042F21071884201DB084602E00F
:104960000D48B0F914000C49888208468068A0F20E
:10497000012048B90846808A000A8DF80B000846D5
:10498000017D8DF80C1000BF00BF69460448FBF79D
:10499000CDFF05B000BD000048070020F0D8FFFFA4
:1049A0000064004000B58BB001210220FDF776F8CD
:1049B00001210420FDF718F84FF4C070099002207F
:1049C0008DF828008DF82B0000208DF82A00032098
:1049D0008DF8290009A94348FCF768FD0322072147
:1049E0004048FCF7EEFD032208213E48FCF7E9FDB4
:1049F000A720ADF804000020ADF8060044F62060C2
:104A000002900020ADF80C0001A93748FDF7EDF940
:104A10007020ADF810000120ADF812004FF47A704C
:104A2000069004A93048FDF7FBFA6020ADF81000AD
:104A300004A92D48FDF7A7FA01212B48FDF75EFADE
:104A400001212948FDF74BFE0BB000BD10B52749E9
:104A50002748FCF70AFC012826D10022010222483F
:104A6000FDF794FE002210212148FCF72EFC0021C6
:104A70001F48FCF79DFB00211B48FDF7A6FB00210A
:104A80001948FDF7A4FB01211A48FDF737FA012167
:104A90001848FDF75FFE012211461648FDF746FE55
:104AA00012491348FCF758FC10BD002801DC002215
:104AB00006E0B0F5FA6F02DB4FF4FA6200E002465E
:104AC0001046002901DC002206E0B1F5FA6F02DB96
:104AD0004FF4FA6200E00A461146074B1880074B74
:104AE000198070470008024000040140008800104F
:104AF00028640240000800405C0000205E000020A6
:104B0000F0EE400AC0ED040A90ED040A90ED031A9D
:104B100030EE410A80ED050A90ED040A80ED030AAB
:104B200090ED050A90ED021ADFED341A21EE211AFC
:104B3000B4EEC10AF1EE10FA0FDD90ED050A90ED2A
:104B4000021A30EE410A80ED050A90ED010AB7EE37
:104B5000001A30EE010A80ED010A90ED050A90ED91
:104B6000021ADFED271A21EE211AB4EEC10AF1EE86
:104B700010FA0FD290ED050A90ED021A30EE010AFC
:104B800080ED050A90ED010AB7EE001A30EE410AF9
:104B900080ED010A90ED040A90ED011AD0ED021AA1
:104BA00001EE610A704700B50146B0EE402AB0EE52
:104BB000420A0846FFF7A4FF00BDC0ED040A80EDDD
:104BC000020A9FED101A80ED031A9FED0E1A80ED78
:104BD000051A9FED0C1A80ED011A704700B50146C9
:104BE00091ED020AF0EE401ADFED060AB0EE610A1E
:104BF0000846FFF7E2FFB7EE000A00BD3333333F4C
:104C0000333333BF0000000010B5044620786178CC
:104C100040EA0120C0F30A00FC4908806078C01017
:104C2000A17840EA4110C0F30A00F8494880A07812
:104C30008011E17840EA8100217940EA8120C0F3C7
:104C40000A00F249888020794010617940EAC11059
:104C5000C0F30A00ED49C8806079C0F301100881F3
:104C600060798009488108460088A0F580600F2897
:104C700009DA08460088A0F5806010F10F0F02DD08
:104C80004FF480600880E1484088A0F580600F28DC
:104C90000ADADE484088A0F5806010F10F0F03DDCE
:104CA0004FF48060D9494880D8488088A0F580605A
:104CB0000A280ADAD5488088A0F5806010F10A0F2A
:104CC00003DD4FF48060D1498880D048C088A0F5CA
:104CD00080600A280ADACD48C088A0F5806010F10B
:104CE0000A0F03DD4FF48060C849C880A079E179DC
:104CF00040EA012000B2C5498881207A617A40EA01
:104D0000012001B2C148C181A07AE17A40EA0120C4
:104D100001B2BE480182217B8174617BC174A07B9A
:104D200000F00100B9498882A07BC0F34001B74878
:104D3000C182A07BC0F38001B4480183A07BC0F393
:104D4000C001B2484183A07BC0F30011AF48018687
:104D5000A07BC0F34011AD484186A07BC0F3801119
:104D6000AA488183A07BC109A848C183E07B00F0E9
:104D70000101A6480184E07BC0F34001A3484184BF
:104D8000E07BC0F38001A1488184E07BC0F3C001D7
:104D90009E48C184E07BC0F300119C480185E07B04
:104DA000C0F3401199484185E07BC0F380119748DA
:104DB0008185E07BC1099548C1850020934908871A
:104DC00002F0FEFA9149486310BD10B504466078C0
:104DD00048BBE078A17840EA012000B200EE100A5A
:104DE000B8EEC00ADFED8A0A80EE201A894880ED0D
:104DF000001A6079217940EA012000B200EE100A21
:104E0000B8EEC00ADFED820A80EE201AB1EE410A48
:104E1000804880ED010A02F0D3FA7E490861084615
:104E2000C068401CC86000207A49088110BD10B5D8
:104E30002DED028B78497948FCF733FA2120784927
:104E4000087000204870774890ED010AB0EE408A63
:104E50009FED6F0A28EE000ABDEEC00A10EE100AA0
:104E600004B2200A8870CC706E4890ED000AF0EE13
:104E7000408A9FED670A28EE800ABDEEC00A10EE58
:104E8000100A04B2200A08714C712320C87106214F
:104E90006348401CFFF7C7FA01216048FCF788F916
:104EA000BDEC028B10BD0FB410B50298A0F2052026
:104EB00010B1012853D124E09DF814009DF813107F
:104EC00040EA01205849C8839DF818109DF8170042
:104ED00041EA00205449C8840846C08B00EE900A7D
:104EE000F8EE600AB0EE600A01F5FA70FFF75BFEBB
:104EF0004D4880ED080A02F063FA4B49C1F81402EC
:104F00002DE09DF814009DF8131040EA0120474958
:104F1000C8839DF816109DF8150041EA002000B2E4
:104F2000424988849DF818109DF8170041EA002036
:104F30003E49C8840846C08B00EE900AF8EE600A2D
:104F4000B0EE600A01F5FA70FFF72DFE374880EDEC
:104F5000080A02F035FA3549C1F8140200BF00BF53
:104F600010BC5DF814FB0FB410B50298A0F201203C
:104F700068BB9DF814009DF8131040EA01202C49ED
:104F8000C8839DF816109DF8150041EA002000B274
:104F9000274988849DF818109DF8170041EA0020E1
:104FA0002349C8840846C08B00EE900AF8EE600AD8
:104FB000B0EE600A01F1C400FFF7F5FD1C4880ED7A
:104FC000080A02F0FDF91A49C1F8DC0000BF00BF71
:104FD00010BC5DF814FB00BF00BF70470FB410B5E4
:104FE0000298B0F5807F03D0A0F2011068B921E0EB
:104FF0000C48DDF8131041600146DDF81700C86069
:1050000002F0DEF90749886121E020E08C020020EF
:105010000000C842C802002020000020706002404A
:105020003C0000202C0800202C050020100300204C
:1050300048070020FD48DDF8131001600146DDF847
:105040001700886002F0BCF9F849886100BF00BF12
:1050500010BC5DF814FB10B504460021F448FCF7C1
:10506000A7F82146F248FCF7C4F80121F048FCF704
:105070009FF810BD10B504460021EE48FCF798F8E3
:105080002146EC48FCF7B5F80121EA48FCF790F816
:1050900010BDF0B52DED068B85B00024002500274E
:1050A000002004900390029001900090E248007864
:1050B000012804D0022867D0032864D1C7E0002467
:1050C0000027AA222146641CDC48425405222146BE
:1050D000641C4254AF222146641C4254D6480078D6
:1050E000F030C2B22146641CD4484254641CCF48FC
:1050F00090ED000A5FED3A0A20EE200ABDEEC00AEC
:1051000010EE100A00B204909DF811202146641C94
:10511000CA4842549DF810202146641C4254C3489A
:1051200090ED010A5FED460A20EE200ABDEEC00AAE
:1051300010EE100A00B203909DF80D202046611C6D
:10514000CCB2BE490A549DF80C202146601CC4B262
:10515000BA484254601FB94908710025002005E093
:10516000B649095C2944CDB2411CC8B2B34909799A
:10517000491D8142F4DC2046611CCCB2AF490D547C
:105180002046FFF777FFD0E00024AA222146641CC6
:10519000AA48425405222146641C4254AF222146AB
:1051A000641C4254A4480078F030C2B22146641C0A
:1051B000A2484254641CA24890ED010A5FED6C0ABB
:1051C00020EE200ABDEEC00A10EE100A00B20290D6
:1051D0009DF809202146641C984842549DF80820F7
:1051E0002146641C4254964890ED000A5FED780A0F
:1051F00020EE200ABDEEC00A10EE100A00B20190A7
:105200009DF805202046611CCCB28C490A549DF8BB
:1052100004202046611CCCB288490A54601F0871E2
:105220000025002005E08549095C2944CDB2411CD8
:10523000C8B282490979491D8142F4DC2046611CCB
:10524000CCB27E490D542046FFF714FF6DE00024D8
:105250007C480088401C7B490880AA222146641CA7
:105260007648425405222146641C4254AF2221460E
:10527000641C425470480078F030C2B22146641C6D
:105280006E484254641C6F48008800EE100AB8EE65
:10529000400ADFED6D0A20EE200ADFED6C0A80EE99
:1052A000201A11EE106A304603F09BF941EC1A0BFC
:1052B000B0EE4A0AF0EE6A0A03F0FAFBB0EE409A4A
:1052C000F0EE609A9FED620B53EC102B51EC190B32
:1052D00003F0F6F841EC180B03F064F900B200900B
:1052E0009DF801202146641C544842549DF800203A
:1052F0002146641C4254601F50490871002500205B
:1053000005E04E49095C2944CDB2411CC8B24B4965
:105310000979491D8142F4DC2046611CCCB2474921
:105320000D542046FFF7A6FE00BF00BF424800789C
:10533000401C4149087008460078042801DB012020
:10534000087005B0BDEC068BF0BD2DE9F0410746B5
:1053500000240025202239463F4803F07DF800BF95
:105360007EE13D482038005DA5287BD13A492039AF
:1053700008190521FFF73EF80128F6D136492039F2
:10538000A01D0E5C601D085C40EA0626A01C0D5C9A
:10539000601C085C40EA052540F2012086420BD1E2
:1053A000081905F10901FEF7E2FF28B12A49203961
:1053B000E01D085C2949087040F2032086427DD137
:1053C00025492039081905F10901FEF7D0FF002809
:1053D00074D02149203904F10A00085C2049086092
:1053E0001D49203904F10900085C1D49096840EA9B
:1053F00001201B4908601849203904F10800085CA5
:105400001749096840EA0120154908601249203906
:10541000E01D085C1249096840EA01201049086053
:105420000D49203904F10E00085C1CE02C08002016
:10543000B8640240A0600240FC0000201602002078
:10544000C8020020FE000020C3F54840000034439D
:1054500000000000000059406C080020DC02002021
:10546000E8000020FAE0C7490860C74904F10D00D0
:10547000085CC449096840EA0120C2490860C24981
:1054800004F10C00085CBF49096840EA0120BD49ED
:105490000860BD4904F10B00085CBA49096840EA9C
:1054A0000120B8490860B84904F11200085CB74906
:1054B0000860B54904F11100085C00E055E0B3490B
:1054C000096840EA0120B1490860AF4904F11000C1
:1054D000085CAE49096840EA0120AC490860AA4965
:1054E00004F10F00085CA949096840EA0120A749B6
:1054F0000860A54904F11600085CA5490860A249A6
:1055000004F11500085CA249096840EA0120A0499D
:1055100008609D4904F11400085C9D49096840EA4F
:1055200001209B490860984904F11300085C9849E0
:10553000096840EA012096490860964890ED000A03
:10554000954880ED010A8F4890ED000A924880ED61
:10555000020A8E4890ED000A8F4880ED030A084643
:1055600090ED000A8C4880ED040A40F20520864246
:105570001BD18549081905F10901FEF7F8FEA0B114
:10558000814904F10800085C834988827E49E01D56
:10559000085C8149097D40EA01207F4988827A4977
:1055A00004F10900085C7C49887540F207208642B6
:1055B0003AD17549081905F10901FEF7D8FE98B3EB
:1055C0007149E01D085C01282ED104F10800085C37
:1055D000714908766C4904F10C00085C6F49086059
:1055E000694904F10B00085C6C49096840EA012034
:1055F0006A490860644904F10A00085C674909685F
:1056000040EA0120654908605F4904F10900085C2F
:105610006249096840EA012060490860084690ED47
:10562000000A5D4880ED070AB6F5027F16D156499B
:10563000081905F10901FEF79AFE78B1524904F103
:105640000800085C544908844F49E01D085C524931
:1056500091F8201040EA01204F490884601C04B2F0
:10566000202CFFF67EAE202247492031464802F02A
:10567000F3FEBDE8F0812DE9F0410546132640F226
:10568000013740F2011844480478062C03D14FF446
:105690008370434908806A2C03D14FF4B5704049A8
:1056A0000880A5203F4908704E70300A887000209D
:1056B000C87005213B48FEF7B6FE3A494F71380ADB
:1056C000887181F807804FEA182008724C72200A0E
:1056D000887233480078C87231480088000A08731D
:1056E000012D46D16520304948706E2088700846EB
:1056F000C07820F00700801CC8700846C07820F0F1
:1057000038003030C8700846B0F8030020F47070DC
:105710004030A1F803000846007920F03C001C301E
:10572000087114212048808861F38E101E498880FA
:105730000846B0F807006FF30900801CA1F80700C5
:1057400096211948008961F38C001749088164216A
:105750001548B0F8090061F34F101349A1F809008A
:105760000D48808AC1F80B000F220E480D3002F060
:1057700073FE1E210B48FEF718FE1E20FFF76BFC80
:10578000BDE8F081EC0000204C080020F000002073
:10579000F4000020E8000020DC020020F8000020D7
:1057A00000010020340200200003002070B50546EF
:1057B0000C4645F25550FDF7E7FA2846FDF7E7FAA3
:1057C0002046FDF7E7FAFDF7E8FAFDF7EBFA70BDC2
:1057D00010B5FDF7E2FA10BD1CB5044617480421C8
:1057E00000238022CDE9001015A1194801F023F80B
:1057F0001848012100238022CDE9001016A1194884
:1058000001F019F81848012100238022CDE9001089
:1058100016A1194801F00FF81848006801F059F86E
:105820001CBD1CB51548042100238022CDE90010C1
:1058300013A1AFF25B0000F0FEFF1CBD08010020C9
:1058400053656C66636865636B205461736B00001D
:10585000A75A00080C010020446562756720546156
:10586000736B00006D650008100100204A756467C5
:1058700065205461736B0000ED6500080401002091
:1058800053797374656D53746172740010B500F0D0
:105890002AFE90B1AB480088401C00B2A94908809C
:1058A000A948007800F0030010B9A84801F011F8E9
:1058B000A74801F00EF8012010BD0020FCE71CB540
:1058C000A148007800F0030000B109E0A1480521DB
:1058D00000238022CDE900109FA19C4800F0ABFF7F
:1058E000A248052100238022CDE90010A0A19848FC
:1058F00000F0A1FF1CBD10B59348008810282CD0E3
:1059000005DC50B1012822D004282FD122E0402804
:1059100026D0B0F5807F29D125E08B48807828B942
:105920008948C07810B9FDF783FB0FE0864880787E
:1059300030B98548C078012802D1FDF78AFC05E01E
:1059400081488078012801D1FDF77DFC11E0FDF749
:10595000B3FB0EE0FDF7FFFB0BE0FDF7D4FB08E027
:10596000FDF7F8FB05E0FDF732FC02E0FDF791FBE7
:1059700000BF00BF10BD0346581A904201D9012054
:1059800070470020FCE710B501F01AFD04467A4884
:10599000642281692046FFF7EEFF6B49097860F3C6
:1059A00001016948017075486422D0F8141220463C
:1059B000FFF7E1FF6449097860F30511624801705F
:1059C0006F486422D0F814122046FFF7D4FF5E49D6
:1059D000097860F387115C4801706A48416B4FF4A5
:1059E0007A722046FFF7C7FF5749097860F38301B1
:1059F0005548017064486422D0F8DC102046FFF757
:105A0000BAFF514948705F480089022802D101203D
:105A1000887002E000204C4988705C48C822016907
:105A20002046FFF7A8FF484908710846007800F0B3
:105A30000300012801D15049087743480078C0F39A
:105A40000110012802D14D4981F818023E48007822
:105A50000121B1EB901F03D10120494981F81802BF
:105A600039480078C0F38100012802D1454981F806
:105A70003A003548407800F00300012802D142493D
:105A800081F8E00010BD01203B4908773B4981F8CF
:105A900018023B4981F818023A4981F83A003A491C
:105AA00081F8E000704701F08BFC39490860FDF790
:105AB000FDFA40F214514020FFF778FE06E0FFF7B0
:105AC00062FFFFF785FE012001F033F901F078FC59
:105AD0002F490968401AB0F5487FF0D31A4800886A
